{
	"auth.sol": {
		"DataAuthorization": {
			"abi": [
				{
					"inputs": [
						{
							"internalType": "address[]",
							"name": "managers",
							"type": "address[]"
						}
					],
					"stateMutability": "payable",
					"type": "constructor"
				},
				{
					"inputs": [
						{
							"internalType": "address[]",
							"name": "managers",
							"type": "address[]"
						}
					],
					"name": "AddManager",
					"outputs": [],
					"stateMutability": "nonpayable",
					"type": "function"
				},
				{
					"inputs": [
						{
							"internalType": "bytes",
							"name": "authInfo",
							"type": "bytes"
						}
					],
					"name": "Authorization",
					"outputs": [],
					"stateMutability": "payable",
					"type": "function"
				},
				{
					"inputs": [
						{
							"internalType": "uint256",
							"name": "offset",
							"type": "uint256"
						},
						{
							"internalType": "uint256",
							"name": "limit",
							"type": "uint256"
						}
					],
					"name": "GetAuthJson",
					"outputs": [
						{
							"internalType": "bytes",
							"name": "",
							"type": "bytes"
						}
					],
					"stateMutability": "view",
					"type": "function"
				},
				{
					"inputs": [
						{
							"components": [
								{
									"internalType": "bytes",
									"name": "authInfo",
									"type": "bytes"
								},
								{
									"internalType": "address",
									"name": "author",
									"type": "address"
								},
								{
									"internalType": "uint256",
									"name": "authId",
									"type": "uint256"
								}
							],
							"internalType": "struct DataAuthorization.AuthorizationInfo",
							"name": "item",
							"type": "tuple"
						},
						{
							"internalType": "bool",
							"name": "last",
							"type": "bool"
						}
					],
					"name": "GetItemJson",
					"outputs": [
						{
							"internalType": "bytes",
							"name": "",
							"type": "bytes"
						}
					],
					"stateMutability": "pure",
					"type": "function"
				},
				{
					"inputs": [
						{
							"internalType": "address[]",
							"name": "managers",
							"type": "address[]"
						}
					],
					"name": "RemoveManager",
					"outputs": [],
					"stateMutability": "nonpayable",
					"type": "function"
				},
				{
					"inputs": [
						{
							"internalType": "bytes",
							"name": "buffer",
							"type": "bytes"
						}
					],
					"name": "ToHex",
					"outputs": [
						{
							"internalType": "bytes",
							"name": "",
							"type": "bytes"
						}
					],
					"stateMutability": "pure",
					"type": "function"
				},
				{
					"inputs": [
						{
							"internalType": "uint256",
							"name": "",
							"type": "uint256"
						}
					],
					"name": "authorizations",
					"outputs": [
						{
							"internalType": "bytes",
							"name": "authInfo",
							"type": "bytes"
						},
						{
							"internalType": "address",
							"name": "author",
							"type": "address"
						},
						{
							"internalType": "uint256",
							"name": "authId",
							"type": "uint256"
						}
					],
					"stateMutability": "view",
					"type": "function"
				},
				{
					"inputs": [
						{
							"internalType": "bytes[]",
							"name": "arr",
							"type": "bytes[]"
						},
						{
							"internalType": "uint256",
							"name": "count",
							"type": "uint256"
						}
					],
					"name": "bytesConcat",
					"outputs": [
						{
							"internalType": "bytes",
							"name": "",
							"type": "bytes"
						}
					],
					"stateMutability": "pure",
					"type": "function"
				},
				{
					"inputs": [],
					"name": "owner",
					"outputs": [
						{
							"internalType": "address",
							"name": "",
							"type": "address"
						}
					],
					"stateMutability": "view",
					"type": "function"
				},
				{
					"inputs": [
						{
							"internalType": "address",
							"name": "a",
							"type": "address"
						}
					],
					"name": "toBytes",
					"outputs": [
						{
							"internalType": "bytes",
							"name": "",
							"type": "bytes"
						}
					],
					"stateMutability": "pure",
					"type": "function"
				},
				{
					"inputs": [
						{
							"internalType": "uint256",
							"name": "x",
							"type": "uint256"
						}
					],
					"name": "u256ToBytes",
					"outputs": [
						{
							"internalType": "bytes",
							"name": "b",
							"type": "bytes"
						}
					],
					"stateMutability": "pure",
					"type": "function"
				},
				{
					"inputs": [
						{
							"internalType": "address",
							"name": "",
							"type": "address"
						}
					],
					"name": "valid_managers",
					"outputs": [
						{
							"internalType": "bool",
							"name": "",
							"type": "bool"
						}
					],
					"stateMutability": "view",
					"type": "function"
				}
			],
			"devdoc": {
				"kind": "dev",
				"methods": {},
				"version": 1
			},
			"evm": {
				"assembly": "    /* \"auth.sol\":72:4671  contract DataAuthorization {... */\n  mstore(0x40, 0x80)\n    /* \"auth.sol\":239:240  0 */\n  0x00\n    /* \"auth.sol\":222:240  uint256 authId = 0 */\n  dup1\n  sstore\n    /* \"auth.sol\":497:799  constructor(address[] memory managers) payable {... */\n  mload(0x40)\n  sub(codesize, bytecodeSize)\n  dup1\n  bytecodeSize\n  dup4\n  codecopy\n  dup2\n  dup2\n  add\n  0x40\n  mstore\n  dup2\n  add\n  swap1\n  tag_1\n  swap2\n  swap1\n  tag_2\n  jump\t// in\ntag_1:\n    /* \"auth.sol\":555:571  uint arrayLength */\n  0x00\n    /* \"auth.sol\":574:582  managers */\n  dup2\n    /* \"auth.sol\":574:589  managers.length */\n  mload\n    /* \"auth.sol\":555:589  uint arrayLength = managers.length */\n  swap1\n  pop\n    /* \"auth.sol\":605:611  uint i */\n  0x00\n    /* \"auth.sol\":600:696  for (uint i=0; i<arrayLength; i++) {... */\ntag_5:\n    /* \"auth.sol\":617:628  arrayLength */\n  dup2\n    /* \"auth.sol\":615:616  i */\n  dup2\n    /* \"auth.sol\":615:628  i<arrayLength */\n  lt\n    /* \"auth.sol\":600:696  for (uint i=0; i<arrayLength; i++) {... */\n  iszero\n  tag_6\n  jumpi\n    /* \"auth.sol\":680:684  true */\n  0x01\n    /* \"auth.sol\":650:664  valid_managers */\n  0x03\n    /* \"auth.sol\":650:677  valid_managers[managers[i]] */\n  0x00\n    /* \"auth.sol\":665:673  managers */\n  dup6\n    /* \"auth.sol\":674:675  i */\n  dup5\n    /* \"auth.sol\":665:676  managers[i] */\n  dup2\n  mload\n  dup2\n  lt\n  tag_8\n  jumpi\n  tag_9\n  tag_10\n  jump\t// in\ntag_9:\ntag_8:\n  0x20\n  mul\n  0x20\n  add\n  add\n  mload\n    /* \"auth.sol\":650:677  valid_managers[managers[i]] */\n  0xffffffffffffffffffffffffffffffffffffffff\n  and\n  0xffffffffffffffffffffffffffffffffffffffff\n  and\n  dup2\n  mstore\n  0x20\n  add\n  swap1\n  dup2\n  mstore\n  0x20\n  add\n  0x00\n  keccak256\n  0x00\n    /* \"auth.sol\":650:684  valid_managers[managers[i]] = true */\n  0x0100\n  exp\n  dup2\n  sload\n  dup2\n  0xff\n  mul\n  not\n  and\n  swap1\n  dup4\n  iszero\n  iszero\n  mul\n  or\n  swap1\n  sstore\n  pop\n    /* \"auth.sol\":630:633  i++ */\n  dup1\n  dup1\n  0x01\n  add\n  swap2\n  pop\n  pop\n    /* \"auth.sol\":600:696  for (uint i=0; i<arrayLength; i++) {... */\n  jump(tag_5)\ntag_6:\n  pop\n    /* \"auth.sol\":717:718  0 */\n  0x00\n    /* \"auth.sol\":708:714  authId */\n  dup1\n    /* \"auth.sol\":708:718  authId = 0 */\n  dup2\n  swap1\n  sstore\n  pop\n    /* \"auth.sol\":758:762  true */\n  0x01\n    /* \"auth.sol\":729:743  valid_managers */\n  0x03\n    /* \"auth.sol\":729:755  valid_managers[msg.sender] */\n  0x00\n    /* \"auth.sol\":744:754  msg.sender */\n  caller\n    /* \"auth.sol\":729:755  valid_managers[msg.sender] */\n  0xffffffffffffffffffffffffffffffffffffffff\n  and\n  0xffffffffffffffffffffffffffffffffffffffff\n  and\n  dup2\n  mstore\n  0x20\n  add\n  swap1\n  dup2\n  mstore\n  0x20\n  add\n  0x00\n  keccak256\n  0x00\n    /* \"auth.sol\":729:762  valid_managers[msg.sender] = true */\n  0x0100\n  exp\n  dup2\n  sload\n  dup2\n  0xff\n  mul\n  not\n  and\n  swap1\n  dup4\n  iszero\n  iszero\n  mul\n  or\n  swap1\n  sstore\n  pop\n    /* \"auth.sol\":781:791  msg.sender */\n  caller\n    /* \"auth.sol\":773:778  owner */\n  0x01\n  0x00\n    /* \"auth.sol\":773:791  owner = msg.sender */\n  0x0100\n  exp\n  dup2\n  sload\n  dup2\n  0xffffffffffffffffffffffffffffffffffffffff\n  mul\n  not\n  and\n  swap1\n  dup4\n  0xffffffffffffffffffffffffffffffffffffffff\n  and\n  mul\n  or\n  swap1\n  sstore\n  pop\n    /* \"auth.sol\":544:799  {... */\n  pop\n    /* \"auth.sol\":497:799  constructor(address[] memory managers) payable {... */\n  pop\n    /* \"auth.sol\":72:4671  contract DataAuthorization {... */\n  jump(tag_11)\n    /* \"#utility.yul\":7:82   */\ntag_12:\n    /* \"#utility.yul\":40:46   */\n  0x00\n    /* \"#utility.yul\":73:75   */\n  0x40\n    /* \"#utility.yul\":67:76   */\n  mload\n    /* \"#utility.yul\":57:76   */\n  swap1\n  pop\n    /* \"#utility.yul\":7:82   */\n  swap1\n  jump\t// out\n    /* \"#utility.yul\":88:205   */\ntag_13:\n    /* \"#utility.yul\":197:198   */\n  0x00\n    /* \"#utility.yul\":194:195   */\n  dup1\n    /* \"#utility.yul\":187:199   */\n  revert\n    /* \"#utility.yul\":211:328   */\ntag_14:\n    /* \"#utility.yul\":320:321   */\n  0x00\n    /* \"#utility.yul\":317:318   */\n  dup1\n    /* \"#utility.yul\":310:322   */\n  revert\n    /* \"#utility.yul\":334:451   */\ntag_15:\n    /* \"#utility.yul\":443:444   */\n  0x00\n    /* \"#utility.yul\":440:441   */\n  dup1\n    /* \"#utility.yul\":433:445   */\n  revert\n    /* \"#utility.yul\":457:559   */\ntag_16:\n    /* \"#utility.yul\":498:504   */\n  0x00\n    /* \"#utility.yul\":549:551   */\n  0x1f\n    /* \"#utility.yul\":545:552   */\n  not\n    /* \"#utility.yul\":540:542   */\n  0x1f\n    /* \"#utility.yul\":533:538   */\n  dup4\n    /* \"#utility.yul\":529:543   */\n  add\n    /* \"#utility.yul\":525:553   */\n  and\n    /* \"#utility.yul\":515:553   */\n  swap1\n  pop\n    /* \"#utility.yul\":457:559   */\n  swap2\n  swap1\n  pop\n  jump\t// out\n    /* \"#utility.yul\":565:745   */\ntag_17:\n    /* \"#utility.yul\":613:690   */\n  0x4e487b7100000000000000000000000000000000000000000000000000000000\n    /* \"#utility.yul\":610:611   */\n  0x00\n    /* \"#utility.yul\":603:691   */\n  mstore\n    /* \"#utility.yul\":710:714   */\n  0x41\n    /* \"#utility.yul\":707:708   */\n  0x04\n    /* \"#utility.yul\":700:715   */\n  mstore\n    /* \"#utility.yul\":734:738   */\n  0x24\n    /* \"#utility.yul\":731:732   */\n  0x00\n    /* \"#utility.yul\":724:739   */\n  revert\n    /* \"#utility.yul\":751:1032   */\ntag_18:\n    /* \"#utility.yul\":834:861   */\n  tag_36\n    /* \"#utility.yul\":856:860   */\n  dup3\n    /* \"#utility.yul\":834:861   */\n  tag_16\n  jump\t// in\ntag_36:\n    /* \"#utility.yul\":826:832   */\n  dup2\n    /* \"#utility.yul\":822:862   */\n  add\n    /* \"#utility.yul\":964:970   */\n  dup2\n    /* \"#utility.yul\":952:962   */\n  dup2\n    /* \"#utility.yul\":949:971   */\n  lt\n    /* \"#utility.yul\":928:946   */\n  0xffffffffffffffff\n    /* \"#utility.yul\":916:926   */\n  dup3\n    /* \"#utility.yul\":913:947   */\n  gt\n    /* \"#utility.yul\":910:972   */\n  or\n    /* \"#utility.yul\":907:995   */\n  iszero\n  tag_37\n  jumpi\n    /* \"#utility.yul\":975:993   */\n  tag_38\n  tag_17\n  jump\t// in\ntag_38:\n    /* \"#utility.yul\":907:995   */\ntag_37:\n    /* \"#utility.yul\":1015:1025   */\n  dup1\n    /* \"#utility.yul\":1011:1013   */\n  0x40\n    /* \"#utility.yul\":1004:1026   */\n  mstore\n    /* \"#utility.yul\":794:1032   */\n  pop\n    /* \"#utility.yul\":751:1032   */\n  pop\n  pop\n  jump\t// out\n    /* \"#utility.yul\":1038:1167   */\ntag_19:\n    /* \"#utility.yul\":1072:1078   */\n  0x00\n    /* \"#utility.yul\":1099:1119   */\n  tag_40\n  tag_12\n  jump\t// in\ntag_40:\n    /* \"#utility.yul\":1089:1119   */\n  swap1\n  pop\n    /* \"#utility.yul\":1128:1161   */\n  tag_41\n    /* \"#utility.yul\":1156:1160   */\n  dup3\n    /* \"#utility.yul\":1148:1154   */\n  dup3\n    /* \"#utility.yul\":1128:1161   */\n  tag_18\n  jump\t// in\ntag_41:\n    /* \"#utility.yul\":1038:1167   */\n  swap2\n  swap1\n  pop\n  jump\t// out\n    /* \"#utility.yul\":1173:1484   */\ntag_20:\n    /* \"#utility.yul\":1250:1254   */\n  0x00\n    /* \"#utility.yul\":1340:1358   */\n  0xffffffffffffffff\n    /* \"#utility.yul\":1332:1338   */\n  dup3\n    /* \"#utility.yul\":1329:1359   */\n  gt\n    /* \"#utility.yul\":1326:1382   */\n  iszero\n  tag_43\n  jumpi\n    /* \"#utility.yul\":1362:1380   */\n  tag_44\n  tag_17\n  jump\t// in\ntag_44:\n    /* \"#utility.yul\":1326:1382   */\ntag_43:\n    /* \"#utility.yul\":1412:1416   */\n  0x20\n    /* \"#utility.yul\":1404:1410   */\n  dup3\n    /* \"#utility.yul\":1400:1417   */\n  mul\n    /* \"#utility.yul\":1392:1417   */\n  swap1\n  pop\n    /* \"#utility.yul\":1472:1476   */\n  0x20\n    /* \"#utility.yul\":1466:1470   */\n  dup2\n    /* \"#utility.yul\":1462:1477   */\n  add\n    /* \"#utility.yul\":1454:1477   */\n  swap1\n  pop\n    /* \"#utility.yul\":1173:1484   */\n  swap2\n  swap1\n  pop\n  jump\t// out\n    /* \"#utility.yul\":1490:1607   */\ntag_21:\n    /* \"#utility.yul\":1599:1600   */\n  0x00\n    /* \"#utility.yul\":1596:1597   */\n  dup1\n    /* \"#utility.yul\":1589:1601   */\n  revert\n    /* \"#utility.yul\":1613:1739   */\ntag_22:\n    /* \"#utility.yul\":1650:1657   */\n  0x00\n    /* \"#utility.yul\":1690:1732   */\n  0xffffffffffffffffffffffffffffffffffffffff\n    /* \"#utility.yul\":1683:1688   */\n  dup3\n    /* \"#utility.yul\":1679:1733   */\n  and\n    /* \"#utility.yul\":1668:1733   */\n  swap1\n  pop\n    /* \"#utility.yul\":1613:1739   */\n  swap2\n  swap1\n  pop\n  jump\t// out\n    /* \"#utility.yul\":1745:1841   */\ntag_23:\n    /* \"#utility.yul\":1782:1789   */\n  0x00\n    /* \"#utility.yul\":1811:1835   */\n  tag_48\n    /* \"#utility.yul\":1829:1834   */\n  dup3\n    /* \"#utility.yul\":1811:1835   */\n  tag_22\n  jump\t// in\ntag_48:\n    /* \"#utility.yul\":1800:1835   */\n  swap1\n  pop\n    /* \"#utility.yul\":1745:1841   */\n  swap2\n  swap1\n  pop\n  jump\t// out\n    /* \"#utility.yul\":1847:1969   */\ntag_24:\n    /* \"#utility.yul\":1920:1944   */\n  tag_50\n    /* \"#utility.yul\":1938:1943   */\n  dup2\n    /* \"#utility.yul\":1920:1944   */\n  tag_23\n  jump\t// in\ntag_50:\n    /* \"#utility.yul\":1913:1918   */\n  dup2\n    /* \"#utility.yul\":1910:1945   */\n  eq\n    /* \"#utility.yul\":1900:1963   */\n  tag_51\n  jumpi\n    /* \"#utility.yul\":1959:1960   */\n  0x00\n    /* \"#utility.yul\":1956:1957   */\n  dup1\n    /* \"#utility.yul\":1949:1961   */\n  revert\n    /* \"#utility.yul\":1900:1963   */\ntag_51:\n    /* \"#utility.yul\":1847:1969   */\n  pop\n  jump\t// out\n    /* \"#utility.yul\":1975:2118   */\ntag_25:\n    /* \"#utility.yul\":2032:2037   */\n  0x00\n    /* \"#utility.yul\":2063:2069   */\n  dup2\n    /* \"#utility.yul\":2057:2070   */\n  mload\n    /* \"#utility.yul\":2048:2070   */\n  swap1\n  pop\n    /* \"#utility.yul\":2079:2112   */\n  tag_53\n    /* \"#utility.yul\":2106:2111   */\n  dup2\n    /* \"#utility.yul\":2079:2112   */\n  tag_24\n  jump\t// in\ntag_53:\n    /* \"#utility.yul\":1975:2118   */\n  swap3\n  swap2\n  pop\n  pop\n  jump\t// out\n    /* \"#utility.yul\":2141:2873   */\ntag_26:\n    /* \"#utility.yul\":2248:2253   */\n  0x00\n    /* \"#utility.yul\":2273:2354   */\n  tag_55\n    /* \"#utility.yul\":2289:2353   */\n  tag_56\n    /* \"#utility.yul\":2346:2352   */\n  dup5\n    /* \"#utility.yul\":2289:2353   */\n  tag_20\n  jump\t// in\ntag_56:\n    /* \"#utility.yul\":2273:2354   */\n  tag_19\n  jump\t// in\ntag_55:\n    /* \"#utility.yul\":2264:2354   */\n  swap1\n  pop\n    /* \"#utility.yul\":2374:2379   */\n  dup1\n    /* \"#utility.yul\":2403:2409   */\n  dup4\n    /* \"#utility.yul\":2396:2401   */\n  dup3\n    /* \"#utility.yul\":2389:2410   */\n  mstore\n    /* \"#utility.yul\":2437:2441   */\n  0x20\n    /* \"#utility.yul\":2430:2435   */\n  dup3\n    /* \"#utility.yul\":2426:2442   */\n  add\n    /* \"#utility.yul\":2419:2442   */\n  swap1\n  pop\n    /* \"#utility.yul\":2490:2494   */\n  0x20\n    /* \"#utility.yul\":2482:2488   */\n  dup5\n    /* \"#utility.yul\":2478:2495   */\n  mul\n    /* \"#utility.yul\":2470:2476   */\n  dup4\n    /* \"#utility.yul\":2466:2496   */\n  add\n    /* \"#utility.yul\":2519:2522   */\n  dup6\n    /* \"#utility.yul\":2511:2517   */\n  dup2\n    /* \"#utility.yul\":2508:2523   */\n  gt\n    /* \"#utility.yul\":2505:2627   */\n  iszero\n  tag_57\n  jumpi\n    /* \"#utility.yul\":2538:2617   */\n  tag_58\n  tag_21\n  jump\t// in\ntag_58:\n    /* \"#utility.yul\":2505:2627   */\ntag_57:\n    /* \"#utility.yul\":2653:2659   */\n  dup4\n    /* \"#utility.yul\":2636:2867   */\ntag_59:\n    /* \"#utility.yul\":2670:2676   */\n  dup2\n    /* \"#utility.yul\":2665:2668   */\n  dup2\n    /* \"#utility.yul\":2662:2677   */\n  lt\n    /* \"#utility.yul\":2636:2867   */\n  iszero\n  tag_61\n  jumpi\n    /* \"#utility.yul\":2745:2748   */\n  dup1\n    /* \"#utility.yul\":2774:2822   */\n  tag_62\n    /* \"#utility.yul\":2818:2821   */\n  dup9\n    /* \"#utility.yul\":2806:2816   */\n  dup3\n    /* \"#utility.yul\":2774:2822   */\n  tag_25\n  jump\t// in\ntag_62:\n    /* \"#utility.yul\":2769:2772   */\n  dup5\n    /* \"#utility.yul\":2762:2823   */\n  mstore\n    /* \"#utility.yul\":2852:2856   */\n  0x20\n    /* \"#utility.yul\":2847:2850   */\n  dup5\n    /* \"#utility.yul\":2843:2857   */\n  add\n    /* \"#utility.yul\":2836:2857   */\n  swap4\n  pop\n    /* \"#utility.yul\":2712:2867   */\n  pop\n    /* \"#utility.yul\":2696:2700   */\n  0x20\n    /* \"#utility.yul\":2691:2694   */\n  dup2\n    /* \"#utility.yul\":2687:2701   */\n  add\n    /* \"#utility.yul\":2680:2701   */\n  swap1\n  pop\n    /* \"#utility.yul\":2636:2867   */\n  jump(tag_59)\ntag_61:\n    /* \"#utility.yul\":2640:2661   */\n  pop\n    /* \"#utility.yul\":2254:2873   */\n  pop\n  pop\n    /* \"#utility.yul\":2141:2873   */\n  swap4\n  swap3\n  pop\n  pop\n  pop\n  jump\t// out\n    /* \"#utility.yul\":2896:3281   */\ntag_27:\n    /* \"#utility.yul\":2978:2983   */\n  0x00\n    /* \"#utility.yul\":3027:3030   */\n  dup3\n    /* \"#utility.yul\":3020:3024   */\n  0x1f\n    /* \"#utility.yul\":3012:3018   */\n  dup4\n    /* \"#utility.yul\":3008:3025   */\n  add\n    /* \"#utility.yul\":3004:3031   */\n  slt\n    /* \"#utility.yul\":2994:3116   */\n  tag_64\n  jumpi\n    /* \"#utility.yul\":3035:3114   */\n  tag_65\n  tag_15\n  jump\t// in\ntag_65:\n    /* \"#utility.yul\":2994:3116   */\ntag_64:\n    /* \"#utility.yul\":3145:3151   */\n  dup2\n    /* \"#utility.yul\":3139:3152   */\n  mload\n    /* \"#utility.yul\":3170:3275   */\n  tag_66\n    /* \"#utility.yul\":3271:3274   */\n  dup5\n    /* \"#utility.yul\":3263:3269   */\n  dup3\n    /* \"#utility.yul\":3256:3260   */\n  0x20\n    /* \"#utility.yul\":3248:3254   */\n  dup7\n    /* \"#utility.yul\":3244:3261   */\n  add\n    /* \"#utility.yul\":3170:3275   */\n  tag_26\n  jump\t// in\ntag_66:\n    /* \"#utility.yul\":3161:3275   */\n  swap2\n  pop\n    /* \"#utility.yul\":2984:3281   */\n  pop\n    /* \"#utility.yul\":2896:3281   */\n  swap3\n  swap2\n  pop\n  pop\n  jump\t// out\n    /* \"#utility.yul\":3287:3841   */\ntag_2:\n    /* \"#utility.yul\":3382:3388   */\n  0x00\n    /* \"#utility.yul\":3431:3433   */\n  0x20\n    /* \"#utility.yul\":3419:3428   */\n  dup3\n    /* \"#utility.yul\":3410:3417   */\n  dup5\n    /* \"#utility.yul\":3406:3429   */\n  sub\n    /* \"#utility.yul\":3402:3434   */\n  slt\n    /* \"#utility.yul\":3399:3518   */\n  iszero\n  tag_68\n  jumpi\n    /* \"#utility.yul\":3437:3516   */\n  tag_69\n  tag_13\n  jump\t// in\ntag_69:\n    /* \"#utility.yul\":3399:3518   */\ntag_68:\n    /* \"#utility.yul\":3578:3579   */\n  0x00\n    /* \"#utility.yul\":3567:3576   */\n  dup3\n    /* \"#utility.yul\":3563:3580   */\n  add\n    /* \"#utility.yul\":3557:3581   */\n  mload\n    /* \"#utility.yul\":3608:3626   */\n  0xffffffffffffffff\n    /* \"#utility.yul\":3600:3606   */\n  dup2\n    /* \"#utility.yul\":3597:3627   */\n  gt\n    /* \"#utility.yul\":3594:3711   */\n  iszero\n  tag_70\n  jumpi\n    /* \"#utility.yul\":3630:3709   */\n  tag_71\n  tag_14\n  jump\t// in\ntag_71:\n    /* \"#utility.yul\":3594:3711   */\ntag_70:\n    /* \"#utility.yul\":3735:3824   */\n  tag_72\n    /* \"#utility.yul\":3816:3823   */\n  dup5\n    /* \"#utility.yul\":3807:3813   */\n  dup3\n    /* \"#utility.yul\":3796:3805   */\n  dup6\n    /* \"#utility.yul\":3792:3814   */\n  add\n    /* \"#utility.yul\":3735:3824   */\n  tag_27\n  jump\t// in\ntag_72:\n    /* \"#utility.yul\":3725:3824   */\n  swap2\n  pop\n    /* \"#utility.yul\":3528:3834   */\n  pop\n    /* \"#utility.yul\":3287:3841   */\n  swap3\n  swap2\n  pop\n  pop\n  jump\t// out\n    /* \"#utility.yul\":3847:4027   */\ntag_10:\n    /* \"#utility.yul\":3895:3972   */\n  0x4e487b7100000000000000000000000000000000000000000000000000000000\n    /* \"#utility.yul\":3892:3893   */\n  0x00\n    /* \"#utility.yul\":3885:3973   */\n  mstore\n    /* \"#utility.yul\":3992:3996   */\n  0x32\n    /* \"#utility.yul\":3989:3990   */\n  0x04\n    /* \"#utility.yul\":3982:3997   */\n  mstore\n    /* \"#utility.yul\":4016:4020   */\n  0x24\n    /* \"#utility.yul\":4013:4014   */\n  0x00\n    /* \"#utility.yul\":4006:4021   */\n  revert\n    /* \"auth.sol\":72:4671  contract DataAuthorization {... */\ntag_11:\n  dataSize(sub_0)\n  dup1\n  dataOffset(sub_0)\n  0x00\n  codecopy\n  0x00\n  return\nstop\n\nsub_0: assembly {\n        /* \"auth.sol\":72:4671  contract DataAuthorization {... */\n      mstore(0x40, 0x80)\n      jumpi(tag_1, lt(calldatasize, 0x04))\n      shr(0xe0, calldataload(0x00))\n      dup1\n      0x856ed094\n      gt\n      tag_14\n      jumpi\n      dup1\n      0x856ed094\n      eq\n      tag_8\n      jumpi\n      dup1\n      0x8da5cb5b\n      eq\n      tag_9\n      jumpi\n      dup1\n      0xe802a850\n      eq\n      tag_10\n      jumpi\n      dup1\n      0xe8039e35\n      eq\n      tag_11\n      jumpi\n      dup1\n      0xe9073fc6\n      eq\n      tag_12\n      jumpi\n      dup1\n      0xf62aef33\n      eq\n      tag_13\n      jumpi\n      jump(tag_1)\n    tag_14:\n      dup1\n      0x0cdb0d53\n      eq\n      tag_2\n      jumpi\n      dup1\n      0x210d66f8\n      eq\n      tag_3\n      jumpi\n      dup1\n      0x2e559c0d\n      eq\n      tag_4\n      jumpi\n      dup1\n      0x34f4f5f1\n      eq\n      tag_5\n      jumpi\n      dup1\n      0x593b79fe\n      eq\n      tag_6\n      jumpi\n      dup1\n      0x70587c10\n      eq\n      tag_7\n      jumpi\n    tag_1:\n      0x00\n      dup1\n      revert\n        /* \"auth.sol\":3238:3674  function ToHex(bytes memory buffer) public pure returns (bytes memory) {... */\n    tag_2:\n      callvalue\n      dup1\n      iszero\n      tag_15\n      jumpi\n      0x00\n      dup1\n      revert\n    tag_15:\n      pop\n      tag_16\n      0x04\n      dup1\n      calldatasize\n      sub\n      dup2\n      add\n      swap1\n      tag_17\n      swap2\n      swap1\n      tag_18\n      jump\t// in\n    tag_17:\n      tag_19\n      jump\t// in\n    tag_16:\n      mload(0x40)\n      tag_20\n      swap2\n      swap1\n      tag_21\n      jump\t// in\n    tag_20:\n      mload(0x40)\n      dup1\n      swap2\n      sub\n      swap1\n      return\n        /* \"auth.sol\":274:333  mapping(uint256 => AuthorizationInfo) public authorizations */\n    tag_3:\n      callvalue\n      dup1\n      iszero\n      tag_22\n      jumpi\n      0x00\n      dup1\n      revert\n    tag_22:\n      pop\n      tag_23\n      0x04\n      dup1\n      calldatasize\n      sub\n      dup2\n      add\n      swap1\n      tag_24\n      swap2\n      swap1\n      tag_25\n      jump\t// in\n    tag_24:\n      tag_26\n      jump\t// in\n    tag_23:\n      mload(0x40)\n      tag_27\n      swap4\n      swap3\n      swap2\n      swap1\n      tag_28\n      jump\t// in\n    tag_27:\n      mload(0x40)\n      dup1\n      swap2\n      sub\n      swap1\n      return\n        /* \"auth.sol\":3798:3947  function u256ToBytes(uint256 x) public pure returns (bytes memory b) {... */\n    tag_4:\n      callvalue\n      dup1\n      iszero\n      tag_29\n      jumpi\n      0x00\n      dup1\n      revert\n    tag_29:\n      pop\n      tag_30\n      0x04\n      dup1\n      calldatasize\n      sub\n      dup2\n      add\n      swap1\n      tag_31\n      swap2\n      swap1\n      tag_25\n      jump\t// in\n    tag_31:\n      tag_32\n      jump\t// in\n    tag_30:\n      mload(0x40)\n      tag_33\n      swap2\n      swap1\n      tag_21\n      jump\t// in\n    tag_33:\n      mload(0x40)\n      dup1\n      swap2\n      sub\n      swap1\n      return\n        /* \"auth.sol\":1847:2756  function GetAuthJson(uint offset, uint limit) public view returns(bytes memory) {... */\n    tag_5:\n      callvalue\n      dup1\n      iszero\n      tag_34\n      jumpi\n      0x00\n      dup1\n      revert\n    tag_34:\n      pop\n      tag_35\n      0x04\n      dup1\n      calldatasize\n      sub\n      dup2\n      add\n      swap1\n      tag_36\n      swap2\n      swap1\n      tag_37\n      jump\t// in\n    tag_36:\n      tag_38\n      jump\t// in\n    tag_35:\n      mload(0x40)\n      tag_39\n      swap2\n      swap1\n      tag_21\n      jump\t// in\n    tag_39:\n      mload(0x40)\n      dup1\n      swap2\n      sub\n      swap1\n      return\n        /* \"auth.sol\":3682:3790  function toBytes(address a) public pure returns (bytes memory) {... */\n    tag_6:\n      callvalue\n      dup1\n      iszero\n      tag_40\n      jumpi\n      0x00\n      dup1\n      revert\n    tag_40:\n      pop\n      tag_41\n      0x04\n      dup1\n      calldatasize\n      sub\n      dup2\n      add\n      swap1\n      tag_42\n      swap2\n      swap1\n      tag_43\n      jump\t// in\n    tag_42:\n      tag_44\n      jump\t// in\n    tag_41:\n      mload(0x40)\n      tag_45\n      swap2\n      swap1\n      tag_21\n      jump\t// in\n    tag_45:\n      mload(0x40)\n      dup1\n      swap2\n      sub\n      swap1\n      return\n        /* \"auth.sol\":2764:3230  function bytesConcat(bytes[] memory arr, uint count) public pure returns (bytes memory){... */\n    tag_7:\n      callvalue\n      dup1\n      iszero\n      tag_46\n      jumpi\n      0x00\n      dup1\n      revert\n    tag_46:\n      pop\n      tag_47\n      0x04\n      dup1\n      calldatasize\n      sub\n      dup2\n      add\n      swap1\n      tag_48\n      swap2\n      swap1\n      tag_49\n      jump\t// in\n    tag_48:\n      tag_50\n      jump\t// in\n    tag_47:\n      mload(0x40)\n      tag_51\n      swap2\n      swap1\n      tag_21\n      jump\t// in\n    tag_51:\n      mload(0x40)\n      dup1\n      swap2\n      sub\n      swap1\n      return\n        /* \"auth.sol\":340:386  mapping(address => bool) public valid_managers */\n    tag_8:\n      callvalue\n      dup1\n      iszero\n      tag_52\n      jumpi\n      0x00\n      dup1\n      revert\n    tag_52:\n      pop\n      tag_53\n      0x04\n      dup1\n      calldatasize\n      sub\n      dup2\n      add\n      swap1\n      tag_54\n      swap2\n      swap1\n      tag_43\n      jump\t// in\n    tag_54:\n      tag_55\n      jump\t// in\n    tag_53:\n      mload(0x40)\n      tag_56\n      swap2\n      swap1\n      tag_57\n      jump\t// in\n    tag_56:\n      mload(0x40)\n      dup1\n      swap2\n      sub\n      swap1\n      return\n        /* \"auth.sol\":247:267  address public owner */\n    tag_9:\n      callvalue\n      dup1\n      iszero\n      tag_58\n      jumpi\n      0x00\n      dup1\n      revert\n    tag_58:\n      pop\n      tag_59\n      tag_60\n      jump\t// in\n    tag_59:\n      mload(0x40)\n      tag_61\n      swap2\n      swap1\n      tag_62\n      jump\t// in\n    tag_61:\n      mload(0x40)\n      dup1\n      swap2\n      sub\n      swap1\n      return\n        /* \"auth.sol\":837:1089  function AddManager(address[] memory managers) public {... */\n    tag_10:\n      callvalue\n      dup1\n      iszero\n      tag_63\n      jumpi\n      0x00\n      dup1\n      revert\n    tag_63:\n      pop\n      tag_64\n      0x04\n      dup1\n      calldatasize\n      sub\n      dup2\n      add\n      swap1\n      tag_65\n      swap2\n      swap1\n      tag_66\n      jump\t// in\n    tag_65:\n      tag_67\n      jump\t// in\n    tag_64:\n      stop\n        /* \"auth.sol\":3955:4668  function GetItemJson(AuthorizationInfo memory item, bool last) public pure returns (bytes memory) {... */\n    tag_11:\n      callvalue\n      dup1\n      iszero\n      tag_68\n      jumpi\n      0x00\n      dup1\n      revert\n    tag_68:\n      pop\n      tag_69\n      0x04\n      dup1\n      calldatasize\n      sub\n      dup2\n      add\n      swap1\n      tag_70\n      swap2\n      swap1\n      tag_71\n      jump\t// in\n    tag_70:\n      tag_72\n      jump\t// in\n    tag_69:\n      mload(0x40)\n      tag_73\n      swap2\n      swap1\n      tag_21\n      jump\t// in\n    tag_73:\n      mload(0x40)\n      dup1\n      swap2\n      sub\n      swap1\n      return\n        /* \"auth.sol\":1478:1812  function Authorization(bytes memory authInfo) public payable {... */\n    tag_12:\n      tag_74\n      0x04\n      dup1\n      calldatasize\n      sub\n      dup2\n      add\n      swap1\n      tag_75\n      swap2\n      swap1\n      tag_18\n      jump\t// in\n    tag_75:\n      tag_76\n      jump\t// in\n    tag_74:\n      stop\n        /* \"auth.sol\":1127:1449  function RemoveManager(address[] memory managers) public {... */\n    tag_13:\n      callvalue\n      dup1\n      iszero\n      tag_77\n      jumpi\n      0x00\n      dup1\n      revert\n    tag_77:\n      pop\n      tag_78\n      0x04\n      dup1\n      calldatasize\n      sub\n      dup2\n      add\n      swap1\n      tag_79\n      swap2\n      swap1\n      tag_66\n      jump\t// in\n    tag_79:\n      tag_80\n      jump\t// in\n    tag_78:\n      stop\n        /* \"auth.sol\":3238:3674  function ToHex(bytes memory buffer) public pure returns (bytes memory) {... */\n    tag_19:\n        /* \"auth.sol\":3295:3307  bytes memory */\n      0x60\n        /* \"auth.sol\":3320:3342  bytes memory converted */\n      0x00\n        /* \"auth.sol\":3371:3372  2 */\n      0x02\n        /* \"auth.sol\":3355:3361  buffer */\n      dup4\n        /* \"auth.sol\":3355:3368  buffer.length */\n      mload\n        /* \"auth.sol\":3355:3372  buffer.length * 2 */\n      tag_82\n      swap2\n      swap1\n      tag_83\n      jump\t// in\n    tag_82:\n        /* \"auth.sol\":3345:3373  new bytes(buffer.length * 2) */\n      0xffffffffffffffff\n      dup2\n      gt\n      iszero\n      tag_84\n      jumpi\n      tag_85\n      tag_86\n      jump\t// in\n    tag_85:\n    tag_84:\n      mload(0x40)\n      swap1\n      dup1\n      dup3\n      mstore\n      dup1\n      0x1f\n      add\n      not(0x1f)\n      and\n      0x20\n      add\n      dup3\n      add\n      0x40\n      mstore\n      dup1\n      iszero\n      tag_87\n      jumpi\n      dup2\n      0x20\n      add\n      0x01\n      dup3\n      mul\n      dup1\n      calldatasize\n      dup4\n      calldatacopy\n      dup1\n      dup3\n      add\n      swap2\n      pop\n      pop\n      swap1\n      pop\n    tag_87:\n      pop\n        /* \"auth.sol\":3320:3373  bytes memory converted = new bytes(buffer.length * 2) */\n      swap1\n      pop\n        /* \"auth.sol\":3384:3402  bytes memory _base */\n      0x00\n        /* \"auth.sol\":3384:3423  bytes memory _base = \"0123456789abcdef\" */\n      mload(0x40)\n      dup1\n      0x40\n      add\n      0x40\n      mstore\n      dup1\n      0x10\n      dup2\n      mstore\n      0x20\n      add\n      0x3031323334353637383961626364656600000000000000000000000000000000\n      dup2\n      mstore\n      pop\n      swap1\n      pop\n        /* \"auth.sol\":3439:3448  uint256 i */\n      0x00\n        /* \"auth.sol\":3434:3638  for (uint256 i = 0; i < buffer.length; i++) {... */\n    tag_88:\n        /* \"auth.sol\":3458:3464  buffer */\n      dup5\n        /* \"auth.sol\":3458:3471  buffer.length */\n      mload\n        /* \"auth.sol\":3454:3455  i */\n      dup2\n        /* \"auth.sol\":3454:3471  i < buffer.length */\n      lt\n        /* \"auth.sol\":3434:3638  for (uint256 i = 0; i < buffer.length; i++) {... */\n      iszero\n      tag_89\n      jumpi\n        /* \"auth.sol\":3512:3517  _base */\n      dup2\n        /* \"auth.sol\":3537:3542  _base */\n      dup3\n        /* \"auth.sol\":3537:3549  _base.length */\n      mload\n        /* \"auth.sol\":3524:3530  buffer */\n      dup7\n        /* \"auth.sol\":3531:3532  i */\n      dup4\n        /* \"auth.sol\":3524:3533  buffer[i] */\n      dup2\n      mload\n      dup2\n      lt\n      tag_91\n      jumpi\n      tag_92\n      tag_93\n      jump\t// in\n    tag_92:\n    tag_91:\n      0x20\n      add\n      add\n      mload\n      0xf8\n      shr\n      0xf8\n      shl\n        /* \"auth.sol\":3518:3534  uint8(buffer[i]) */\n      0xf8\n      shr\n        /* \"auth.sol\":3518:3549  uint8(buffer[i]) / _base.length */\n      0xff\n      and\n      tag_94\n      swap2\n      swap1\n      tag_95\n      jump\t// in\n    tag_94:\n        /* \"auth.sol\":3512:3550  _base[uint8(buffer[i]) / _base.length] */\n      dup2\n      mload\n      dup2\n      lt\n      tag_96\n      jumpi\n      tag_97\n      tag_93\n      jump\t// in\n    tag_97:\n    tag_96:\n      0x20\n      add\n      add\n      mload\n      0xf8\n      shr\n      0xf8\n      shl\n        /* \"auth.sol\":3493:3502  converted */\n      dup4\n        /* \"auth.sol\":3507:3508  2 */\n      0x02\n        /* \"auth.sol\":3503:3504  i */\n      dup4\n        /* \"auth.sol\":3503:3508  i * 2 */\n      tag_98\n      swap2\n      swap1\n      tag_83\n      jump\t// in\n    tag_98:\n        /* \"auth.sol\":3493:3509  converted[i * 2] */\n      dup2\n      mload\n      dup2\n      lt\n      tag_99\n      jumpi\n      tag_100\n      tag_93\n      jump\t// in\n    tag_100:\n    tag_99:\n      0x20\n      add\n      add\n        /* \"auth.sol\":3493:3550  converted[i * 2] = _base[uint8(buffer[i]) / _base.length] */\n      swap1\n      not(0xffffffffffffffffffffffffffffffffffffffffffffffffffffffffffffff)\n      and\n      swap1\n      dup2\n      0x00\n      byte\n      swap1\n      mstore8\n      pop\n        /* \"auth.sol\":3588:3593  _base */\n      dup2\n        /* \"auth.sol\":3613:3618  _base */\n      dup3\n        /* \"auth.sol\":3613:3625  _base.length */\n      mload\n        /* \"auth.sol\":3600:3606  buffer */\n      dup7\n        /* \"auth.sol\":3607:3608  i */\n      dup4\n        /* \"auth.sol\":3600:3609  buffer[i] */\n      dup2\n      mload\n      dup2\n      lt\n      tag_101\n      jumpi\n      tag_102\n      tag_93\n      jump\t// in\n    tag_102:\n    tag_101:\n      0x20\n      add\n      add\n      mload\n      0xf8\n      shr\n      0xf8\n      shl\n        /* \"auth.sol\":3594:3610  uint8(buffer[i]) */\n      0xf8\n      shr\n        /* \"auth.sol\":3594:3625  uint8(buffer[i]) % _base.length */\n      0xff\n      and\n      tag_103\n      swap2\n      swap1\n      tag_104\n      jump\t// in\n    tag_103:\n        /* \"auth.sol\":3588:3626  _base[uint8(buffer[i]) % _base.length] */\n      dup2\n      mload\n      dup2\n      lt\n      tag_105\n      jumpi\n      tag_106\n      tag_93\n      jump\t// in\n    tag_106:\n    tag_105:\n      0x20\n      add\n      add\n      mload\n      0xf8\n      shr\n      0xf8\n      shl\n        /* \"auth.sol\":3565:3574  converted */\n      dup4\n        /* \"auth.sol\":3583:3584  1 */\n      0x01\n        /* \"auth.sol\":3579:3580  2 */\n      0x02\n        /* \"auth.sol\":3575:3576  i */\n      dup5\n        /* \"auth.sol\":3575:3580  i * 2 */\n      tag_107\n      swap2\n      swap1\n      tag_83\n      jump\t// in\n    tag_107:\n        /* \"auth.sol\":3575:3584  i * 2 + 1 */\n      tag_108\n      swap2\n      swap1\n      tag_109\n      jump\t// in\n    tag_108:\n        /* \"auth.sol\":3565:3585  converted[i * 2 + 1] */\n      dup2\n      mload\n      dup2\n      lt\n      tag_110\n      jumpi\n      tag_111\n      tag_93\n      jump\t// in\n    tag_111:\n    tag_110:\n      0x20\n      add\n      add\n        /* \"auth.sol\":3565:3626  converted[i * 2 + 1] = _base[uint8(buffer[i]) % _base.length] */\n      swap1\n      not(0xffffffffffffffffffffffffffffffffffffffffffffffffffffffffffffff)\n      and\n      swap1\n      dup2\n      0x00\n      byte\n      swap1\n      mstore8\n      pop\n        /* \"auth.sol\":3473:3476  i++ */\n      dup1\n      dup1\n      0x01\n      add\n      swap2\n      pop\n      pop\n        /* \"auth.sol\":3434:3638  for (uint256 i = 0; i < buffer.length; i++) {... */\n      jump(tag_88)\n    tag_89:\n      pop\n        /* \"auth.sol\":3657:3666  converted */\n      dup2\n        /* \"auth.sol\":3650:3666  return converted */\n      swap3\n      pop\n      pop\n      pop\n        /* \"auth.sol\":3238:3674  function ToHex(bytes memory buffer) public pure returns (bytes memory) {... */\n      swap2\n      swap1\n      pop\n      jump\t// out\n        /* \"auth.sol\":274:333  mapping(uint256 => AuthorizationInfo) public authorizations */\n    tag_26:\n      mstore(0x20, 0x02)\n      dup1\n      0x00\n      mstore\n      keccak256(0x00, 0x40)\n      0x00\n      swap2\n      pop\n      swap1\n      pop\n      dup1\n      0x00\n      add\n      dup1\n      sload\n      tag_112\n      swap1\n      tag_113\n      jump\t// in\n    tag_112:\n      dup1\n      0x1f\n      add\n      0x20\n      dup1\n      swap2\n      div\n      mul\n      0x20\n      add\n      mload(0x40)\n      swap1\n      dup2\n      add\n      0x40\n      mstore\n      dup1\n      swap3\n      swap2\n      swap1\n      dup2\n      dup2\n      mstore\n      0x20\n      add\n      dup3\n      dup1\n      sload\n      tag_114\n      swap1\n      tag_113\n      jump\t// in\n    tag_114:\n      dup1\n      iszero\n      tag_115\n      jumpi\n      dup1\n      0x1f\n      lt\n      tag_116\n      jumpi\n      0x0100\n      dup1\n      dup4\n      sload\n      div\n      mul\n      dup4\n      mstore\n      swap2\n      0x20\n      add\n      swap2\n      jump(tag_115)\n    tag_116:\n      dup3\n      add\n      swap2\n      swap1\n      0x00\n      mstore\n      keccak256(0x00, 0x20)\n      swap1\n    tag_117:\n      dup2\n      sload\n      dup2\n      mstore\n      swap1\n      0x01\n      add\n      swap1\n      0x20\n      add\n      dup1\n      dup4\n      gt\n      tag_117\n      jumpi\n      dup3\n      swap1\n      sub\n      0x1f\n      and\n      dup3\n      add\n      swap2\n    tag_115:\n      pop\n      pop\n      pop\n      pop\n      pop\n      swap1\n      dup1\n      0x01\n      add\n      0x00\n      swap1\n      sload\n      swap1\n      0x0100\n      exp\n      swap1\n      div\n      0xffffffffffffffffffffffffffffffffffffffff\n      and\n      swap1\n      dup1\n      0x02\n      add\n      sload\n      swap1\n      pop\n      dup4\n      jump\t// out\n        /* \"auth.sol\":3798:3947  function u256ToBytes(uint256 x) public pure returns (bytes memory b) {... */\n    tag_32:\n        /* \"auth.sol\":3851:3865  bytes memory b */\n      0x60\n        /* \"auth.sol\":3892:3894  32 */\n      0x20\n        /* \"auth.sol\":3882:3895  new bytes(32) */\n      0xffffffffffffffff\n      dup2\n      gt\n      iszero\n      tag_119\n      jumpi\n      tag_120\n      tag_86\n      jump\t// in\n    tag_120:\n    tag_119:\n      mload(0x40)\n      swap1\n      dup1\n      dup3\n      mstore\n      dup1\n      0x1f\n      add\n      not(0x1f)\n      and\n      0x20\n      add\n      dup3\n      add\n      0x40\n      mstore\n      dup1\n      iszero\n      tag_121\n      jumpi\n      dup2\n      0x20\n      add\n      0x01\n      dup3\n      mul\n      dup1\n      calldatasize\n      dup4\n      calldatacopy\n      dup1\n      dup3\n      add\n      swap2\n      pop\n      pop\n      swap1\n      pop\n    tag_121:\n      pop\n        /* \"auth.sol\":3878:3895  b = new bytes(32) */\n      swap1\n      pop\n        /* \"auth.sol\":3936:3937  x */\n      dup2\n        /* \"auth.sol\":3931:3933  32 */\n      0x20\n        /* \"auth.sol\":3928:3929  b */\n      dup3\n        /* \"auth.sol\":3924:3934  add(b, 32) */\n      add\n        /* \"auth.sol\":3917:3938  mstore(add(b, 32), x) */\n      mstore\n        /* \"auth.sol\":3798:3947  function u256ToBytes(uint256 x) public pure returns (bytes memory b) {... */\n      swap2\n      swap1\n      pop\n      jump\t// out\n        /* \"auth.sol\":1847:2756  function GetAuthJson(uint offset, uint limit) public view returns(bytes memory) {... */\n    tag_38:\n        /* \"auth.sol\":1913:1925  bytes memory */\n      0x60\n        /* \"auth.sol\":1938:1962  bytes[] memory all_bytes */\n      0x00\n        /* \"auth.sol\":1985:1986  8 */\n      0x08\n        /* \"auth.sol\":1977:1982  limit */\n      dup4\n        /* \"auth.sol\":1977:1986  limit + 8 */\n      tag_123\n      swap2\n      swap1\n      tag_109\n      jump\t// in\n    tag_123:\n        /* \"auth.sol\":1965:1987  new bytes[](limit + 8) */\n      0xffffffffffffffff\n      dup2\n      gt\n      iszero\n      tag_124\n      jumpi\n      tag_125\n      tag_86\n      jump\t// in\n    tag_125:\n    tag_124:\n      mload(0x40)\n      swap1\n      dup1\n      dup3\n      mstore\n      dup1\n      0x20\n      mul\n      0x20\n      add\n      dup3\n      add\n      0x40\n      mstore\n      dup1\n      iszero\n      tag_126\n      jumpi\n      dup2\n      0x20\n      add\n    tag_127:\n      0x60\n      dup2\n      mstore\n      0x20\n      add\n      swap1\n      0x01\n      swap1\n      sub\n      swap1\n      dup2\n      tag_127\n      jumpi\n      swap1\n      pop\n    tag_126:\n      pop\n        /* \"auth.sol\":1938:1987  bytes[] memory all_bytes = new bytes[](limit + 8) */\n      swap1\n      pop\n        /* \"auth.sol\":1998:2004  uint l */\n      0x00\n        /* \"auth.sol\":2019:2047  all_bytes[l++] = '{\"data:\"[' */\n      mload(0x40)\n      dup1\n      0x40\n      add\n      0x40\n      mstore\n      dup1\n      0x09\n      dup2\n      mstore\n      0x20\n      add\n      0x7b22646174613a225b0000000000000000000000000000000000000000000000\n      dup2\n      mstore\n      pop\n        /* \"auth.sol\":2019:2028  all_bytes */\n      dup3\n        /* \"auth.sol\":2029:2032  l++ */\n      dup3\n      dup1\n      tag_128\n      swap1\n      tag_129\n      jump\t// in\n    tag_128:\n      swap4\n      pop\n        /* \"auth.sol\":2019:2033  all_bytes[l++] */\n      dup2\n      mload\n      dup2\n      lt\n      tag_130\n      jumpi\n      tag_131\n      tag_93\n      jump\t// in\n    tag_131:\n    tag_130:\n      0x20\n      mul\n      0x20\n      add\n      add\n        /* \"auth.sol\":2019:2047  all_bytes[l++] = '{\"data:\"[' */\n      dup2\n      swap1\n      mstore\n      pop\n        /* \"auth.sol\":2058:2074  uint arrayLength */\n      0x00\n        /* \"auth.sol\":2077:2083  authId */\n      dup1\n      sload\n        /* \"auth.sol\":2058:2083  uint arrayLength = authId */\n      swap1\n      pop\n        /* \"auth.sol\":2094:2105  uint is_end */\n      0x00\n        /* \"auth.sol\":2141:2152  arrayLength */\n      dup2\n        /* \"auth.sol\":2132:2138  offset */\n      dup8\n        /* \"auth.sol\":2124:2129  limit */\n      dup8\n        /* \"auth.sol\":2124:2138  limit + offset */\n      tag_132\n      swap2\n      swap1\n      tag_109\n      jump\t// in\n    tag_132:\n        /* \"auth.sol\":2124:2152  limit + offset > arrayLength */\n      gt\n        /* \"auth.sol\":2120:2234  if (limit + offset > arrayLength) {... */\n      iszero\n      tag_133\n      jumpi\n        /* \"auth.sol\":2191:2197  offset */\n      dup7\n        /* \"auth.sol\":2177:2188  arrayLength */\n      dup3\n        /* \"auth.sol\":2177:2197  arrayLength - offset */\n      tag_134\n      swap2\n      swap1\n      tag_135\n      jump\t// in\n    tag_134:\n        /* \"auth.sol\":2169:2197  limit = arrayLength - offset */\n      swap6\n      pop\n        /* \"auth.sol\":2221:2222  1 */\n      0x01\n        /* \"auth.sol\":2212:2222  is_end = 1 */\n      swap1\n      pop\n        /* \"auth.sol\":2120:2234  if (limit + offset > arrayLength) {... */\n    tag_133:\n        /* \"auth.sol\":2249:2255  uint i */\n      0x00\n        /* \"auth.sol\":2258:2264  offset */\n      dup8\n        /* \"auth.sol\":2249:2264  uint i = offset */\n      swap1\n      pop\n        /* \"auth.sol\":2244:2412  for (uint i = offset; i < limit + offset; i++) {... */\n    tag_136:\n        /* \"auth.sol\":2278:2284  offset */\n      dup8\n        /* \"auth.sol\":2270:2275  limit */\n      dup8\n        /* \"auth.sol\":2270:2284  limit + offset */\n      tag_139\n      swap2\n      swap1\n      tag_109\n      jump\t// in\n    tag_139:\n        /* \"auth.sol\":2266:2267  i */\n      dup2\n        /* \"auth.sol\":2266:2284  i < limit + offset */\n      lt\n        /* \"auth.sol\":2244:2412  for (uint i = offset; i < limit + offset; i++) {... */\n      iszero\n      tag_137\n      jumpi\n        /* \"auth.sol\":2325:2382  GetItemJson(authorizations[i], (i == limit + offset - 1)) */\n      tag_140\n        /* \"auth.sol\":2337:2351  authorizations */\n      0x02\n        /* \"auth.sol\":2337:2354  authorizations[i] */\n      0x00\n        /* \"auth.sol\":2352:2353  i */\n      dup4\n        /* \"auth.sol\":2337:2354  authorizations[i] */\n      dup2\n      mstore\n      0x20\n      add\n      swap1\n      dup2\n      mstore\n      0x20\n      add\n      0x00\n      keccak256\n        /* \"auth.sol\":2325:2382  GetItemJson(authorizations[i], (i == limit + offset - 1)) */\n      mload(0x40)\n      dup1\n      0x60\n      add\n      0x40\n      mstore\n      swap1\n      dup2\n      0x00\n      dup3\n      add\n      dup1\n      sload\n      tag_141\n      swap1\n      tag_113\n      jump\t// in\n    tag_141:\n      dup1\n      0x1f\n      add\n      0x20\n      dup1\n      swap2\n      div\n      mul\n      0x20\n      add\n      mload(0x40)\n      swap1\n      dup2\n      add\n      0x40\n      mstore\n      dup1\n      swap3\n      swap2\n      swap1\n      dup2\n      dup2\n      mstore\n      0x20\n      add\n      dup3\n      dup1\n      sload\n      tag_142\n      swap1\n      tag_113\n      jump\t// in\n    tag_142:\n      dup1\n      iszero\n      tag_143\n      jumpi\n      dup1\n      0x1f\n      lt\n      tag_144\n      jumpi\n      0x0100\n      dup1\n      dup4\n      sload\n      div\n      mul\n      dup4\n      mstore\n      swap2\n      0x20\n      add\n      swap2\n      jump(tag_143)\n    tag_144:\n      dup3\n      add\n      swap2\n      swap1\n      0x00\n      mstore\n      keccak256(0x00, 0x20)\n      swap1\n    tag_145:\n      dup2\n      sload\n      dup2\n      mstore\n      swap1\n      0x01\n      add\n      swap1\n      0x20\n      add\n      dup1\n      dup4\n      gt\n      tag_145\n      jumpi\n      dup3\n      swap1\n      sub\n      0x1f\n      and\n      dup3\n      add\n      swap2\n    tag_143:\n      pop\n      pop\n      pop\n      pop\n      pop\n      dup2\n      mstore\n      0x20\n      add\n      0x01\n      dup3\n      add\n      0x00\n      swap1\n      sload\n      swap1\n      0x0100\n      exp\n      swap1\n      div\n      0xffffffffffffffffffffffffffffffffffffffff\n      and\n      0xffffffffffffffffffffffffffffffffffffffff\n      and\n      0xffffffffffffffffffffffffffffffffffffffff\n      and\n      dup2\n      mstore\n      0x20\n      add\n      0x02\n      dup3\n      add\n      sload\n      dup2\n      mstore\n      pop\n      pop\n        /* \"auth.sol\":2379:2380  1 */\n      0x01\n        /* \"auth.sol\":2370:2376  offset */\n      dup11\n        /* \"auth.sol\":2362:2367  limit */\n      dup11\n        /* \"auth.sol\":2362:2376  limit + offset */\n      tag_146\n      swap2\n      swap1\n      tag_109\n      jump\t// in\n    tag_146:\n        /* \"auth.sol\":2362:2380  limit + offset - 1 */\n      tag_147\n      swap2\n      swap1\n      tag_135\n      jump\t// in\n    tag_147:\n        /* \"auth.sol\":2357:2358  i */\n      dup4\n        /* \"auth.sol\":2357:2380  i == limit + offset - 1 */\n      eq\n        /* \"auth.sol\":2325:2336  GetItemJson */\n      tag_72\n        /* \"auth.sol\":2325:2382  GetItemJson(authorizations[i], (i == limit + offset - 1)) */\n      jump\t// in\n    tag_140:\n        /* \"auth.sol\":2306:2315  all_bytes */\n      dup6\n        /* \"auth.sol\":2320:2321  1 */\n      0x01\n        /* \"auth.sol\":2316:2317  i */\n      dup4\n        /* \"auth.sol\":2316:2321  i + 1 */\n      tag_148\n      swap2\n      swap1\n      tag_109\n      jump\t// in\n    tag_148:\n        /* \"auth.sol\":2306:2322  all_bytes[i + 1] */\n      dup2\n      mload\n      dup2\n      lt\n      tag_149\n      jumpi\n      tag_150\n      tag_93\n      jump\t// in\n    tag_150:\n    tag_149:\n      0x20\n      mul\n      0x20\n      add\n      add\n        /* \"auth.sol\":2306:2382  all_bytes[i + 1] = GetItemJson(authorizations[i], (i == limit + offset - 1)) */\n      dup2\n      swap1\n      mstore\n      pop\n        /* \"auth.sol\":2397:2400  ++l */\n      dup4\n      tag_151\n      swap1\n      tag_129\n      jump\t// in\n    tag_151:\n      swap4\n      pop\n        /* \"auth.sol\":2286:2289  i++ */\n      dup1\n      dup1\n      0x01\n      add\n      swap2\n      pop\n      pop\n        /* \"auth.sol\":2244:2412  for (uint i = offset; i < limit + offset; i++) {... */\n      jump(tag_136)\n    tag_137:\n      pop\n        /* \"auth.sol\":2424:2453  all_bytes[l++] = '],\"isEnd:\"' */\n      mload(0x40)\n      dup1\n      0x40\n      add\n      0x40\n      mstore\n      dup1\n      0x0a\n      dup2\n      mstore\n      0x20\n      add\n      0x5d2c226973456e643a2200000000000000000000000000000000000000000000\n      dup2\n      mstore\n      pop\n        /* \"auth.sol\":2424:2433  all_bytes */\n      dup5\n        /* \"auth.sol\":2434:2437  l++ */\n      dup5\n      dup1\n      tag_152\n      swap1\n      tag_129\n      jump\t// in\n    tag_152:\n      swap6\n      pop\n        /* \"auth.sol\":2424:2438  all_bytes[l++] */\n      dup2\n      mload\n      dup2\n      lt\n      tag_153\n      jumpi\n      tag_154\n      tag_93\n      jump\t// in\n    tag_154:\n    tag_153:\n      0x20\n      mul\n      0x20\n      add\n      add\n        /* \"auth.sol\":2424:2453  all_bytes[l++] = '],\"isEnd:\"' */\n      dup2\n      swap1\n      mstore\n      pop\n        /* \"auth.sol\":2481:2500  u256ToBytes(is_end) */\n      tag_155\n        /* \"auth.sol\":2493:2499  is_end */\n      dup2\n        /* \"auth.sol\":2481:2492  u256ToBytes */\n      tag_32\n        /* \"auth.sol\":2481:2500  u256ToBytes(is_end) */\n      jump\t// in\n    tag_155:\n        /* \"auth.sol\":2464:2473  all_bytes */\n      dup5\n        /* \"auth.sol\":2474:2477  l++ */\n      dup5\n      dup1\n      tag_156\n      swap1\n      tag_129\n      jump\t// in\n    tag_156:\n      swap6\n      pop\n        /* \"auth.sol\":2464:2478  all_bytes[l++] */\n      dup2\n      mload\n      dup2\n      lt\n      tag_157\n      jumpi\n      tag_158\n      tag_93\n      jump\t// in\n    tag_158:\n    tag_157:\n      0x20\n      mul\n      0x20\n      add\n      add\n        /* \"auth.sol\":2464:2500  all_bytes[l++] = u256ToBytes(is_end) */\n      dup2\n      swap1\n      mstore\n      pop\n        /* \"auth.sol\":2511:2540  all_bytes[l++] = ',\"offset\":' */\n      mload(0x40)\n      dup1\n      0x40\n      add\n      0x40\n      mstore\n      dup1\n      0x0a\n      dup2\n      mstore\n      0x20\n      add\n      0x2c226f6666736574223a00000000000000000000000000000000000000000000\n      dup2\n      mstore\n      pop\n        /* \"auth.sol\":2511:2520  all_bytes */\n      dup5\n        /* \"auth.sol\":2521:2524  l++ */\n      dup5\n      dup1\n      tag_159\n      swap1\n      tag_129\n      jump\t// in\n    tag_159:\n      swap6\n      pop\n        /* \"auth.sol\":2511:2525  all_bytes[l++] */\n      dup2\n      mload\n      dup2\n      lt\n      tag_160\n      jumpi\n      tag_161\n      tag_93\n      jump\t// in\n    tag_161:\n    tag_160:\n      0x20\n      mul\n      0x20\n      add\n      add\n        /* \"auth.sol\":2511:2540  all_bytes[l++] = ',\"offset\":' */\n      dup2\n      swap1\n      mstore\n      pop\n        /* \"auth.sol\":2568:2587  u256ToBytes(offset) */\n      tag_162\n        /* \"auth.sol\":2580:2586  offset */\n      dup8\n        /* \"auth.sol\":2568:2579  u256ToBytes */\n      tag_32\n        /* \"auth.sol\":2568:2587  u256ToBytes(offset) */\n      jump\t// in\n    tag_162:\n        /* \"auth.sol\":2551:2560  all_bytes */\n      dup5\n        /* \"auth.sol\":2561:2564  l++ */\n      dup5\n      dup1\n      tag_163\n      swap1\n      tag_129\n      jump\t// in\n    tag_163:\n      swap6\n      pop\n        /* \"auth.sol\":2551:2565  all_bytes[l++] */\n      dup2\n      mload\n      dup2\n      lt\n      tag_164\n      jumpi\n      tag_165\n      tag_93\n      jump\t// in\n    tag_165:\n    tag_164:\n      0x20\n      mul\n      0x20\n      add\n      add\n        /* \"auth.sol\":2551:2587  all_bytes[l++] = u256ToBytes(offset) */\n      dup2\n      swap1\n      mstore\n      pop\n        /* \"auth.sol\":2598:2626  all_bytes[l++] = ',\"limit\":' */\n      mload(0x40)\n      dup1\n      0x40\n      add\n      0x40\n      mstore\n      dup1\n      0x09\n      dup2\n      mstore\n      0x20\n      add\n      0x2c226c696d6974223a0000000000000000000000000000000000000000000000\n      dup2\n      mstore\n      pop\n        /* \"auth.sol\":2598:2607  all_bytes */\n      dup5\n        /* \"auth.sol\":2608:2611  l++ */\n      dup5\n      dup1\n      tag_166\n      swap1\n      tag_129\n      jump\t// in\n    tag_166:\n      swap6\n      pop\n        /* \"auth.sol\":2598:2612  all_bytes[l++] */\n      dup2\n      mload\n      dup2\n      lt\n      tag_167\n      jumpi\n      tag_168\n      tag_93\n      jump\t// in\n    tag_168:\n    tag_167:\n      0x20\n      mul\n      0x20\n      add\n      add\n        /* \"auth.sol\":2598:2626  all_bytes[l++] = ',\"limit\":' */\n      dup2\n      swap1\n      mstore\n      pop\n        /* \"auth.sol\":2654:2672  u256ToBytes(limit) */\n      tag_169\n        /* \"auth.sol\":2666:2671  limit */\n      dup7\n        /* \"auth.sol\":2654:2665  u256ToBytes */\n      tag_32\n        /* \"auth.sol\":2654:2672  u256ToBytes(limit) */\n      jump\t// in\n    tag_169:\n        /* \"auth.sol\":2637:2646  all_bytes */\n      dup5\n        /* \"auth.sol\":2647:2650  l++ */\n      dup5\n      dup1\n      tag_170\n      swap1\n      tag_129\n      jump\t// in\n    tag_170:\n      swap6\n      pop\n        /* \"auth.sol\":2637:2651  all_bytes[l++] */\n      dup2\n      mload\n      dup2\n      lt\n      tag_171\n      jumpi\n      tag_172\n      tag_93\n      jump\t// in\n    tag_172:\n    tag_171:\n      0x20\n      mul\n      0x20\n      add\n      add\n        /* \"auth.sol\":2637:2672  all_bytes[l++] = u256ToBytes(limit) */\n      dup2\n      swap1\n      mstore\n      pop\n        /* \"auth.sol\":2683:2703  all_bytes[l++] = '}' */\n      mload(0x40)\n      dup1\n      0x40\n      add\n      0x40\n      mstore\n      dup1\n      0x01\n      dup2\n      mstore\n      0x20\n      add\n      0x7d00000000000000000000000000000000000000000000000000000000000000\n      dup2\n      mstore\n      pop\n        /* \"auth.sol\":2683:2692  all_bytes */\n      dup5\n        /* \"auth.sol\":2693:2696  l++ */\n      dup5\n      dup1\n      tag_173\n      swap1\n      tag_129\n      jump\t// in\n    tag_173:\n      swap6\n      pop\n        /* \"auth.sol\":2683:2697  all_bytes[l++] */\n      dup2\n      mload\n      dup2\n      lt\n      tag_174\n      jumpi\n      tag_175\n      tag_93\n      jump\t// in\n    tag_175:\n    tag_174:\n      0x20\n      mul\n      0x20\n      add\n      add\n        /* \"auth.sol\":2683:2703  all_bytes[l++] = '}' */\n      dup2\n      swap1\n      mstore\n      pop\n        /* \"auth.sol\":2723:2748  bytesConcat(all_bytes, l) */\n      tag_176\n        /* \"auth.sol\":2735:2744  all_bytes */\n      dup5\n        /* \"auth.sol\":2746:2747  l */\n      dup5\n        /* \"auth.sol\":2723:2734  bytesConcat */\n      tag_50\n        /* \"auth.sol\":2723:2748  bytesConcat(all_bytes, l) */\n      jump\t// in\n    tag_176:\n        /* \"auth.sol\":2716:2748  return bytesConcat(all_bytes, l) */\n      swap5\n      pop\n      pop\n      pop\n      pop\n      pop\n        /* \"auth.sol\":1847:2756  function GetAuthJson(uint offset, uint limit) public view returns(bytes memory) {... */\n      swap3\n      swap2\n      pop\n      pop\n      jump\t// out\n        /* \"auth.sol\":3682:3790  function toBytes(address a) public pure returns (bytes memory) {... */\n    tag_44:\n        /* \"auth.sol\":3731:3743  bytes memory */\n      0x60\n        /* \"auth.sol\":3780:3781  a */\n      dup2\n        /* \"auth.sol\":3763:3782  abi.encodePacked(a) */\n      add(0x20, mload(0x40))\n      tag_178\n      swap2\n      swap1\n      tag_179\n      jump\t// in\n    tag_178:\n      mload(0x40)\n      0x20\n      dup2\n      dup4\n      sub\n      sub\n      dup2\n      mstore\n      swap1\n      0x40\n      mstore\n        /* \"auth.sol\":3756:3782  return abi.encodePacked(a) */\n      swap1\n      pop\n        /* \"auth.sol\":3682:3790  function toBytes(address a) public pure returns (bytes memory) {... */\n      swap2\n      swap1\n      pop\n      jump\t// out\n        /* \"auth.sol\":2764:3230  function bytesConcat(bytes[] memory arr, uint count) public pure returns (bytes memory){... */\n    tag_50:\n        /* \"auth.sol\":2838:2850  bytes memory */\n      0x60\n        /* \"auth.sol\":2862:2870  uint len */\n      0x00\n        /* \"auth.sol\":2890:2896  uint i */\n      dup1\n        /* \"auth.sol\":2885:2965  for (uint i = 0; i < count; i++) {... */\n    tag_181:\n        /* \"auth.sol\":2906:2911  count */\n      dup4\n        /* \"auth.sol\":2902:2903  i */\n      dup2\n        /* \"auth.sol\":2902:2911  i < count */\n      lt\n        /* \"auth.sol\":2885:2965  for (uint i = 0; i < count; i++) {... */\n      iszero\n      tag_182\n      jumpi\n        /* \"auth.sol\":2940:2943  arr */\n      dup5\n        /* \"auth.sol\":2944:2945  i */\n      dup2\n        /* \"auth.sol\":2940:2946  arr[i] */\n      dup2\n      mload\n      dup2\n      lt\n      tag_184\n      jumpi\n      tag_185\n      tag_93\n      jump\t// in\n    tag_185:\n    tag_184:\n      0x20\n      mul\n      0x20\n      add\n      add\n      mload\n        /* \"auth.sol\":2940:2953  arr[i].length */\n      mload\n        /* \"auth.sol\":2933:2953  len += arr[i].length */\n      dup3\n      tag_186\n      swap2\n      swap1\n      tag_109\n      jump\t// in\n    tag_186:\n      swap2\n      pop\n        /* \"auth.sol\":2913:2916  i++ */\n      dup1\n      dup1\n      0x01\n      add\n      swap2\n      pop\n      pop\n        /* \"auth.sol\":2885:2965  for (uint i = 0; i < count; i++) {... */\n      jump(tag_181)\n    tag_182:\n      pop\n        /* \"auth.sol\":2977:2994  bytes memory bret */\n      0x00\n        /* \"auth.sol\":3007:3010  len */\n      dup2\n        /* \"auth.sol\":2997:3011  new bytes(len) */\n      0xffffffffffffffff\n      dup2\n      gt\n      iszero\n      tag_187\n      jumpi\n      tag_188\n      tag_86\n      jump\t// in\n    tag_188:\n    tag_187:\n      mload(0x40)\n      swap1\n      dup1\n      dup3\n      mstore\n      dup1\n      0x1f\n      add\n      not(0x1f)\n      and\n      0x20\n      add\n      dup3\n      add\n      0x40\n      mstore\n      dup1\n      iszero\n      tag_189\n      jumpi\n      dup2\n      0x20\n      add\n      0x01\n      dup3\n      mul\n      dup1\n      calldatasize\n      dup4\n      calldatacopy\n      dup1\n      dup3\n      add\n      swap2\n      pop\n      pop\n      swap1\n      pop\n    tag_189:\n      pop\n        /* \"auth.sol\":2977:3011  bytes memory bret = new bytes(len) */\n      swap1\n      pop\n        /* \"auth.sol\":3022:3028  uint k */\n      0x00\n        /* \"auth.sol\":3048:3054  uint i */\n      dup1\n        /* \"auth.sol\":3043:3199  for (uint i = 0; i < count; i++) {... */\n    tag_190:\n        /* \"auth.sol\":3064:3069  count */\n      dup6\n        /* \"auth.sol\":3060:3061  i */\n      dup2\n        /* \"auth.sol\":3060:3069  i < count */\n      lt\n        /* \"auth.sol\":3043:3199  for (uint i = 0; i < count; i++) {... */\n      iszero\n      tag_191\n      jumpi\n        /* \"auth.sol\":3096:3102  uint j */\n      0x00\n        /* \"auth.sol\":3091:3188  for (uint j = 0; j < arr[i].length; j++) {... */\n    tag_193:\n        /* \"auth.sol\":3112:3115  arr */\n      dup8\n        /* \"auth.sol\":3116:3117  i */\n      dup3\n        /* \"auth.sol\":3112:3118  arr[i] */\n      dup2\n      mload\n      dup2\n      lt\n      tag_196\n      jumpi\n      tag_197\n      tag_93\n      jump\t// in\n    tag_197:\n    tag_196:\n      0x20\n      mul\n      0x20\n      add\n      add\n      mload\n        /* \"auth.sol\":3112:3125  arr[i].length */\n      mload\n        /* \"auth.sol\":3108:3109  j */\n      dup2\n        /* \"auth.sol\":3108:3125  j < arr[i].length */\n      lt\n        /* \"auth.sol\":3091:3188  for (uint j = 0; j < arr[i].length; j++) {... */\n      iszero\n      tag_194\n      jumpi\n        /* \"auth.sol\":3163:3166  arr */\n      dup8\n        /* \"auth.sol\":3167:3168  i */\n      dup3\n        /* \"auth.sol\":3163:3169  arr[i] */\n      dup2\n      mload\n      dup2\n      lt\n      tag_198\n      jumpi\n      tag_199\n      tag_93\n      jump\t// in\n    tag_199:\n    tag_198:\n      0x20\n      mul\n      0x20\n      add\n      add\n      mload\n        /* \"auth.sol\":3170:3171  j */\n      dup2\n        /* \"auth.sol\":3163:3172  arr[i][j] */\n      dup2\n      mload\n      dup2\n      lt\n      tag_200\n      jumpi\n      tag_201\n      tag_93\n      jump\t// in\n    tag_201:\n    tag_200:\n      0x20\n      add\n      add\n      mload\n      0xf8\n      shr\n      0xf8\n      shl\n        /* \"auth.sol\":3151:3155  bret */\n      dup5\n        /* \"auth.sol\":3156:3159  k++ */\n      dup5\n      dup1\n      tag_202\n      swap1\n      tag_129\n      jump\t// in\n    tag_202:\n      swap6\n      pop\n        /* \"auth.sol\":3151:3160  bret[k++] */\n      dup2\n      mload\n      dup2\n      lt\n      tag_203\n      jumpi\n      tag_204\n      tag_93\n      jump\t// in\n    tag_204:\n    tag_203:\n      0x20\n      add\n      add\n        /* \"auth.sol\":3151:3172  bret[k++] = arr[i][j] */\n      swap1\n      not(0xffffffffffffffffffffffffffffffffffffffffffffffffffffffffffffff)\n      and\n      swap1\n      dup2\n      0x00\n      byte\n      swap1\n      mstore8\n      pop\n        /* \"auth.sol\":3127:3130  j++ */\n      dup1\n      dup1\n      0x01\n      add\n      swap2\n      pop\n      pop\n        /* \"auth.sol\":3091:3188  for (uint j = 0; j < arr[i].length; j++) {... */\n      jump(tag_193)\n    tag_194:\n      pop\n        /* \"auth.sol\":3071:3074  i++ */\n      dup1\n      dup1\n      0x01\n      add\n      swap2\n      pop\n      pop\n        /* \"auth.sol\":3043:3199  for (uint i = 0; i < count; i++) {... */\n      jump(tag_190)\n    tag_191:\n      pop\n        /* \"auth.sol\":3218:3222  bret */\n      dup2\n        /* \"auth.sol\":3211:3222  return bret */\n      swap4\n      pop\n      pop\n      pop\n      pop\n        /* \"auth.sol\":2764:3230  function bytesConcat(bytes[] memory arr, uint count) public pure returns (bytes memory){... */\n      swap3\n      swap2\n      pop\n      pop\n      jump\t// out\n        /* \"auth.sol\":340:386  mapping(address => bool) public valid_managers */\n    tag_55:\n      mstore(0x20, 0x03)\n      dup1\n      0x00\n      mstore\n      keccak256(0x00, 0x40)\n      0x00\n      swap2\n      pop\n      sload\n      swap1\n      0x0100\n      exp\n      swap1\n      div\n      0xff\n      and\n      dup2\n      jump\t// out\n        /* \"auth.sol\":247:267  address public owner */\n    tag_60:\n      0x01\n      0x00\n      swap1\n      sload\n      swap1\n      0x0100\n      exp\n      swap1\n      div\n      0xffffffffffffffffffffffffffffffffffffffff\n      and\n      dup2\n      jump\t// out\n        /* \"auth.sol\":837:1089  function AddManager(address[] memory managers) public {... */\n    tag_67:\n        /* \"auth.sol\":919:929  msg.sender */\n      caller\n        /* \"auth.sol\":910:929  owner == msg.sender */\n      0xffffffffffffffffffffffffffffffffffffffff\n      and\n        /* \"auth.sol\":910:915  owner */\n      0x01\n      0x00\n      swap1\n      sload\n      swap1\n      0x0100\n      exp\n      swap1\n      div\n      0xffffffffffffffffffffffffffffffffffffffff\n      and\n        /* \"auth.sol\":910:929  owner == msg.sender */\n      0xffffffffffffffffffffffffffffffffffffffff\n      and\n      eq\n        /* \"auth.sol\":902:930  require(owner == msg.sender) */\n      tag_206\n      jumpi\n      0x00\n      dup1\n      revert\n    tag_206:\n        /* \"auth.sol\":941:957  uint arrayLength */\n      0x00\n        /* \"auth.sol\":960:968  managers */\n      dup2\n        /* \"auth.sol\":960:975  managers.length */\n      mload\n        /* \"auth.sol\":941:975  uint arrayLength = managers.length */\n      swap1\n      pop\n        /* \"auth.sol\":991:997  uint i */\n      0x00\n        /* \"auth.sol\":986:1082  for (uint i=0; i<arrayLength; i++) {... */\n    tag_207:\n        /* \"auth.sol\":1003:1014  arrayLength */\n      dup2\n        /* \"auth.sol\":1001:1002  i */\n      dup2\n        /* \"auth.sol\":1001:1014  i<arrayLength */\n      lt\n        /* \"auth.sol\":986:1082  for (uint i=0; i<arrayLength; i++) {... */\n      iszero\n      tag_208\n      jumpi\n        /* \"auth.sol\":1066:1070  true */\n      0x01\n        /* \"auth.sol\":1036:1050  valid_managers */\n      0x03\n        /* \"auth.sol\":1036:1063  valid_managers[managers[i]] */\n      0x00\n        /* \"auth.sol\":1051:1059  managers */\n      dup6\n        /* \"auth.sol\":1060:1061  i */\n      dup5\n        /* \"auth.sol\":1051:1062  managers[i] */\n      dup2\n      mload\n      dup2\n      lt\n      tag_210\n      jumpi\n      tag_211\n      tag_93\n      jump\t// in\n    tag_211:\n    tag_210:\n      0x20\n      mul\n      0x20\n      add\n      add\n      mload\n        /* \"auth.sol\":1036:1063  valid_managers[managers[i]] */\n      0xffffffffffffffffffffffffffffffffffffffff\n      and\n      0xffffffffffffffffffffffffffffffffffffffff\n      and\n      dup2\n      mstore\n      0x20\n      add\n      swap1\n      dup2\n      mstore\n      0x20\n      add\n      0x00\n      keccak256\n      0x00\n        /* \"auth.sol\":1036:1070  valid_managers[managers[i]] = true */\n      0x0100\n      exp\n      dup2\n      sload\n      dup2\n      0xff\n      mul\n      not\n      and\n      swap1\n      dup4\n      iszero\n      iszero\n      mul\n      or\n      swap1\n      sstore\n      pop\n        /* \"auth.sol\":1016:1019  i++ */\n      dup1\n      dup1\n      0x01\n      add\n      swap2\n      pop\n      pop\n        /* \"auth.sol\":986:1082  for (uint i=0; i<arrayLength; i++) {... */\n      jump(tag_207)\n    tag_208:\n      pop\n        /* \"auth.sol\":891:1089  {... */\n      pop\n        /* \"auth.sol\":837:1089  function AddManager(address[] memory managers) public {... */\n      pop\n      jump\t// out\n        /* \"auth.sol\":3955:4668  function GetItemJson(AuthorizationInfo memory item, bool last) public pure returns (bytes memory) {... */\n    tag_72:\n        /* \"auth.sol\":4039:4051  bytes memory */\n      0x60\n        /* \"auth.sol\":4064:4088  bytes[] memory all_bytes */\n      0x00\n        /* \"auth.sol\":4103:4106  100 */\n      0x64\n        /* \"auth.sol\":4091:4107  new bytes[](100) */\n      0xffffffffffffffff\n      dup2\n      gt\n      iszero\n      tag_213\n      jumpi\n      tag_214\n      tag_86\n      jump\t// in\n    tag_214:\n    tag_213:\n      mload(0x40)\n      swap1\n      dup1\n      dup3\n      mstore\n      dup1\n      0x20\n      mul\n      0x20\n      add\n      dup3\n      add\n      0x40\n      mstore\n      dup1\n      iszero\n      tag_215\n      jumpi\n      dup2\n      0x20\n      add\n    tag_216:\n      0x60\n      dup2\n      mstore\n      0x20\n      add\n      swap1\n      0x01\n      swap1\n      sub\n      swap1\n      dup2\n      tag_216\n      jumpi\n      swap1\n      pop\n    tag_215:\n      pop\n        /* \"auth.sol\":4064:4107  bytes[] memory all_bytes = new bytes[](100) */\n      swap1\n      pop\n        /* \"auth.sol\":4118:4133  uint filedCount */\n      0x00\n        /* \"auth.sol\":4148:4188  all_bytes[filedCount++] = '{\"authInfo\":' */\n      mload(0x40)\n      dup1\n      0x40\n      add\n      0x40\n      mstore\n      dup1\n      0x0c\n      dup2\n      mstore\n      0x20\n      add\n      0x7b2261757468496e666f223a0000000000000000000000000000000000000000\n      dup2\n      mstore\n      pop\n        /* \"auth.sol\":4148:4157  all_bytes */\n      dup3\n        /* \"auth.sol\":4158:4170  filedCount++ */\n      dup3\n      dup1\n      tag_217\n      swap1\n      tag_129\n      jump\t// in\n    tag_217:\n      swap4\n      pop\n        /* \"auth.sol\":4148:4171  all_bytes[filedCount++] */\n      dup2\n      mload\n      dup2\n      lt\n      tag_218\n      jumpi\n      tag_219\n      tag_93\n      jump\t// in\n    tag_219:\n    tag_218:\n      0x20\n      mul\n      0x20\n      add\n      add\n        /* \"auth.sol\":4148:4188  all_bytes[filedCount++] = '{\"authInfo\":' */\n      dup2\n      swap1\n      mstore\n      pop\n        /* \"auth.sol\":4225:4229  item */\n      dup5\n        /* \"auth.sol\":4225:4238  item.authInfo */\n      0x00\n      add\n      mload\n        /* \"auth.sol\":4199:4208  all_bytes */\n      dup3\n        /* \"auth.sol\":4209:4221  filedCount++ */\n      dup3\n      dup1\n      tag_220\n      swap1\n      tag_129\n      jump\t// in\n    tag_220:\n      swap4\n      pop\n        /* \"auth.sol\":4199:4222  all_bytes[filedCount++] */\n      dup2\n      mload\n      dup2\n      lt\n      tag_221\n      jumpi\n      tag_222\n      tag_93\n      jump\t// in\n    tag_222:\n    tag_221:\n      0x20\n      mul\n      0x20\n      add\n      add\n        /* \"auth.sol\":4199:4238  all_bytes[filedCount++] = item.authInfo */\n      dup2\n      swap1\n      mstore\n      pop\n        /* \"auth.sol\":4249:4288  all_bytes[filedCount++] = ',\"author\":\"' */\n      mload(0x40)\n      dup1\n      0x40\n      add\n      0x40\n      mstore\n      dup1\n      0x0b\n      dup2\n      mstore\n      0x20\n      add\n      0x2c22617574686f72223a22000000000000000000000000000000000000000000\n      dup2\n      mstore\n      pop\n        /* \"auth.sol\":4249:4258  all_bytes */\n      dup3\n        /* \"auth.sol\":4259:4271  filedCount++ */\n      dup3\n      dup1\n      tag_223\n      swap1\n      tag_129\n      jump\t// in\n    tag_223:\n      swap4\n      pop\n        /* \"auth.sol\":4249:4272  all_bytes[filedCount++] */\n      dup2\n      mload\n      dup2\n      lt\n      tag_224\n      jumpi\n      tag_225\n      tag_93\n      jump\t// in\n    tag_225:\n    tag_224:\n      0x20\n      mul\n      0x20\n      add\n      add\n        /* \"auth.sol\":4249:4288  all_bytes[filedCount++] = ',\"author\":\"' */\n      dup2\n      swap1\n      mstore\n      pop\n        /* \"auth.sol\":4325:4352  ToHex(toBytes(item.author)) */\n      tag_226\n        /* \"auth.sol\":4331:4351  toBytes(item.author) */\n      tag_227\n        /* \"auth.sol\":4339:4343  item */\n      dup7\n        /* \"auth.sol\":4339:4350  item.author */\n      0x20\n      add\n      mload\n        /* \"auth.sol\":4331:4338  toBytes */\n      tag_44\n        /* \"auth.sol\":4331:4351  toBytes(item.author) */\n      jump\t// in\n    tag_227:\n        /* \"auth.sol\":4325:4330  ToHex */\n      tag_19\n        /* \"auth.sol\":4325:4352  ToHex(toBytes(item.author)) */\n      jump\t// in\n    tag_226:\n        /* \"auth.sol\":4299:4308  all_bytes */\n      dup3\n        /* \"auth.sol\":4309:4321  filedCount++ */\n      dup3\n      dup1\n      tag_228\n      swap1\n      tag_129\n      jump\t// in\n    tag_228:\n      swap4\n      pop\n        /* \"auth.sol\":4299:4322  all_bytes[filedCount++] */\n      dup2\n      mload\n      dup2\n      lt\n      tag_229\n      jumpi\n      tag_230\n      tag_93\n      jump\t// in\n    tag_230:\n    tag_229:\n      0x20\n      mul\n      0x20\n      add\n      add\n        /* \"auth.sol\":4299:4352  all_bytes[filedCount++] = ToHex(toBytes(item.author)) */\n      dup2\n      swap1\n      mstore\n      pop\n        /* \"auth.sol\":4363:4399  all_bytes[filedCount++] = '\",\"id\":\"' */\n      mload(0x40)\n      dup1\n      0x40\n      add\n      0x40\n      mstore\n      dup1\n      0x08\n      dup2\n      mstore\n      0x20\n      add\n      0x222c226964223a22000000000000000000000000000000000000000000000000\n      dup2\n      mstore\n      pop\n        /* \"auth.sol\":4363:4372  all_bytes */\n      dup3\n        /* \"auth.sol\":4373:4385  filedCount++ */\n      dup3\n      dup1\n      tag_231\n      swap1\n      tag_129\n      jump\t// in\n    tag_231:\n      swap4\n      pop\n        /* \"auth.sol\":4363:4386  all_bytes[filedCount++] */\n      dup2\n      mload\n      dup2\n      lt\n      tag_232\n      jumpi\n      tag_233\n      tag_93\n      jump\t// in\n    tag_233:\n    tag_232:\n      0x20\n      mul\n      0x20\n      add\n      add\n        /* \"auth.sol\":4363:4399  all_bytes[filedCount++] = '\",\"id\":\"' */\n      dup2\n      swap1\n      mstore\n      pop\n        /* \"auth.sol\":4436:4467  ToHex(u256ToBytes(item.authId)) */\n      tag_234\n        /* \"auth.sol\":4442:4466  u256ToBytes(item.authId) */\n      tag_235\n        /* \"auth.sol\":4454:4458  item */\n      dup7\n        /* \"auth.sol\":4454:4465  item.authId */\n      0x40\n      add\n      mload\n        /* \"auth.sol\":4442:4453  u256ToBytes */\n      tag_32\n        /* \"auth.sol\":4442:4466  u256ToBytes(item.authId) */\n      jump\t// in\n    tag_235:\n        /* \"auth.sol\":4436:4441  ToHex */\n      tag_19\n        /* \"auth.sol\":4436:4467  ToHex(u256ToBytes(item.authId)) */\n      jump\t// in\n    tag_234:\n        /* \"auth.sol\":4410:4419  all_bytes */\n      dup3\n        /* \"auth.sol\":4420:4432  filedCount++ */\n      dup3\n      dup1\n      tag_236\n      swap1\n      tag_129\n      jump\t// in\n    tag_236:\n      swap4\n      pop\n        /* \"auth.sol\":4410:4433  all_bytes[filedCount++] */\n      dup2\n      mload\n      dup2\n      lt\n      tag_237\n      jumpi\n      tag_238\n      tag_93\n      jump\t// in\n    tag_238:\n    tag_237:\n      0x20\n      mul\n      0x20\n      add\n      add\n        /* \"auth.sol\":4410:4467  all_bytes[filedCount++] = ToHex(u256ToBytes(item.authId)) */\n      dup2\n      swap1\n      mstore\n      pop\n        /* \"auth.sol\":4482:4486  last */\n      dup4\n        /* \"auth.sol\":4478:4609  if (last) {... */\n      iszero\n      tag_239\n      jumpi\n        /* \"auth.sol\":4503:4533  all_bytes[filedCount++] = '\"}' */\n      mload(0x40)\n      dup1\n      0x40\n      add\n      0x40\n      mstore\n      dup1\n      0x02\n      dup2\n      mstore\n      0x20\n      add\n      0x227d000000000000000000000000000000000000000000000000000000000000\n      dup2\n      mstore\n      pop\n        /* \"auth.sol\":4503:4512  all_bytes */\n      dup3\n        /* \"auth.sol\":4513:4525  filedCount++ */\n      dup3\n      dup1\n      tag_240\n      swap1\n      tag_129\n      jump\t// in\n    tag_240:\n      swap4\n      pop\n        /* \"auth.sol\":4503:4526  all_bytes[filedCount++] */\n      dup2\n      mload\n      dup2\n      lt\n      tag_241\n      jumpi\n      tag_242\n      tag_93\n      jump\t// in\n    tag_242:\n    tag_241:\n      0x20\n      mul\n      0x20\n      add\n      add\n        /* \"auth.sol\":4503:4533  all_bytes[filedCount++] = '\"}' */\n      dup2\n      swap1\n      mstore\n      pop\n        /* \"auth.sol\":4478:4609  if (last) {... */\n      jump(tag_243)\n    tag_239:\n        /* \"auth.sol\":4566:4597  all_bytes[filedCount++] = '\"},' */\n      mload(0x40)\n      dup1\n      0x40\n      add\n      0x40\n      mstore\n      dup1\n      0x03\n      dup2\n      mstore\n      0x20\n      add\n      0x227d2c0000000000000000000000000000000000000000000000000000000000\n      dup2\n      mstore\n      pop\n        /* \"auth.sol\":4566:4575  all_bytes */\n      dup3\n        /* \"auth.sol\":4576:4588  filedCount++ */\n      dup3\n      dup1\n      tag_244\n      swap1\n      tag_129\n      jump\t// in\n    tag_244:\n      swap4\n      pop\n        /* \"auth.sol\":4566:4589  all_bytes[filedCount++] */\n      dup2\n      mload\n      dup2\n      lt\n      tag_245\n      jumpi\n      tag_246\n      tag_93\n      jump\t// in\n    tag_246:\n    tag_245:\n      0x20\n      mul\n      0x20\n      add\n      add\n        /* \"auth.sol\":4566:4597  all_bytes[filedCount++] = '\"},' */\n      dup2\n      swap1\n      mstore\n      pop\n        /* \"auth.sol\":4478:4609  if (last) {... */\n    tag_243:\n        /* \"auth.sol\":4626:4660  bytesConcat(all_bytes, filedCount) */\n      tag_247\n        /* \"auth.sol\":4638:4647  all_bytes */\n      dup3\n        /* \"auth.sol\":4649:4659  filedCount */\n      dup3\n        /* \"auth.sol\":4626:4637  bytesConcat */\n      tag_50\n        /* \"auth.sol\":4626:4660  bytesConcat(all_bytes, filedCount) */\n      jump\t// in\n    tag_247:\n        /* \"auth.sol\":4619:4660  return bytesConcat(all_bytes, filedCount) */\n      swap3\n      pop\n      pop\n      pop\n        /* \"auth.sol\":3955:4668  function GetItemJson(AuthorizationInfo memory item, bool last) public pure returns (bytes memory) {... */\n      swap3\n      swap2\n      pop\n      pop\n      jump\t// out\n        /* \"auth.sol\":1478:1812  function Authorization(bytes memory authInfo) public payable {... */\n    tag_76:\n        /* \"auth.sol\":1595:1609  valid_managers */\n      0x03\n        /* \"auth.sol\":1595:1621  valid_managers[msg.sender] */\n      0x00\n        /* \"auth.sol\":1610:1620  msg.sender */\n      caller\n        /* \"auth.sol\":1595:1621  valid_managers[msg.sender] */\n      0xffffffffffffffffffffffffffffffffffffffff\n      and\n      0xffffffffffffffffffffffffffffffffffffffff\n      and\n      dup2\n      mstore\n      0x20\n      add\n      swap1\n      dup2\n      mstore\n      0x20\n      add\n      0x00\n      keccak256\n      0x00\n      swap1\n      sload\n      swap1\n      0x0100\n      exp\n      swap1\n      div\n      0xff\n      and\n        /* \"auth.sol\":1587:1622  require(valid_managers[msg.sender]) */\n      tag_249\n      jumpi\n      0x00\n      dup1\n      revert\n    tag_249:\n        /* \"auth.sol\":1658:1783  AuthorizationInfo({... */\n      mload(0x40)\n      dup1\n      0x60\n      add\n      0x40\n      mstore\n      dup1\n        /* \"auth.sol\":1701:1709  authInfo */\n      dup3\n        /* \"auth.sol\":1658:1783  AuthorizationInfo({... */\n      dup2\n      mstore\n      0x20\n      add\n        /* \"auth.sol\":1732:1742  msg.sender */\n      caller\n        /* \"auth.sol\":1658:1783  AuthorizationInfo({... */\n      0xffffffffffffffffffffffffffffffffffffffff\n      and\n      dup2\n      mstore\n      0x20\n      add\n        /* \"auth.sol\":1765:1771  authId */\n      sload(0x00)\n        /* \"auth.sol\":1658:1783  AuthorizationInfo({... */\n      dup2\n      mstore\n      pop\n        /* \"auth.sol\":1633:1647  authorizations */\n      0x02\n        /* \"auth.sol\":1633:1655  authorizations[authId] */\n      0x00\n        /* \"auth.sol\":1648:1654  authId */\n      dup1\n      sload\n        /* \"auth.sol\":1633:1655  authorizations[authId] */\n      dup2\n      mstore\n      0x20\n      add\n      swap1\n      dup2\n      mstore\n      0x20\n      add\n      0x00\n      keccak256\n        /* \"auth.sol\":1633:1783  authorizations[authId] = AuthorizationInfo({... */\n      0x00\n      dup3\n      add\n      mload\n      dup2\n      0x00\n      add\n      swap1\n      dup2\n      tag_250\n      swap2\n      swap1\n      tag_251\n      jump\t// in\n    tag_250:\n      pop\n      0x20\n      dup3\n      add\n      mload\n      dup2\n      0x01\n      add\n      exp(0x0100, 0x00)\n      dup2\n      sload\n      dup2\n      0xffffffffffffffffffffffffffffffffffffffff\n      mul\n      not\n      and\n      swap1\n      dup4\n      0xffffffffffffffffffffffffffffffffffffffff\n      and\n      mul\n      or\n      swap1\n      sstore\n      pop\n      0x40\n      dup3\n      add\n      mload\n      dup2\n      0x02\n      add\n      sstore\n      swap1\n      pop\n      pop\n        /* \"auth.sol\":1796:1802  authId */\n      0x00\n      dup1\n        /* \"auth.sol\":1796:1804  authId++ */\n      dup2\n      sload\n      dup1\n      swap3\n      swap2\n      swap1\n      tag_252\n      swap1\n      tag_129\n      jump\t// in\n    tag_252:\n      swap2\n      swap1\n      pop\n      sstore\n      pop\n        /* \"auth.sol\":1478:1812  function Authorization(bytes memory authInfo) public payable {... */\n      pop\n      jump\t// out\n        /* \"auth.sol\":1127:1449  function RemoveManager(address[] memory managers) public {... */\n    tag_80:\n        /* \"auth.sol\":1212:1222  msg.sender */\n      caller\n        /* \"auth.sol\":1203:1222  owner == msg.sender */\n      0xffffffffffffffffffffffffffffffffffffffff\n      and\n        /* \"auth.sol\":1203:1208  owner */\n      0x01\n      0x00\n      swap1\n      sload\n      swap1\n      0x0100\n      exp\n      swap1\n      div\n      0xffffffffffffffffffffffffffffffffffffffff\n      and\n        /* \"auth.sol\":1203:1222  owner == msg.sender */\n      0xffffffffffffffffffffffffffffffffffffffff\n      and\n      eq\n        /* \"auth.sol\":1195:1223  require(owner == msg.sender) */\n      tag_254\n      jumpi\n      0x00\n      dup1\n      revert\n    tag_254:\n        /* \"auth.sol\":1234:1250  uint arrayLength */\n      0x00\n        /* \"auth.sol\":1253:1261  managers */\n      dup2\n        /* \"auth.sol\":1253:1268  managers.length */\n      mload\n        /* \"auth.sol\":1234:1268  uint arrayLength = managers.length */\n      swap1\n      pop\n        /* \"auth.sol\":1284:1290  uint i */\n      0x00\n        /* \"auth.sol\":1279:1442  for (uint i=0; i<arrayLength; i++) {... */\n    tag_255:\n        /* \"auth.sol\":1296:1307  arrayLength */\n      dup2\n        /* \"auth.sol\":1294:1295  i */\n      dup2\n        /* \"auth.sol\":1294:1307  i<arrayLength */\n      lt\n        /* \"auth.sol\":1279:1442  for (uint i=0; i<arrayLength; i++) {... */\n      iszero\n      tag_256\n      jumpi\n        /* \"auth.sol\":1333:1347  valid_managers */\n      0x03\n        /* \"auth.sol\":1333:1360  valid_managers[managers[i]] */\n      0x00\n        /* \"auth.sol\":1348:1356  managers */\n      dup5\n        /* \"auth.sol\":1357:1358  i */\n      dup4\n        /* \"auth.sol\":1348:1359  managers[i] */\n      dup2\n      mload\n      dup2\n      lt\n      tag_258\n      jumpi\n      tag_259\n      tag_93\n      jump\t// in\n    tag_259:\n    tag_258:\n      0x20\n      mul\n      0x20\n      add\n      add\n      mload\n        /* \"auth.sol\":1333:1360  valid_managers[managers[i]] */\n      0xffffffffffffffffffffffffffffffffffffffff\n      and\n      0xffffffffffffffffffffffffffffffffffffffff\n      and\n      dup2\n      mstore\n      0x20\n      add\n      swap1\n      dup2\n      mstore\n      0x20\n      add\n      0x00\n      keccak256\n      0x00\n      swap1\n      sload\n      swap1\n      0x0100\n      exp\n      swap1\n      div\n      0xff\n      and\n        /* \"auth.sol\":1329:1431  if (valid_managers[managers[i]]) {... */\n      iszero\n      tag_260\n      jumpi\n        /* \"auth.sol\":1388:1402  valid_managers */\n      0x03\n        /* \"auth.sol\":1388:1415  valid_managers[managers[i]] */\n      0x00\n        /* \"auth.sol\":1403:1411  managers */\n      dup5\n        /* \"auth.sol\":1412:1413  i */\n      dup4\n        /* \"auth.sol\":1403:1414  managers[i] */\n      dup2\n      mload\n      dup2\n      lt\n      tag_261\n      jumpi\n      tag_262\n      tag_93\n      jump\t// in\n    tag_262:\n    tag_261:\n      0x20\n      mul\n      0x20\n      add\n      add\n      mload\n        /* \"auth.sol\":1388:1415  valid_managers[managers[i]] */\n      0xffffffffffffffffffffffffffffffffffffffff\n      and\n      0xffffffffffffffffffffffffffffffffffffffff\n      and\n      dup2\n      mstore\n      0x20\n      add\n      swap1\n      dup2\n      mstore\n      0x20\n      add\n      0x00\n      keccak256\n      0x00\n        /* \"auth.sol\":1381:1415  delete valid_managers[managers[i]] */\n      0x0100\n      exp\n      dup2\n      sload\n      swap1\n      0xff\n      mul\n      not\n      and\n      swap1\n      sstore\n        /* \"auth.sol\":1329:1431  if (valid_managers[managers[i]]) {... */\n    tag_260:\n        /* \"auth.sol\":1309:1312  i++ */\n      dup1\n      dup1\n      0x01\n      add\n      swap2\n      pop\n      pop\n        /* \"auth.sol\":1279:1442  for (uint i=0; i<arrayLength; i++) {... */\n      jump(tag_255)\n    tag_256:\n      pop\n        /* \"auth.sol\":1184:1449  {... */\n      pop\n        /* \"auth.sol\":1127:1449  function RemoveManager(address[] memory managers) public {... */\n      pop\n      jump\t// out\n        /* \"#utility.yul\":7:82   */\n    tag_263:\n        /* \"#utility.yul\":40:46   */\n      0x00\n        /* \"#utility.yul\":73:75   */\n      0x40\n        /* \"#utility.yul\":67:76   */\n      mload\n        /* \"#utility.yul\":57:76   */\n      swap1\n      pop\n        /* \"#utility.yul\":7:82   */\n      swap1\n      jump\t// out\n        /* \"#utility.yul\":88:205   */\n    tag_264:\n        /* \"#utility.yul\":197:198   */\n      0x00\n        /* \"#utility.yul\":194:195   */\n      dup1\n        /* \"#utility.yul\":187:199   */\n      revert\n        /* \"#utility.yul\":211:328   */\n    tag_265:\n        /* \"#utility.yul\":320:321   */\n      0x00\n        /* \"#utility.yul\":317:318   */\n      dup1\n        /* \"#utility.yul\":310:322   */\n      revert\n        /* \"#utility.yul\":334:451   */\n    tag_266:\n        /* \"#utility.yul\":443:444   */\n      0x00\n        /* \"#utility.yul\":440:441   */\n      dup1\n        /* \"#utility.yul\":433:445   */\n      revert\n        /* \"#utility.yul\":457:574   */\n    tag_267:\n        /* \"#utility.yul\":566:567   */\n      0x00\n        /* \"#utility.yul\":563:564   */\n      dup1\n        /* \"#utility.yul\":556:568   */\n      revert\n        /* \"#utility.yul\":580:682   */\n    tag_268:\n        /* \"#utility.yul\":621:627   */\n      0x00\n        /* \"#utility.yul\":672:674   */\n      0x1f\n        /* \"#utility.yul\":668:675   */\n      not\n        /* \"#utility.yul\":663:665   */\n      0x1f\n        /* \"#utility.yul\":656:661   */\n      dup4\n        /* \"#utility.yul\":652:666   */\n      add\n        /* \"#utility.yul\":648:676   */\n      and\n        /* \"#utility.yul\":638:676   */\n      swap1\n      pop\n        /* \"#utility.yul\":580:682   */\n      swap2\n      swap1\n      pop\n      jump\t// out\n        /* \"#utility.yul\":688:868   */\n    tag_86:\n        /* \"#utility.yul\":736:813   */\n      0x4e487b7100000000000000000000000000000000000000000000000000000000\n        /* \"#utility.yul\":733:734   */\n      0x00\n        /* \"#utility.yul\":726:814   */\n      mstore\n        /* \"#utility.yul\":833:837   */\n      0x41\n        /* \"#utility.yul\":830:831   */\n      0x04\n        /* \"#utility.yul\":823:838   */\n      mstore\n        /* \"#utility.yul\":857:861   */\n      0x24\n        /* \"#utility.yul\":854:855   */\n      0x00\n        /* \"#utility.yul\":847:862   */\n      revert\n        /* \"#utility.yul\":874:1155   */\n    tag_269:\n        /* \"#utility.yul\":957:984   */\n      tag_333\n        /* \"#utility.yul\":979:983   */\n      dup3\n        /* \"#utility.yul\":957:984   */\n      tag_268\n      jump\t// in\n    tag_333:\n        /* \"#utility.yul\":949:955   */\n      dup2\n        /* \"#utility.yul\":945:985   */\n      add\n        /* \"#utility.yul\":1087:1093   */\n      dup2\n        /* \"#utility.yul\":1075:1085   */\n      dup2\n        /* \"#utility.yul\":1072:1094   */\n      lt\n        /* \"#utility.yul\":1051:1069   */\n      0xffffffffffffffff\n        /* \"#utility.yul\":1039:1049   */\n      dup3\n        /* \"#utility.yul\":1036:1070   */\n      gt\n        /* \"#utility.yul\":1033:1095   */\n      or\n        /* \"#utility.yul\":1030:1118   */\n      iszero\n      tag_334\n      jumpi\n        /* \"#utility.yul\":1098:1116   */\n      tag_335\n      tag_86\n      jump\t// in\n    tag_335:\n        /* \"#utility.yul\":1030:1118   */\n    tag_334:\n        /* \"#utility.yul\":1138:1148   */\n      dup1\n        /* \"#utility.yul\":1134:1136   */\n      0x40\n        /* \"#utility.yul\":1127:1149   */\n      mstore\n        /* \"#utility.yul\":917:1155   */\n      pop\n        /* \"#utility.yul\":874:1155   */\n      pop\n      pop\n      jump\t// out\n        /* \"#utility.yul\":1161:1290   */\n    tag_270:\n        /* \"#utility.yul\":1195:1201   */\n      0x00\n        /* \"#utility.yul\":1222:1242   */\n      tag_337\n      tag_263\n      jump\t// in\n    tag_337:\n        /* \"#utility.yul\":1212:1242   */\n      swap1\n      pop\n        /* \"#utility.yul\":1251:1284   */\n      tag_338\n        /* \"#utility.yul\":1279:1283   */\n      dup3\n        /* \"#utility.yul\":1271:1277   */\n      dup3\n        /* \"#utility.yul\":1251:1284   */\n      tag_269\n      jump\t// in\n    tag_338:\n        /* \"#utility.yul\":1161:1290   */\n      swap2\n      swap1\n      pop\n      jump\t// out\n        /* \"#utility.yul\":1296:1603   */\n    tag_271:\n        /* \"#utility.yul\":1357:1361   */\n      0x00\n        /* \"#utility.yul\":1447:1465   */\n      0xffffffffffffffff\n        /* \"#utility.yul\":1439:1445   */\n      dup3\n        /* \"#utility.yul\":1436:1466   */\n      gt\n        /* \"#utility.yul\":1433:1489   */\n      iszero\n      tag_340\n      jumpi\n        /* \"#utility.yul\":1469:1487   */\n      tag_341\n      tag_86\n      jump\t// in\n    tag_341:\n        /* \"#utility.yul\":1433:1489   */\n    tag_340:\n        /* \"#utility.yul\":1507:1536   */\n      tag_342\n        /* \"#utility.yul\":1529:1535   */\n      dup3\n        /* \"#utility.yul\":1507:1536   */\n      tag_268\n      jump\t// in\n    tag_342:\n        /* \"#utility.yul\":1499:1536   */\n      swap1\n      pop\n        /* \"#utility.yul\":1591:1595   */\n      0x20\n        /* \"#utility.yul\":1585:1589   */\n      dup2\n        /* \"#utility.yul\":1581:1596   */\n      add\n        /* \"#utility.yul\":1573:1596   */\n      swap1\n      pop\n        /* \"#utility.yul\":1296:1603   */\n      swap2\n      swap1\n      pop\n      jump\t// out\n        /* \"#utility.yul\":1609:1755   */\n    tag_272:\n        /* \"#utility.yul\":1706:1712   */\n      dup3\n        /* \"#utility.yul\":1701:1704   */\n      dup2\n        /* \"#utility.yul\":1696:1699   */\n      dup4\n        /* \"#utility.yul\":1683:1713   */\n      calldatacopy\n        /* \"#utility.yul\":1747:1748   */\n      0x00\n        /* \"#utility.yul\":1738:1744   */\n      dup4\n        /* \"#utility.yul\":1733:1736   */\n      dup4\n        /* \"#utility.yul\":1729:1745   */\n      add\n        /* \"#utility.yul\":1722:1749   */\n      mstore\n        /* \"#utility.yul\":1609:1755   */\n      pop\n      pop\n      pop\n      jump\t// out\n        /* \"#utility.yul\":1761:2184   */\n    tag_273:\n        /* \"#utility.yul\":1838:1843   */\n      0x00\n        /* \"#utility.yul\":1863:1928   */\n      tag_345\n        /* \"#utility.yul\":1879:1927   */\n      tag_346\n        /* \"#utility.yul\":1920:1926   */\n      dup5\n        /* \"#utility.yul\":1879:1927   */\n      tag_271\n      jump\t// in\n    tag_346:\n        /* \"#utility.yul\":1863:1928   */\n      tag_270\n      jump\t// in\n    tag_345:\n        /* \"#utility.yul\":1854:1928   */\n      swap1\n      pop\n        /* \"#utility.yul\":1951:1957   */\n      dup3\n        /* \"#utility.yul\":1944:1949   */\n      dup2\n        /* \"#utility.yul\":1937:1958   */\n      mstore\n        /* \"#utility.yul\":1989:1993   */\n      0x20\n        /* \"#utility.yul\":1982:1987   */\n      dup2\n        /* \"#utility.yul\":1978:1994   */\n      add\n        /* \"#utility.yul\":2027:2030   */\n      dup5\n        /* \"#utility.yul\":2018:2024   */\n      dup5\n        /* \"#utility.yul\":2013:2016   */\n      dup5\n        /* \"#utility.yul\":2009:2025   */\n      add\n        /* \"#utility.yul\":2006:2031   */\n      gt\n        /* \"#utility.yul\":2003:2115   */\n      iszero\n      tag_347\n      jumpi\n        /* \"#utility.yul\":2034:2113   */\n      tag_348\n      tag_267\n      jump\t// in\n    tag_348:\n        /* \"#utility.yul\":2003:2115   */\n    tag_347:\n        /* \"#utility.yul\":2124:2178   */\n      tag_349\n        /* \"#utility.yul\":2171:2177   */\n      dup5\n        /* \"#utility.yul\":2166:2169   */\n      dup3\n        /* \"#utility.yul\":2161:2164   */\n      dup6\n        /* \"#utility.yul\":2124:2178   */\n      tag_272\n      jump\t// in\n    tag_349:\n        /* \"#utility.yul\":1844:2184   */\n      pop\n        /* \"#utility.yul\":1761:2184   */\n      swap4\n      swap3\n      pop\n      pop\n      pop\n      jump\t// out\n        /* \"#utility.yul\":2203:2541   */\n    tag_274:\n        /* \"#utility.yul\":2258:2263   */\n      0x00\n        /* \"#utility.yul\":2307:2310   */\n      dup3\n        /* \"#utility.yul\":2300:2304   */\n      0x1f\n        /* \"#utility.yul\":2292:2298   */\n      dup4\n        /* \"#utility.yul\":2288:2305   */\n      add\n        /* \"#utility.yul\":2284:2311   */\n      slt\n        /* \"#utility.yul\":2274:2396   */\n      tag_351\n      jumpi\n        /* \"#utility.yul\":2315:2394   */\n      tag_352\n      tag_266\n      jump\t// in\n    tag_352:\n        /* \"#utility.yul\":2274:2396   */\n    tag_351:\n        /* \"#utility.yul\":2432:2438   */\n      dup2\n        /* \"#utility.yul\":2419:2439   */\n      calldataload\n        /* \"#utility.yul\":2457:2535   */\n      tag_353\n        /* \"#utility.yul\":2531:2534   */\n      dup5\n        /* \"#utility.yul\":2523:2529   */\n      dup3\n        /* \"#utility.yul\":2516:2520   */\n      0x20\n        /* \"#utility.yul\":2508:2514   */\n      dup7\n        /* \"#utility.yul\":2504:2521   */\n      add\n        /* \"#utility.yul\":2457:2535   */\n      tag_273\n      jump\t// in\n    tag_353:\n        /* \"#utility.yul\":2448:2535   */\n      swap2\n      pop\n        /* \"#utility.yul\":2264:2541   */\n      pop\n        /* \"#utility.yul\":2203:2541   */\n      swap3\n      swap2\n      pop\n      pop\n      jump\t// out\n        /* \"#utility.yul\":2547:3054   */\n    tag_18:\n        /* \"#utility.yul\":2615:2621   */\n      0x00\n        /* \"#utility.yul\":2664:2666   */\n      0x20\n        /* \"#utility.yul\":2652:2661   */\n      dup3\n        /* \"#utility.yul\":2643:2650   */\n      dup5\n        /* \"#utility.yul\":2639:2662   */\n      sub\n        /* \"#utility.yul\":2635:2667   */\n      slt\n        /* \"#utility.yul\":2632:2751   */\n      iszero\n      tag_355\n      jumpi\n        /* \"#utility.yul\":2670:2749   */\n      tag_356\n      tag_264\n      jump\t// in\n    tag_356:\n        /* \"#utility.yul\":2632:2751   */\n    tag_355:\n        /* \"#utility.yul\":2818:2819   */\n      0x00\n        /* \"#utility.yul\":2807:2816   */\n      dup3\n        /* \"#utility.yul\":2803:2820   */\n      add\n        /* \"#utility.yul\":2790:2821   */\n      calldataload\n        /* \"#utility.yul\":2848:2866   */\n      0xffffffffffffffff\n        /* \"#utility.yul\":2840:2846   */\n      dup2\n        /* \"#utility.yul\":2837:2867   */\n      gt\n        /* \"#utility.yul\":2834:2951   */\n      iszero\n      tag_357\n      jumpi\n        /* \"#utility.yul\":2870:2949   */\n      tag_358\n      tag_265\n      jump\t// in\n    tag_358:\n        /* \"#utility.yul\":2834:2951   */\n    tag_357:\n        /* \"#utility.yul\":2975:3037   */\n      tag_359\n        /* \"#utility.yul\":3029:3036   */\n      dup5\n        /* \"#utility.yul\":3020:3026   */\n      dup3\n        /* \"#utility.yul\":3009:3018   */\n      dup6\n        /* \"#utility.yul\":3005:3027   */\n      add\n        /* \"#utility.yul\":2975:3037   */\n      tag_274\n      jump\t// in\n    tag_359:\n        /* \"#utility.yul\":2965:3037   */\n      swap2\n      pop\n        /* \"#utility.yul\":2761:3047   */\n      pop\n        /* \"#utility.yul\":2547:3054   */\n      swap3\n      swap2\n      pop\n      pop\n      jump\t// out\n        /* \"#utility.yul\":3060:3158   */\n    tag_275:\n        /* \"#utility.yul\":3111:3117   */\n      0x00\n        /* \"#utility.yul\":3145:3150   */\n      dup2\n        /* \"#utility.yul\":3139:3151   */\n      mload\n        /* \"#utility.yul\":3129:3151   */\n      swap1\n      pop\n        /* \"#utility.yul\":3060:3158   */\n      swap2\n      swap1\n      pop\n      jump\t// out\n        /* \"#utility.yul\":3164:3332   */\n    tag_276:\n        /* \"#utility.yul\":3247:3258   */\n      0x00\n        /* \"#utility.yul\":3281:3287   */\n      dup3\n        /* \"#utility.yul\":3276:3279   */\n      dup3\n        /* \"#utility.yul\":3269:3288   */\n      mstore\n        /* \"#utility.yul\":3321:3325   */\n      0x20\n        /* \"#utility.yul\":3316:3319   */\n      dup3\n        /* \"#utility.yul\":3312:3326   */\n      add\n        /* \"#utility.yul\":3297:3326   */\n      swap1\n      pop\n        /* \"#utility.yul\":3164:3332   */\n      swap3\n      swap2\n      pop\n      pop\n      jump\t// out\n        /* \"#utility.yul\":3338:3584   */\n    tag_277:\n        /* \"#utility.yul\":3419:3420   */\n      0x00\n        /* \"#utility.yul\":3429:3542   */\n    tag_363:\n        /* \"#utility.yul\":3443:3449   */\n      dup4\n        /* \"#utility.yul\":3440:3441   */\n      dup2\n        /* \"#utility.yul\":3437:3450   */\n      lt\n        /* \"#utility.yul\":3429:3542   */\n      iszero\n      tag_365\n      jumpi\n        /* \"#utility.yul\":3528:3529   */\n      dup1\n        /* \"#utility.yul\":3523:3526   */\n      dup3\n        /* \"#utility.yul\":3519:3530   */\n      add\n        /* \"#utility.yul\":3513:3531   */\n      mload\n        /* \"#utility.yul\":3509:3510   */\n      dup2\n        /* \"#utility.yul\":3504:3507   */\n      dup5\n        /* \"#utility.yul\":3500:3511   */\n      add\n        /* \"#utility.yul\":3493:3532   */\n      mstore\n        /* \"#utility.yul\":3465:3467   */\n      0x20\n        /* \"#utility.yul\":3462:3463   */\n      dup2\n        /* \"#utility.yul\":3458:3468   */\n      add\n        /* \"#utility.yul\":3453:3468   */\n      swap1\n      pop\n        /* \"#utility.yul\":3429:3542   */\n      jump(tag_363)\n    tag_365:\n        /* \"#utility.yul\":3576:3577   */\n      0x00\n        /* \"#utility.yul\":3567:3573   */\n      dup5\n        /* \"#utility.yul\":3562:3565   */\n      dup5\n        /* \"#utility.yul\":3558:3574   */\n      add\n        /* \"#utility.yul\":3551:3578   */\n      mstore\n        /* \"#utility.yul\":3400:3584   */\n      pop\n        /* \"#utility.yul\":3338:3584   */\n      pop\n      pop\n      pop\n      jump\t// out\n        /* \"#utility.yul\":3590:3963   */\n    tag_278:\n        /* \"#utility.yul\":3676:3679   */\n      0x00\n        /* \"#utility.yul\":3704:3742   */\n      tag_367\n        /* \"#utility.yul\":3736:3741   */\n      dup3\n        /* \"#utility.yul\":3704:3742   */\n      tag_275\n      jump\t// in\n    tag_367:\n        /* \"#utility.yul\":3758:3828   */\n      tag_368\n        /* \"#utility.yul\":3821:3827   */\n      dup2\n        /* \"#utility.yul\":3816:3819   */\n      dup6\n        /* \"#utility.yul\":3758:3828   */\n      tag_276\n      jump\t// in\n    tag_368:\n        /* \"#utility.yul\":3751:3828   */\n      swap4\n      pop\n        /* \"#utility.yul\":3837:3902   */\n      tag_369\n        /* \"#utility.yul\":3895:3901   */\n      dup2\n        /* \"#utility.yul\":3890:3893   */\n      dup6\n        /* \"#utility.yul\":3883:3887   */\n      0x20\n        /* \"#utility.yul\":3876:3881   */\n      dup7\n        /* \"#utility.yul\":3872:3888   */\n      add\n        /* \"#utility.yul\":3837:3902   */\n      tag_277\n      jump\t// in\n    tag_369:\n        /* \"#utility.yul\":3927:3956   */\n      tag_370\n        /* \"#utility.yul\":3949:3955   */\n      dup2\n        /* \"#utility.yul\":3927:3956   */\n      tag_268\n      jump\t// in\n    tag_370:\n        /* \"#utility.yul\":3922:3925   */\n      dup5\n        /* \"#utility.yul\":3918:3957   */\n      add\n        /* \"#utility.yul\":3911:3957   */\n      swap2\n      pop\n        /* \"#utility.yul\":3680:3963   */\n      pop\n        /* \"#utility.yul\":3590:3963   */\n      swap3\n      swap2\n      pop\n      pop\n      jump\t// out\n        /* \"#utility.yul\":3969:4278   */\n    tag_21:\n        /* \"#utility.yul\":4080:4084   */\n      0x00\n        /* \"#utility.yul\":4118:4120   */\n      0x20\n        /* \"#utility.yul\":4107:4116   */\n      dup3\n        /* \"#utility.yul\":4103:4121   */\n      add\n        /* \"#utility.yul\":4095:4121   */\n      swap1\n      pop\n        /* \"#utility.yul\":4167:4176   */\n      dup2\n        /* \"#utility.yul\":4161:4165   */\n      dup2\n        /* \"#utility.yul\":4157:4177   */\n      sub\n        /* \"#utility.yul\":4153:4154   */\n      0x00\n        /* \"#utility.yul\":4142:4151   */\n      dup4\n        /* \"#utility.yul\":4138:4155   */\n      add\n        /* \"#utility.yul\":4131:4178   */\n      mstore\n        /* \"#utility.yul\":4195:4271   */\n      tag_372\n        /* \"#utility.yul\":4266:4270   */\n      dup2\n        /* \"#utility.yul\":4257:4263   */\n      dup5\n        /* \"#utility.yul\":4195:4271   */\n      tag_278\n      jump\t// in\n    tag_372:\n        /* \"#utility.yul\":4187:4271   */\n      swap1\n      pop\n        /* \"#utility.yul\":3969:4278   */\n      swap3\n      swap2\n      pop\n      pop\n      jump\t// out\n        /* \"#utility.yul\":4284:4361   */\n    tag_279:\n        /* \"#utility.yul\":4321:4328   */\n      0x00\n        /* \"#utility.yul\":4350:4355   */\n      dup2\n        /* \"#utility.yul\":4339:4355   */\n      swap1\n      pop\n        /* \"#utility.yul\":4284:4361   */\n      swap2\n      swap1\n      pop\n      jump\t// out\n        /* \"#utility.yul\":4367:4489   */\n    tag_280:\n        /* \"#utility.yul\":4440:4464   */\n      tag_375\n        /* \"#utility.yul\":4458:4463   */\n      dup2\n        /* \"#utility.yul\":4440:4464   */\n      tag_279\n      jump\t// in\n    tag_375:\n        /* \"#utility.yul\":4433:4438   */\n      dup2\n        /* \"#utility.yul\":4430:4465   */\n      eq\n        /* \"#utility.yul\":4420:4483   */\n      tag_376\n      jumpi\n        /* \"#utility.yul\":4479:4480   */\n      0x00\n        /* \"#utility.yul\":4476:4477   */\n      dup1\n        /* \"#utility.yul\":4469:4481   */\n      revert\n        /* \"#utility.yul\":4420:4483   */\n    tag_376:\n        /* \"#utility.yul\":4367:4489   */\n      pop\n      jump\t// out\n        /* \"#utility.yul\":4495:4634   */\n    tag_281:\n        /* \"#utility.yul\":4541:4546   */\n      0x00\n        /* \"#utility.yul\":4579:4585   */\n      dup2\n        /* \"#utility.yul\":4566:4586   */\n      calldataload\n        /* \"#utility.yul\":4557:4586   */\n      swap1\n      pop\n        /* \"#utility.yul\":4595:4628   */\n      tag_378\n        /* \"#utility.yul\":4622:4627   */\n      dup2\n        /* \"#utility.yul\":4595:4628   */\n      tag_280\n      jump\t// in\n    tag_378:\n        /* \"#utility.yul\":4495:4634   */\n      swap3\n      swap2\n      pop\n      pop\n      jump\t// out\n        /* \"#utility.yul\":4640:4969   */\n    tag_25:\n        /* \"#utility.yul\":4699:4705   */\n      0x00\n        /* \"#utility.yul\":4748:4750   */\n      0x20\n        /* \"#utility.yul\":4736:4745   */\n      dup3\n        /* \"#utility.yul\":4727:4734   */\n      dup5\n        /* \"#utility.yul\":4723:4746   */\n      sub\n        /* \"#utility.yul\":4719:4751   */\n      slt\n        /* \"#utility.yul\":4716:4835   */\n      iszero\n      tag_380\n      jumpi\n        /* \"#utility.yul\":4754:4833   */\n      tag_381\n      tag_264\n      jump\t// in\n    tag_381:\n        /* \"#utility.yul\":4716:4835   */\n    tag_380:\n        /* \"#utility.yul\":4874:4875   */\n      0x00\n        /* \"#utility.yul\":4899:4952   */\n      tag_382\n        /* \"#utility.yul\":4944:4951   */\n      dup5\n        /* \"#utility.yul\":4935:4941   */\n      dup3\n        /* \"#utility.yul\":4924:4933   */\n      dup6\n        /* \"#utility.yul\":4920:4942   */\n      add\n        /* \"#utility.yul\":4899:4952   */\n      tag_281\n      jump\t// in\n    tag_382:\n        /* \"#utility.yul\":4889:4952   */\n      swap2\n      pop\n        /* \"#utility.yul\":4845:4962   */\n      pop\n        /* \"#utility.yul\":4640:4969   */\n      swap3\n      swap2\n      pop\n      pop\n      jump\t// out\n        /* \"#utility.yul\":4975:5101   */\n    tag_282:\n        /* \"#utility.yul\":5012:5019   */\n      0x00\n        /* \"#utility.yul\":5052:5094   */\n      0xffffffffffffffffffffffffffffffffffffffff\n        /* \"#utility.yul\":5045:5050   */\n      dup3\n        /* \"#utility.yul\":5041:5095   */\n      and\n        /* \"#utility.yul\":5030:5095   */\n      swap1\n      pop\n        /* \"#utility.yul\":4975:5101   */\n      swap2\n      swap1\n      pop\n      jump\t// out\n        /* \"#utility.yul\":5107:5203   */\n    tag_283:\n        /* \"#utility.yul\":5144:5151   */\n      0x00\n        /* \"#utility.yul\":5173:5197   */\n      tag_385\n        /* \"#utility.yul\":5191:5196   */\n      dup3\n        /* \"#utility.yul\":5173:5197   */\n      tag_282\n      jump\t// in\n    tag_385:\n        /* \"#utility.yul\":5162:5197   */\n      swap1\n      pop\n        /* \"#utility.yul\":5107:5203   */\n      swap2\n      swap1\n      pop\n      jump\t// out\n        /* \"#utility.yul\":5209:5327   */\n    tag_284:\n        /* \"#utility.yul\":5296:5320   */\n      tag_387\n        /* \"#utility.yul\":5314:5319   */\n      dup2\n        /* \"#utility.yul\":5296:5320   */\n      tag_283\n      jump\t// in\n    tag_387:\n        /* \"#utility.yul\":5291:5294   */\n      dup3\n        /* \"#utility.yul\":5284:5321   */\n      mstore\n        /* \"#utility.yul\":5209:5327   */\n      pop\n      pop\n      jump\t// out\n        /* \"#utility.yul\":5333:5451   */\n    tag_285:\n        /* \"#utility.yul\":5420:5444   */\n      tag_389\n        /* \"#utility.yul\":5438:5443   */\n      dup2\n        /* \"#utility.yul\":5420:5444   */\n      tag_279\n      jump\t// in\n    tag_389:\n        /* \"#utility.yul\":5415:5418   */\n      dup3\n        /* \"#utility.yul\":5408:5445   */\n      mstore\n        /* \"#utility.yul\":5333:5451   */\n      pop\n      pop\n      jump\t// out\n        /* \"#utility.yul\":5457:5986   */\n    tag_28:\n        /* \"#utility.yul\":5624:5628   */\n      0x00\n        /* \"#utility.yul\":5662:5664   */\n      0x60\n        /* \"#utility.yul\":5651:5660   */\n      dup3\n        /* \"#utility.yul\":5647:5665   */\n      add\n        /* \"#utility.yul\":5639:5665   */\n      swap1\n      pop\n        /* \"#utility.yul\":5711:5720   */\n      dup2\n        /* \"#utility.yul\":5705:5709   */\n      dup2\n        /* \"#utility.yul\":5701:5721   */\n      sub\n        /* \"#utility.yul\":5697:5698   */\n      0x00\n        /* \"#utility.yul\":5686:5695   */\n      dup4\n        /* \"#utility.yul\":5682:5699   */\n      add\n        /* \"#utility.yul\":5675:5722   */\n      mstore\n        /* \"#utility.yul\":5739:5815   */\n      tag_391\n        /* \"#utility.yul\":5810:5814   */\n      dup2\n        /* \"#utility.yul\":5801:5807   */\n      dup7\n        /* \"#utility.yul\":5739:5815   */\n      tag_278\n      jump\t// in\n    tag_391:\n        /* \"#utility.yul\":5731:5815   */\n      swap1\n      pop\n        /* \"#utility.yul\":5825:5897   */\n      tag_392\n        /* \"#utility.yul\":5893:5895   */\n      0x20\n        /* \"#utility.yul\":5882:5891   */\n      dup4\n        /* \"#utility.yul\":5878:5896   */\n      add\n        /* \"#utility.yul\":5869:5875   */\n      dup6\n        /* \"#utility.yul\":5825:5897   */\n      tag_284\n      jump\t// in\n    tag_392:\n        /* \"#utility.yul\":5907:5979   */\n      tag_393\n        /* \"#utility.yul\":5975:5977   */\n      0x40\n        /* \"#utility.yul\":5964:5973   */\n      dup4\n        /* \"#utility.yul\":5960:5978   */\n      add\n        /* \"#utility.yul\":5951:5957   */\n      dup5\n        /* \"#utility.yul\":5907:5979   */\n      tag_285\n      jump\t// in\n    tag_393:\n        /* \"#utility.yul\":5457:5986   */\n      swap5\n      swap4\n      pop\n      pop\n      pop\n      pop\n      jump\t// out\n        /* \"#utility.yul\":5992:6466   */\n    tag_37:\n        /* \"#utility.yul\":6060:6066   */\n      0x00\n        /* \"#utility.yul\":6068:6074   */\n      dup1\n        /* \"#utility.yul\":6117:6119   */\n      0x40\n        /* \"#utility.yul\":6105:6114   */\n      dup4\n        /* \"#utility.yul\":6096:6103   */\n      dup6\n        /* \"#utility.yul\":6092:6115   */\n      sub\n        /* \"#utility.yul\":6088:6120   */\n      slt\n        /* \"#utility.yul\":6085:6204   */\n      iszero\n      tag_395\n      jumpi\n        /* \"#utility.yul\":6123:6202   */\n      tag_396\n      tag_264\n      jump\t// in\n    tag_396:\n        /* \"#utility.yul\":6085:6204   */\n    tag_395:\n        /* \"#utility.yul\":6243:6244   */\n      0x00\n        /* \"#utility.yul\":6268:6321   */\n      tag_397\n        /* \"#utility.yul\":6313:6320   */\n      dup6\n        /* \"#utility.yul\":6304:6310   */\n      dup3\n        /* \"#utility.yul\":6293:6302   */\n      dup7\n        /* \"#utility.yul\":6289:6311   */\n      add\n        /* \"#utility.yul\":6268:6321   */\n      tag_281\n      jump\t// in\n    tag_397:\n        /* \"#utility.yul\":6258:6321   */\n      swap3\n      pop\n        /* \"#utility.yul\":6214:6331   */\n      pop\n        /* \"#utility.yul\":6370:6372   */\n      0x20\n        /* \"#utility.yul\":6396:6449   */\n      tag_398\n        /* \"#utility.yul\":6441:6448   */\n      dup6\n        /* \"#utility.yul\":6432:6438   */\n      dup3\n        /* \"#utility.yul\":6421:6430   */\n      dup7\n        /* \"#utility.yul\":6417:6439   */\n      add\n        /* \"#utility.yul\":6396:6449   */\n      tag_281\n      jump\t// in\n    tag_398:\n        /* \"#utility.yul\":6386:6449   */\n      swap2\n      pop\n        /* \"#utility.yul\":6341:6459   */\n      pop\n        /* \"#utility.yul\":5992:6466   */\n      swap3\n      pop\n      swap3\n      swap1\n      pop\n      jump\t// out\n        /* \"#utility.yul\":6472:6594   */\n    tag_286:\n        /* \"#utility.yul\":6545:6569   */\n      tag_400\n        /* \"#utility.yul\":6563:6568   */\n      dup2\n        /* \"#utility.yul\":6545:6569   */\n      tag_283\n      jump\t// in\n    tag_400:\n        /* \"#utility.yul\":6538:6543   */\n      dup2\n        /* \"#utility.yul\":6535:6570   */\n      eq\n        /* \"#utility.yul\":6525:6588   */\n      tag_401\n      jumpi\n        /* \"#utility.yul\":6584:6585   */\n      0x00\n        /* \"#utility.yul\":6581:6582   */\n      dup1\n        /* \"#utility.yul\":6574:6586   */\n      revert\n        /* \"#utility.yul\":6525:6588   */\n    tag_401:\n        /* \"#utility.yul\":6472:6594   */\n      pop\n      jump\t// out\n        /* \"#utility.yul\":6600:6739   */\n    tag_287:\n        /* \"#utility.yul\":6646:6651   */\n      0x00\n        /* \"#utility.yul\":6684:6690   */\n      dup2\n        /* \"#utility.yul\":6671:6691   */\n      calldataload\n        /* \"#utility.yul\":6662:6691   */\n      swap1\n      pop\n        /* \"#utility.yul\":6700:6733   */\n      tag_403\n        /* \"#utility.yul\":6727:6732   */\n      dup2\n        /* \"#utility.yul\":6700:6733   */\n      tag_286\n      jump\t// in\n    tag_403:\n        /* \"#utility.yul\":6600:6739   */\n      swap3\n      swap2\n      pop\n      pop\n      jump\t// out\n        /* \"#utility.yul\":6745:7074   */\n    tag_43:\n        /* \"#utility.yul\":6804:6810   */\n      0x00\n        /* \"#utility.yul\":6853:6855   */\n      0x20\n        /* \"#utility.yul\":6841:6850   */\n      dup3\n        /* \"#utility.yul\":6832:6839   */\n      dup5\n        /* \"#utility.yul\":6828:6851   */\n      sub\n        /* \"#utility.yul\":6824:6856   */\n      slt\n        /* \"#utility.yul\":6821:6940   */\n      iszero\n      tag_405\n      jumpi\n        /* \"#utility.yul\":6859:6938   */\n      tag_406\n      tag_264\n      jump\t// in\n    tag_406:\n        /* \"#utility.yul\":6821:6940   */\n    tag_405:\n        /* \"#utility.yul\":6979:6980   */\n      0x00\n        /* \"#utility.yul\":7004:7057   */\n      tag_407\n        /* \"#utility.yul\":7049:7056   */\n      dup5\n        /* \"#utility.yul\":7040:7046   */\n      dup3\n        /* \"#utility.yul\":7029:7038   */\n      dup6\n        /* \"#utility.yul\":7025:7047   */\n      add\n        /* \"#utility.yul\":7004:7057   */\n      tag_287\n      jump\t// in\n    tag_407:\n        /* \"#utility.yul\":6994:7057   */\n      swap2\n      pop\n        /* \"#utility.yul\":6950:7067   */\n      pop\n        /* \"#utility.yul\":6745:7074   */\n      swap3\n      swap2\n      pop\n      pop\n      jump\t// out\n        /* \"#utility.yul\":7080:7400   */\n    tag_288:\n        /* \"#utility.yul\":7166:7170   */\n      0x00\n        /* \"#utility.yul\":7256:7274   */\n      0xffffffffffffffff\n        /* \"#utility.yul\":7248:7254   */\n      dup3\n        /* \"#utility.yul\":7245:7275   */\n      gt\n        /* \"#utility.yul\":7242:7298   */\n      iszero\n      tag_409\n      jumpi\n        /* \"#utility.yul\":7278:7296   */\n      tag_410\n      tag_86\n      jump\t// in\n    tag_410:\n        /* \"#utility.yul\":7242:7298   */\n    tag_409:\n        /* \"#utility.yul\":7328:7332   */\n      0x20\n        /* \"#utility.yul\":7320:7326   */\n      dup3\n        /* \"#utility.yul\":7316:7333   */\n      mul\n        /* \"#utility.yul\":7308:7333   */\n      swap1\n      pop\n        /* \"#utility.yul\":7388:7392   */\n      0x20\n        /* \"#utility.yul\":7382:7386   */\n      dup2\n        /* \"#utility.yul\":7378:7393   */\n      add\n        /* \"#utility.yul\":7370:7393   */\n      swap1\n      pop\n        /* \"#utility.yul\":7080:7400   */\n      swap2\n      swap1\n      pop\n      jump\t// out\n        /* \"#utility.yul\":7406:7523   */\n    tag_289:\n        /* \"#utility.yul\":7515:7516   */\n      0x00\n        /* \"#utility.yul\":7512:7513   */\n      dup1\n        /* \"#utility.yul\":7505:7517   */\n      revert\n        /* \"#utility.yul\":7544:8486   */\n    tag_290:\n        /* \"#utility.yul\":7649:7654   */\n      0x00\n        /* \"#utility.yul\":7674:7764   */\n      tag_413\n        /* \"#utility.yul\":7690:7763   */\n      tag_414\n        /* \"#utility.yul\":7756:7762   */\n      dup5\n        /* \"#utility.yul\":7690:7763   */\n      tag_288\n      jump\t// in\n    tag_414:\n        /* \"#utility.yul\":7674:7764   */\n      tag_270\n      jump\t// in\n    tag_413:\n        /* \"#utility.yul\":7665:7764   */\n      swap1\n      pop\n        /* \"#utility.yul\":7784:7789   */\n      dup1\n        /* \"#utility.yul\":7813:7819   */\n      dup4\n        /* \"#utility.yul\":7806:7811   */\n      dup3\n        /* \"#utility.yul\":7799:7820   */\n      mstore\n        /* \"#utility.yul\":7847:7851   */\n      0x20\n        /* \"#utility.yul\":7840:7845   */\n      dup3\n        /* \"#utility.yul\":7836:7852   */\n      add\n        /* \"#utility.yul\":7829:7852   */\n      swap1\n      pop\n        /* \"#utility.yul\":7900:7904   */\n      0x20\n        /* \"#utility.yul\":7892:7898   */\n      dup5\n        /* \"#utility.yul\":7888:7905   */\n      mul\n        /* \"#utility.yul\":7880:7886   */\n      dup4\n        /* \"#utility.yul\":7876:7906   */\n      add\n        /* \"#utility.yul\":7929:7932   */\n      dup6\n        /* \"#utility.yul\":7921:7927   */\n      dup2\n        /* \"#utility.yul\":7918:7933   */\n      gt\n        /* \"#utility.yul\":7915:8037   */\n      iszero\n      tag_415\n      jumpi\n        /* \"#utility.yul\":7948:8027   */\n      tag_416\n      tag_289\n      jump\t// in\n    tag_416:\n        /* \"#utility.yul\":7915:8037   */\n    tag_415:\n        /* \"#utility.yul\":8063:8069   */\n      dup4\n        /* \"#utility.yul\":8046:8480   */\n    tag_417:\n        /* \"#utility.yul\":8080:8086   */\n      dup2\n        /* \"#utility.yul\":8075:8078   */\n      dup2\n        /* \"#utility.yul\":8072:8087   */\n      lt\n        /* \"#utility.yul\":8046:8480   */\n      iszero\n      tag_419\n      jumpi\n        /* \"#utility.yul\":8169:8172   */\n      dup1\n        /* \"#utility.yul\":8156:8173   */\n      calldataload\n        /* \"#utility.yul\":8205:8223   */\n      0xffffffffffffffff\n        /* \"#utility.yul\":8192:8203   */\n      dup2\n        /* \"#utility.yul\":8189:8224   */\n      gt\n        /* \"#utility.yul\":8186:8308   */\n      iszero\n      tag_420\n      jumpi\n        /* \"#utility.yul\":8227:8306   */\n      tag_421\n      tag_266\n      jump\t// in\n    tag_421:\n        /* \"#utility.yul\":8186:8308   */\n    tag_420:\n        /* \"#utility.yul\":8351:8362   */\n      dup1\n        /* \"#utility.yul\":8343:8349   */\n      dup7\n        /* \"#utility.yul\":8339:8363   */\n      add\n        /* \"#utility.yul\":8389:8435   */\n      tag_422\n        /* \"#utility.yul\":8431:8434   */\n      dup10\n        /* \"#utility.yul\":8419:8429   */\n      dup3\n        /* \"#utility.yul\":8389:8435   */\n      tag_274\n      jump\t// in\n    tag_422:\n        /* \"#utility.yul\":8384:8387   */\n      dup6\n        /* \"#utility.yul\":8377:8436   */\n      mstore\n        /* \"#utility.yul\":8465:8469   */\n      0x20\n        /* \"#utility.yul\":8460:8463   */\n      dup6\n        /* \"#utility.yul\":8456:8470   */\n      add\n        /* \"#utility.yul\":8449:8470   */\n      swap5\n      pop\n        /* \"#utility.yul\":8122:8480   */\n      pop\n      pop\n        /* \"#utility.yul\":8106:8110   */\n      0x20\n        /* \"#utility.yul\":8101:8104   */\n      dup2\n        /* \"#utility.yul\":8097:8111   */\n      add\n        /* \"#utility.yul\":8090:8111   */\n      swap1\n      pop\n        /* \"#utility.yul\":8046:8480   */\n      jump(tag_417)\n    tag_419:\n        /* \"#utility.yul\":8050:8071   */\n      pop\n        /* \"#utility.yul\":7655:8486   */\n      pop\n      pop\n        /* \"#utility.yul\":7544:8486   */\n      swap4\n      swap3\n      pop\n      pop\n      pop\n      jump\t// out\n        /* \"#utility.yul\":8507:8895   */\n    tag_291:\n        /* \"#utility.yul\":8587:8592   */\n      0x00\n        /* \"#utility.yul\":8636:8639   */\n      dup3\n        /* \"#utility.yul\":8629:8633   */\n      0x1f\n        /* \"#utility.yul\":8621:8627   */\n      dup4\n        /* \"#utility.yul\":8617:8634   */\n      add\n        /* \"#utility.yul\":8613:8640   */\n      slt\n        /* \"#utility.yul\":8603:8725   */\n      tag_424\n      jumpi\n        /* \"#utility.yul\":8644:8723   */\n      tag_425\n      tag_266\n      jump\t// in\n    tag_425:\n        /* \"#utility.yul\":8603:8725   */\n    tag_424:\n        /* \"#utility.yul\":8761:8767   */\n      dup2\n        /* \"#utility.yul\":8748:8768   */\n      calldataload\n        /* \"#utility.yul\":8786:8889   */\n      tag_426\n        /* \"#utility.yul\":8885:8888   */\n      dup5\n        /* \"#utility.yul\":8877:8883   */\n      dup3\n        /* \"#utility.yul\":8870:8874   */\n      0x20\n        /* \"#utility.yul\":8862:8868   */\n      dup7\n        /* \"#utility.yul\":8858:8875   */\n      add\n        /* \"#utility.yul\":8786:8889   */\n      tag_290\n      jump\t// in\n    tag_426:\n        /* \"#utility.yul\":8777:8889   */\n      swap2\n      pop\n        /* \"#utility.yul\":8593:8895   */\n      pop\n        /* \"#utility.yul\":8507:8895   */\n      swap3\n      swap2\n      pop\n      pop\n      jump\t// out\n        /* \"#utility.yul\":8901:9603   */\n    tag_49:\n        /* \"#utility.yul\":9003:9009   */\n      0x00\n        /* \"#utility.yul\":9011:9017   */\n      dup1\n        /* \"#utility.yul\":9060:9062   */\n      0x40\n        /* \"#utility.yul\":9048:9057   */\n      dup4\n        /* \"#utility.yul\":9039:9046   */\n      dup6\n        /* \"#utility.yul\":9035:9058   */\n      sub\n        /* \"#utility.yul\":9031:9063   */\n      slt\n        /* \"#utility.yul\":9028:9147   */\n      iszero\n      tag_428\n      jumpi\n        /* \"#utility.yul\":9066:9145   */\n      tag_429\n      tag_264\n      jump\t// in\n    tag_429:\n        /* \"#utility.yul\":9028:9147   */\n    tag_428:\n        /* \"#utility.yul\":9214:9215   */\n      0x00\n        /* \"#utility.yul\":9203:9212   */\n      dup4\n        /* \"#utility.yul\":9199:9216   */\n      add\n        /* \"#utility.yul\":9186:9217   */\n      calldataload\n        /* \"#utility.yul\":9244:9262   */\n      0xffffffffffffffff\n        /* \"#utility.yul\":9236:9242   */\n      dup2\n        /* \"#utility.yul\":9233:9263   */\n      gt\n        /* \"#utility.yul\":9230:9347   */\n      iszero\n      tag_430\n      jumpi\n        /* \"#utility.yul\":9266:9345   */\n      tag_431\n      tag_265\n      jump\t// in\n    tag_431:\n        /* \"#utility.yul\":9230:9347   */\n    tag_430:\n        /* \"#utility.yul\":9371:9458   */\n      tag_432\n        /* \"#utility.yul\":9450:9457   */\n      dup6\n        /* \"#utility.yul\":9441:9447   */\n      dup3\n        /* \"#utility.yul\":9430:9439   */\n      dup7\n        /* \"#utility.yul\":9426:9448   */\n      add\n        /* \"#utility.yul\":9371:9458   */\n      tag_291\n      jump\t// in\n    tag_432:\n        /* \"#utility.yul\":9361:9458   */\n      swap3\n      pop\n        /* \"#utility.yul\":9157:9468   */\n      pop\n        /* \"#utility.yul\":9507:9509   */\n      0x20\n        /* \"#utility.yul\":9533:9586   */\n      tag_433\n        /* \"#utility.yul\":9578:9585   */\n      dup6\n        /* \"#utility.yul\":9569:9575   */\n      dup3\n        /* \"#utility.yul\":9558:9567   */\n      dup7\n        /* \"#utility.yul\":9554:9576   */\n      add\n        /* \"#utility.yul\":9533:9586   */\n      tag_281\n      jump\t// in\n    tag_433:\n        /* \"#utility.yul\":9523:9586   */\n      swap2\n      pop\n        /* \"#utility.yul\":9478:9596   */\n      pop\n        /* \"#utility.yul\":8901:9603   */\n      swap3\n      pop\n      swap3\n      swap1\n      pop\n      jump\t// out\n        /* \"#utility.yul\":9609:9699   */\n    tag_292:\n        /* \"#utility.yul\":9643:9650   */\n      0x00\n        /* \"#utility.yul\":9686:9691   */\n      dup2\n        /* \"#utility.yul\":9679:9692   */\n      iszero\n        /* \"#utility.yul\":9672:9693   */\n      iszero\n        /* \"#utility.yul\":9661:9693   */\n      swap1\n      pop\n        /* \"#utility.yul\":9609:9699   */\n      swap2\n      swap1\n      pop\n      jump\t// out\n        /* \"#utility.yul\":9705:9814   */\n    tag_293:\n        /* \"#utility.yul\":9786:9807   */\n      tag_436\n        /* \"#utility.yul\":9801:9806   */\n      dup2\n        /* \"#utility.yul\":9786:9807   */\n      tag_292\n      jump\t// in\n    tag_436:\n        /* \"#utility.yul\":9781:9784   */\n      dup3\n        /* \"#utility.yul\":9774:9808   */\n      mstore\n        /* \"#utility.yul\":9705:9814   */\n      pop\n      pop\n      jump\t// out\n        /* \"#utility.yul\":9820:10030   */\n    tag_57:\n        /* \"#utility.yul\":9907:9911   */\n      0x00\n        /* \"#utility.yul\":9945:9947   */\n      0x20\n        /* \"#utility.yul\":9934:9943   */\n      dup3\n        /* \"#utility.yul\":9930:9948   */\n      add\n        /* \"#utility.yul\":9922:9948   */\n      swap1\n      pop\n        /* \"#utility.yul\":9958:10023   */\n      tag_438\n        /* \"#utility.yul\":10020:10021   */\n      0x00\n        /* \"#utility.yul\":10009:10018   */\n      dup4\n        /* \"#utility.yul\":10005:10022   */\n      add\n        /* \"#utility.yul\":9996:10002   */\n      dup5\n        /* \"#utility.yul\":9958:10023   */\n      tag_293\n      jump\t// in\n    tag_438:\n        /* \"#utility.yul\":9820:10030   */\n      swap3\n      swap2\n      pop\n      pop\n      jump\t// out\n        /* \"#utility.yul\":10036:10258   */\n    tag_62:\n        /* \"#utility.yul\":10129:10133   */\n      0x00\n        /* \"#utility.yul\":10167:10169   */\n      0x20\n        /* \"#utility.yul\":10156:10165   */\n      dup3\n        /* \"#utility.yul\":10152:10170   */\n      add\n        /* \"#utility.yul\":10144:10170   */\n      swap1\n      pop\n        /* \"#utility.yul\":10180:10251   */\n      tag_440\n        /* \"#utility.yul\":10248:10249   */\n      0x00\n        /* \"#utility.yul\":10237:10246   */\n      dup4\n        /* \"#utility.yul\":10233:10250   */\n      add\n        /* \"#utility.yul\":10224:10230   */\n      dup5\n        /* \"#utility.yul\":10180:10251   */\n      tag_284\n      jump\t// in\n    tag_440:\n        /* \"#utility.yul\":10036:10258   */\n      swap3\n      swap2\n      pop\n      pop\n      jump\t// out\n        /* \"#utility.yul\":10264:10575   */\n    tag_294:\n        /* \"#utility.yul\":10341:10345   */\n      0x00\n        /* \"#utility.yul\":10431:10449   */\n      0xffffffffffffffff\n        /* \"#utility.yul\":10423:10429   */\n      dup3\n        /* \"#utility.yul\":10420:10450   */\n      gt\n        /* \"#utility.yul\":10417:10473   */\n      iszero\n      tag_442\n      jumpi\n        /* \"#utility.yul\":10453:10471   */\n      tag_443\n      tag_86\n      jump\t// in\n    tag_443:\n        /* \"#utility.yul\":10417:10473   */\n    tag_442:\n        /* \"#utility.yul\":10503:10507   */\n      0x20\n        /* \"#utility.yul\":10495:10501   */\n      dup3\n        /* \"#utility.yul\":10491:10508   */\n      mul\n        /* \"#utility.yul\":10483:10508   */\n      swap1\n      pop\n        /* \"#utility.yul\":10563:10567   */\n      0x20\n        /* \"#utility.yul\":10557:10561   */\n      dup2\n        /* \"#utility.yul\":10553:10568   */\n      add\n        /* \"#utility.yul\":10545:10568   */\n      swap1\n      pop\n        /* \"#utility.yul\":10264:10575   */\n      swap2\n      swap1\n      pop\n      jump\t// out\n        /* \"#utility.yul\":10598:11308   */\n    tag_295:\n        /* \"#utility.yul\":10694:10699   */\n      0x00\n        /* \"#utility.yul\":10719:10800   */\n      tag_445\n        /* \"#utility.yul\":10735:10799   */\n      tag_446\n        /* \"#utility.yul\":10792:10798   */\n      dup5\n        /* \"#utility.yul\":10735:10799   */\n      tag_294\n      jump\t// in\n    tag_446:\n        /* \"#utility.yul\":10719:10800   */\n      tag_270\n      jump\t// in\n    tag_445:\n        /* \"#utility.yul\":10710:10800   */\n      swap1\n      pop\n        /* \"#utility.yul\":10820:10825   */\n      dup1\n        /* \"#utility.yul\":10849:10855   */\n      dup4\n        /* \"#utility.yul\":10842:10847   */\n      dup3\n        /* \"#utility.yul\":10835:10856   */\n      mstore\n        /* \"#utility.yul\":10883:10887   */\n      0x20\n        /* \"#utility.yul\":10876:10881   */\n      dup3\n        /* \"#utility.yul\":10872:10888   */\n      add\n        /* \"#utility.yul\":10865:10888   */\n      swap1\n      pop\n        /* \"#utility.yul\":10936:10940   */\n      0x20\n        /* \"#utility.yul\":10928:10934   */\n      dup5\n        /* \"#utility.yul\":10924:10941   */\n      mul\n        /* \"#utility.yul\":10916:10922   */\n      dup4\n        /* \"#utility.yul\":10912:10942   */\n      add\n        /* \"#utility.yul\":10965:10968   */\n      dup6\n        /* \"#utility.yul\":10957:10963   */\n      dup2\n        /* \"#utility.yul\":10954:10969   */\n      gt\n        /* \"#utility.yul\":10951:11073   */\n      iszero\n      tag_447\n      jumpi\n        /* \"#utility.yul\":10984:11063   */\n      tag_448\n      tag_289\n      jump\t// in\n    tag_448:\n        /* \"#utility.yul\":10951:11073   */\n    tag_447:\n        /* \"#utility.yul\":11099:11105   */\n      dup4\n        /* \"#utility.yul\":11082:11302   */\n    tag_449:\n        /* \"#utility.yul\":11116:11122   */\n      dup2\n        /* \"#utility.yul\":11111:11114   */\n      dup2\n        /* \"#utility.yul\":11108:11123   */\n      lt\n        /* \"#utility.yul\":11082:11302   */\n      iszero\n      tag_451\n      jumpi\n        /* \"#utility.yul\":11191:11194   */\n      dup1\n        /* \"#utility.yul\":11220:11257   */\n      tag_452\n        /* \"#utility.yul\":11253:11256   */\n      dup9\n        /* \"#utility.yul\":11241:11251   */\n      dup3\n        /* \"#utility.yul\":11220:11257   */\n      tag_287\n      jump\t// in\n    tag_452:\n        /* \"#utility.yul\":11215:11218   */\n      dup5\n        /* \"#utility.yul\":11208:11258   */\n      mstore\n        /* \"#utility.yul\":11287:11291   */\n      0x20\n        /* \"#utility.yul\":11282:11285   */\n      dup5\n        /* \"#utility.yul\":11278:11292   */\n      add\n        /* \"#utility.yul\":11271:11292   */\n      swap4\n      pop\n        /* \"#utility.yul\":11158:11302   */\n      pop\n        /* \"#utility.yul\":11142:11146   */\n      0x20\n        /* \"#utility.yul\":11137:11140   */\n      dup2\n        /* \"#utility.yul\":11133:11147   */\n      add\n        /* \"#utility.yul\":11126:11147   */\n      swap1\n      pop\n        /* \"#utility.yul\":11082:11302   */\n      jump(tag_449)\n    tag_451:\n        /* \"#utility.yul\":11086:11107   */\n      pop\n        /* \"#utility.yul\":10700:11308   */\n      pop\n      pop\n        /* \"#utility.yul\":10598:11308   */\n      swap4\n      swap3\n      pop\n      pop\n      pop\n      jump\t// out\n        /* \"#utility.yul\":11331:11701   */\n    tag_296:\n        /* \"#utility.yul\":11402:11407   */\n      0x00\n        /* \"#utility.yul\":11451:11454   */\n      dup3\n        /* \"#utility.yul\":11444:11448   */\n      0x1f\n        /* \"#utility.yul\":11436:11442   */\n      dup4\n        /* \"#utility.yul\":11432:11449   */\n      add\n        /* \"#utility.yul\":11428:11455   */\n      slt\n        /* \"#utility.yul\":11418:11540   */\n      tag_454\n      jumpi\n        /* \"#utility.yul\":11459:11538   */\n      tag_455\n      tag_266\n      jump\t// in\n    tag_455:\n        /* \"#utility.yul\":11418:11540   */\n    tag_454:\n        /* \"#utility.yul\":11576:11582   */\n      dup2\n        /* \"#utility.yul\":11563:11583   */\n      calldataload\n        /* \"#utility.yul\":11601:11695   */\n      tag_456\n        /* \"#utility.yul\":11691:11694   */\n      dup5\n        /* \"#utility.yul\":11683:11689   */\n      dup3\n        /* \"#utility.yul\":11676:11680   */\n      0x20\n        /* \"#utility.yul\":11668:11674   */\n      dup7\n        /* \"#utility.yul\":11664:11681   */\n      add\n        /* \"#utility.yul\":11601:11695   */\n      tag_295\n      jump\t// in\n    tag_456:\n        /* \"#utility.yul\":11592:11695   */\n      swap2\n      pop\n        /* \"#utility.yul\":11408:11701   */\n      pop\n        /* \"#utility.yul\":11331:11701   */\n      swap3\n      swap2\n      pop\n      pop\n      jump\t// out\n        /* \"#utility.yul\":11707:12246   */\n    tag_66:\n        /* \"#utility.yul\":11791:11797   */\n      0x00\n        /* \"#utility.yul\":11840:11842   */\n      0x20\n        /* \"#utility.yul\":11828:11837   */\n      dup3\n        /* \"#utility.yul\":11819:11826   */\n      dup5\n        /* \"#utility.yul\":11815:11838   */\n      sub\n        /* \"#utility.yul\":11811:11843   */\n      slt\n        /* \"#utility.yul\":11808:11927   */\n      iszero\n      tag_458\n      jumpi\n        /* \"#utility.yul\":11846:11925   */\n      tag_459\n      tag_264\n      jump\t// in\n    tag_459:\n        /* \"#utility.yul\":11808:11927   */\n    tag_458:\n        /* \"#utility.yul\":11994:11995   */\n      0x00\n        /* \"#utility.yul\":11983:11992   */\n      dup3\n        /* \"#utility.yul\":11979:11996   */\n      add\n        /* \"#utility.yul\":11966:11997   */\n      calldataload\n        /* \"#utility.yul\":12024:12042   */\n      0xffffffffffffffff\n        /* \"#utility.yul\":12016:12022   */\n      dup2\n        /* \"#utility.yul\":12013:12043   */\n      gt\n        /* \"#utility.yul\":12010:12127   */\n      iszero\n      tag_460\n      jumpi\n        /* \"#utility.yul\":12046:12125   */\n      tag_461\n      tag_265\n      jump\t// in\n    tag_461:\n        /* \"#utility.yul\":12010:12127   */\n    tag_460:\n        /* \"#utility.yul\":12151:12229   */\n      tag_462\n        /* \"#utility.yul\":12221:12228   */\n      dup5\n        /* \"#utility.yul\":12212:12218   */\n      dup3\n        /* \"#utility.yul\":12201:12210   */\n      dup6\n        /* \"#utility.yul\":12197:12219   */\n      add\n        /* \"#utility.yul\":12151:12229   */\n      tag_296\n      jump\t// in\n    tag_462:\n        /* \"#utility.yul\":12141:12229   */\n      swap2\n      pop\n        /* \"#utility.yul\":11937:12239   */\n      pop\n        /* \"#utility.yul\":11707:12246   */\n      swap3\n      swap2\n      pop\n      pop\n      jump\t// out\n        /* \"#utility.yul\":12252:12369   */\n    tag_297:\n        /* \"#utility.yul\":12361:12362   */\n      0x00\n        /* \"#utility.yul\":12358:12359   */\n      dup1\n        /* \"#utility.yul\":12351:12363   */\n      revert\n        /* \"#utility.yul\":12375:12492   */\n    tag_298:\n        /* \"#utility.yul\":12484:12485   */\n      0x00\n        /* \"#utility.yul\":12481:12482   */\n      dup1\n        /* \"#utility.yul\":12474:12486   */\n      revert\n        /* \"#utility.yul\":12548:13467   */\n    tag_299:\n        /* \"#utility.yul\":12629:12634   */\n      0x00\n        /* \"#utility.yul\":12673:12677   */\n      0x60\n        /* \"#utility.yul\":12661:12670   */\n      dup3\n        /* \"#utility.yul\":12656:12659   */\n      dup5\n        /* \"#utility.yul\":12652:12671   */\n      sub\n        /* \"#utility.yul\":12648:12678   */\n      slt\n        /* \"#utility.yul\":12645:12762   */\n      iszero\n      tag_466\n      jumpi\n        /* \"#utility.yul\":12681:12760   */\n      tag_467\n      tag_297\n      jump\t// in\n    tag_467:\n        /* \"#utility.yul\":12645:12762   */\n    tag_466:\n        /* \"#utility.yul\":12780:12801   */\n      tag_468\n        /* \"#utility.yul\":12796:12800   */\n      0x60\n        /* \"#utility.yul\":12780:12801   */\n      tag_270\n      jump\t// in\n    tag_468:\n        /* \"#utility.yul\":12771:12801   */\n      swap1\n      pop\n        /* \"#utility.yul\":12892:12893   */\n      0x00\n        /* \"#utility.yul\":12881:12890   */\n      dup3\n        /* \"#utility.yul\":12877:12894   */\n      add\n        /* \"#utility.yul\":12864:12895   */\n      calldataload\n        /* \"#utility.yul\":12922:12940   */\n      0xffffffffffffffff\n        /* \"#utility.yul\":12914:12920   */\n      dup2\n        /* \"#utility.yul\":12911:12941   */\n      gt\n        /* \"#utility.yul\":12908:13025   */\n      iszero\n      tag_469\n      jumpi\n        /* \"#utility.yul\":12944:13023   */\n      tag_470\n      tag_298\n      jump\t// in\n    tag_470:\n        /* \"#utility.yul\":12908:13025   */\n    tag_469:\n        /* \"#utility.yul\":13064:13122   */\n      tag_471\n        /* \"#utility.yul\":13118:13121   */\n      dup5\n        /* \"#utility.yul\":13109:13115   */\n      dup3\n        /* \"#utility.yul\":13098:13107   */\n      dup6\n        /* \"#utility.yul\":13094:13116   */\n      add\n        /* \"#utility.yul\":13064:13122   */\n      tag_274\n      jump\t// in\n    tag_471:\n        /* \"#utility.yul\":13057:13061   */\n      0x00\n        /* \"#utility.yul\":13050:13055   */\n      dup4\n        /* \"#utility.yul\":13046:13062   */\n      add\n        /* \"#utility.yul\":13039:13123   */\n      mstore\n        /* \"#utility.yul\":12811:13134   */\n      pop\n        /* \"#utility.yul\":13195:13197   */\n      0x20\n        /* \"#utility.yul\":13236:13285   */\n      tag_472\n        /* \"#utility.yul\":13281:13284   */\n      dup5\n        /* \"#utility.yul\":13272:13278   */\n      dup3\n        /* \"#utility.yul\":13261:13270   */\n      dup6\n        /* \"#utility.yul\":13257:13279   */\n      add\n        /* \"#utility.yul\":13236:13285   */\n      tag_287\n      jump\t// in\n    tag_472:\n        /* \"#utility.yul\":13229:13233   */\n      0x20\n        /* \"#utility.yul\":13222:13227   */\n      dup4\n        /* \"#utility.yul\":13218:13234   */\n      add\n        /* \"#utility.yul\":13211:13286   */\n      mstore\n        /* \"#utility.yul\":13144:13297   */\n      pop\n        /* \"#utility.yul\":13358:13360   */\n      0x40\n        /* \"#utility.yul\":13399:13448   */\n      tag_473\n        /* \"#utility.yul\":13444:13447   */\n      dup5\n        /* \"#utility.yul\":13435:13441   */\n      dup3\n        /* \"#utility.yul\":13424:13433   */\n      dup6\n        /* \"#utility.yul\":13420:13442   */\n      add\n        /* \"#utility.yul\":13399:13448   */\n      tag_281\n      jump\t// in\n    tag_473:\n        /* \"#utility.yul\":13392:13396   */\n      0x40\n        /* \"#utility.yul\":13385:13390   */\n      dup4\n        /* \"#utility.yul\":13381:13397   */\n      add\n        /* \"#utility.yul\":13374:13449   */\n      mstore\n        /* \"#utility.yul\":13307:13460   */\n      pop\n        /* \"#utility.yul\":12548:13467   */\n      swap3\n      swap2\n      pop\n      pop\n      jump\t// out\n        /* \"#utility.yul\":13473:13589   */\n    tag_300:\n        /* \"#utility.yul\":13543:13564   */\n      tag_475\n        /* \"#utility.yul\":13558:13563   */\n      dup2\n        /* \"#utility.yul\":13543:13564   */\n      tag_292\n      jump\t// in\n    tag_475:\n        /* \"#utility.yul\":13536:13541   */\n      dup2\n        /* \"#utility.yul\":13533:13565   */\n      eq\n        /* \"#utility.yul\":13523:13583   */\n      tag_476\n      jumpi\n        /* \"#utility.yul\":13579:13580   */\n      0x00\n        /* \"#utility.yul\":13576:13577   */\n      dup1\n        /* \"#utility.yul\":13569:13581   */\n      revert\n        /* \"#utility.yul\":13523:13583   */\n    tag_476:\n        /* \"#utility.yul\":13473:13589   */\n      pop\n      jump\t// out\n        /* \"#utility.yul\":13595:13728   */\n    tag_301:\n        /* \"#utility.yul\":13638:13643   */\n      0x00\n        /* \"#utility.yul\":13676:13682   */\n      dup2\n        /* \"#utility.yul\":13663:13683   */\n      calldataload\n        /* \"#utility.yul\":13654:13683   */\n      swap1\n      pop\n        /* \"#utility.yul\":13692:13722   */\n      tag_478\n        /* \"#utility.yul\":13716:13721   */\n      dup2\n        /* \"#utility.yul\":13692:13722   */\n      tag_300\n      jump\t// in\n    tag_478:\n        /* \"#utility.yul\":13595:13728   */\n      swap3\n      swap2\n      pop\n      pop\n      jump\t// out\n        /* \"#utility.yul\":13734:14426   */\n    tag_71:\n        /* \"#utility.yul\":13831:13837   */\n      0x00\n        /* \"#utility.yul\":13839:13845   */\n      dup1\n        /* \"#utility.yul\":13888:13890   */\n      0x40\n        /* \"#utility.yul\":13876:13885   */\n      dup4\n        /* \"#utility.yul\":13867:13874   */\n      dup6\n        /* \"#utility.yul\":13863:13886   */\n      sub\n        /* \"#utility.yul\":13859:13891   */\n      slt\n        /* \"#utility.yul\":13856:13975   */\n      iszero\n      tag_480\n      jumpi\n        /* \"#utility.yul\":13894:13973   */\n      tag_481\n      tag_264\n      jump\t// in\n    tag_481:\n        /* \"#utility.yul\":13856:13975   */\n    tag_480:\n        /* \"#utility.yul\":14042:14043   */\n      0x00\n        /* \"#utility.yul\":14031:14040   */\n      dup4\n        /* \"#utility.yul\":14027:14044   */\n      add\n        /* \"#utility.yul\":14014:14045   */\n      calldataload\n        /* \"#utility.yul\":14072:14090   */\n      0xffffffffffffffff\n        /* \"#utility.yul\":14064:14070   */\n      dup2\n        /* \"#utility.yul\":14061:14091   */\n      gt\n        /* \"#utility.yul\":14058:14175   */\n      iszero\n      tag_482\n      jumpi\n        /* \"#utility.yul\":14094:14173   */\n      tag_483\n      tag_265\n      jump\t// in\n    tag_483:\n        /* \"#utility.yul\":14058:14175   */\n    tag_482:\n        /* \"#utility.yul\":14199:14284   */\n      tag_484\n        /* \"#utility.yul\":14276:14283   */\n      dup6\n        /* \"#utility.yul\":14267:14273   */\n      dup3\n        /* \"#utility.yul\":14256:14265   */\n      dup7\n        /* \"#utility.yul\":14252:14274   */\n      add\n        /* \"#utility.yul\":14199:14284   */\n      tag_299\n      jump\t// in\n    tag_484:\n        /* \"#utility.yul\":14189:14284   */\n      swap3\n      pop\n        /* \"#utility.yul\":13985:14294   */\n      pop\n        /* \"#utility.yul\":14333:14335   */\n      0x20\n        /* \"#utility.yul\":14359:14409   */\n      tag_485\n        /* \"#utility.yul\":14401:14408   */\n      dup6\n        /* \"#utility.yul\":14392:14398   */\n      dup3\n        /* \"#utility.yul\":14381:14390   */\n      dup7\n        /* \"#utility.yul\":14377:14399   */\n      add\n        /* \"#utility.yul\":14359:14409   */\n      tag_301\n      jump\t// in\n    tag_485:\n        /* \"#utility.yul\":14349:14409   */\n      swap2\n      pop\n        /* \"#utility.yul\":14304:14419   */\n      pop\n        /* \"#utility.yul\":13734:14426   */\n      swap3\n      pop\n      swap3\n      swap1\n      pop\n      jump\t// out\n        /* \"#utility.yul\":14432:14612   */\n    tag_302:\n        /* \"#utility.yul\":14480:14557   */\n      0x4e487b7100000000000000000000000000000000000000000000000000000000\n        /* \"#utility.yul\":14477:14478   */\n      0x00\n        /* \"#utility.yul\":14470:14558   */\n      mstore\n        /* \"#utility.yul\":14577:14581   */\n      0x11\n        /* \"#utility.yul\":14574:14575   */\n      0x04\n        /* \"#utility.yul\":14567:14582   */\n      mstore\n        /* \"#utility.yul\":14601:14605   */\n      0x24\n        /* \"#utility.yul\":14598:14599   */\n      0x00\n        /* \"#utility.yul\":14591:14606   */\n      revert\n        /* \"#utility.yul\":14618:15028   */\n    tag_83:\n        /* \"#utility.yul\":14658:14665   */\n      0x00\n        /* \"#utility.yul\":14681:14701   */\n      tag_488\n        /* \"#utility.yul\":14699:14700   */\n      dup3\n        /* \"#utility.yul\":14681:14701   */\n      tag_279\n      jump\t// in\n    tag_488:\n        /* \"#utility.yul\":14676:14701   */\n      swap2\n      pop\n        /* \"#utility.yul\":14715:14735   */\n      tag_489\n        /* \"#utility.yul\":14733:14734   */\n      dup4\n        /* \"#utility.yul\":14715:14735   */\n      tag_279\n      jump\t// in\n    tag_489:\n        /* \"#utility.yul\":14710:14735   */\n      swap3\n      pop\n        /* \"#utility.yul\":14770:14771   */\n      dup3\n        /* \"#utility.yul\":14767:14768   */\n      dup3\n        /* \"#utility.yul\":14763:14772   */\n      mul\n        /* \"#utility.yul\":14792:14822   */\n      tag_490\n        /* \"#utility.yul\":14810:14821   */\n      dup2\n        /* \"#utility.yul\":14792:14822   */\n      tag_279\n      jump\t// in\n    tag_490:\n        /* \"#utility.yul\":14781:14822   */\n      swap2\n      pop\n        /* \"#utility.yul\":14971:14972   */\n      dup3\n        /* \"#utility.yul\":14962:14969   */\n      dup3\n        /* \"#utility.yul\":14958:14973   */\n      div\n        /* \"#utility.yul\":14955:14956   */\n      dup5\n        /* \"#utility.yul\":14952:14974   */\n      eq\n        /* \"#utility.yul\":14932:14933   */\n      dup4\n        /* \"#utility.yul\":14925:14934   */\n      iszero\n        /* \"#utility.yul\":14905:14988   */\n      or\n        /* \"#utility.yul\":14882:15021   */\n      tag_491\n      jumpi\n        /* \"#utility.yul\":15001:15019   */\n      tag_492\n      tag_302\n      jump\t// in\n    tag_492:\n        /* \"#utility.yul\":14882:15021   */\n    tag_491:\n        /* \"#utility.yul\":14666:15028   */\n      pop\n        /* \"#utility.yul\":14618:15028   */\n      swap3\n      swap2\n      pop\n      pop\n      jump\t// out\n        /* \"#utility.yul\":15034:15214   */\n    tag_93:\n        /* \"#utility.yul\":15082:15159   */\n      0x4e487b7100000000000000000000000000000000000000000000000000000000\n        /* \"#utility.yul\":15079:15080   */\n      0x00\n        /* \"#utility.yul\":15072:15160   */\n      mstore\n        /* \"#utility.yul\":15179:15183   */\n      0x32\n        /* \"#utility.yul\":15176:15177   */\n      0x04\n        /* \"#utility.yul\":15169:15184   */\n      mstore\n        /* \"#utility.yul\":15203:15207   */\n      0x24\n        /* \"#utility.yul\":15200:15201   */\n      0x00\n        /* \"#utility.yul\":15193:15208   */\n      revert\n        /* \"#utility.yul\":15220:15400   */\n    tag_303:\n        /* \"#utility.yul\":15268:15345   */\n      0x4e487b7100000000000000000000000000000000000000000000000000000000\n        /* \"#utility.yul\":15265:15266   */\n      0x00\n        /* \"#utility.yul\":15258:15346   */\n      mstore\n        /* \"#utility.yul\":15365:15369   */\n      0x12\n        /* \"#utility.yul\":15362:15363   */\n      0x04\n        /* \"#utility.yul\":15355:15370   */\n      mstore\n        /* \"#utility.yul\":15389:15393   */\n      0x24\n        /* \"#utility.yul\":15386:15387   */\n      0x00\n        /* \"#utility.yul\":15379:15394   */\n      revert\n        /* \"#utility.yul\":15406:15591   */\n    tag_95:\n        /* \"#utility.yul\":15446:15447   */\n      0x00\n        /* \"#utility.yul\":15463:15483   */\n      tag_496\n        /* \"#utility.yul\":15481:15482   */\n      dup3\n        /* \"#utility.yul\":15463:15483   */\n      tag_279\n      jump\t// in\n    tag_496:\n        /* \"#utility.yul\":15458:15483   */\n      swap2\n      pop\n        /* \"#utility.yul\":15497:15517   */\n      tag_497\n        /* \"#utility.yul\":15515:15516   */\n      dup4\n        /* \"#utility.yul\":15497:15517   */\n      tag_279\n      jump\t// in\n    tag_497:\n        /* \"#utility.yul\":15492:15517   */\n      swap3\n      pop\n        /* \"#utility.yul\":15536:15537   */\n      dup3\n        /* \"#utility.yul\":15526:15561   */\n      tag_498\n      jumpi\n        /* \"#utility.yul\":15541:15559   */\n      tag_499\n      tag_303\n      jump\t// in\n    tag_499:\n        /* \"#utility.yul\":15526:15561   */\n    tag_498:\n        /* \"#utility.yul\":15583:15584   */\n      dup3\n        /* \"#utility.yul\":15580:15581   */\n      dup3\n        /* \"#utility.yul\":15576:15585   */\n      div\n        /* \"#utility.yul\":15571:15585   */\n      swap1\n      pop\n        /* \"#utility.yul\":15406:15591   */\n      swap3\n      swap2\n      pop\n      pop\n      jump\t// out\n        /* \"#utility.yul\":15597:15773   */\n    tag_104:\n        /* \"#utility.yul\":15629:15630   */\n      0x00\n        /* \"#utility.yul\":15646:15666   */\n      tag_501\n        /* \"#utility.yul\":15664:15665   */\n      dup3\n        /* \"#utility.yul\":15646:15666   */\n      tag_279\n      jump\t// in\n    tag_501:\n        /* \"#utility.yul\":15641:15666   */\n      swap2\n      pop\n        /* \"#utility.yul\":15680:15700   */\n      tag_502\n        /* \"#utility.yul\":15698:15699   */\n      dup4\n        /* \"#utility.yul\":15680:15700   */\n      tag_279\n      jump\t// in\n    tag_502:\n        /* \"#utility.yul\":15675:15700   */\n      swap3\n      pop\n        /* \"#utility.yul\":15719:15720   */\n      dup3\n        /* \"#utility.yul\":15709:15744   */\n      tag_503\n      jumpi\n        /* \"#utility.yul\":15724:15742   */\n      tag_504\n      tag_303\n      jump\t// in\n    tag_504:\n        /* \"#utility.yul\":15709:15744   */\n    tag_503:\n        /* \"#utility.yul\":15765:15766   */\n      dup3\n        /* \"#utility.yul\":15762:15763   */\n      dup3\n        /* \"#utility.yul\":15758:15767   */\n      mod\n        /* \"#utility.yul\":15753:15767   */\n      swap1\n      pop\n        /* \"#utility.yul\":15597:15773   */\n      swap3\n      swap2\n      pop\n      pop\n      jump\t// out\n        /* \"#utility.yul\":15779:15970   */\n    tag_109:\n        /* \"#utility.yul\":15819:15822   */\n      0x00\n        /* \"#utility.yul\":15838:15858   */\n      tag_506\n        /* \"#utility.yul\":15856:15857   */\n      dup3\n        /* \"#utility.yul\":15838:15858   */\n      tag_279\n      jump\t// in\n    tag_506:\n        /* \"#utility.yul\":15833:15858   */\n      swap2\n      pop\n        /* \"#utility.yul\":15872:15892   */\n      tag_507\n        /* \"#utility.yul\":15890:15891   */\n      dup4\n        /* \"#utility.yul\":15872:15892   */\n      tag_279\n      jump\t// in\n    tag_507:\n        /* \"#utility.yul\":15867:15892   */\n      swap3\n      pop\n        /* \"#utility.yul\":15915:15916   */\n      dup3\n        /* \"#utility.yul\":15912:15913   */\n      dup3\n        /* \"#utility.yul\":15908:15917   */\n      add\n        /* \"#utility.yul\":15901:15917   */\n      swap1\n      pop\n        /* \"#utility.yul\":15936:15939   */\n      dup1\n        /* \"#utility.yul\":15933:15934   */\n      dup3\n        /* \"#utility.yul\":15930:15940   */\n      gt\n        /* \"#utility.yul\":15927:15963   */\n      iszero\n      tag_508\n      jumpi\n        /* \"#utility.yul\":15943:15961   */\n      tag_509\n      tag_302\n      jump\t// in\n    tag_509:\n        /* \"#utility.yul\":15927:15963   */\n    tag_508:\n        /* \"#utility.yul\":15779:15970   */\n      swap3\n      swap2\n      pop\n      pop\n      jump\t// out\n        /* \"#utility.yul\":15976:16156   */\n    tag_304:\n        /* \"#utility.yul\":16024:16101   */\n      0x4e487b7100000000000000000000000000000000000000000000000000000000\n        /* \"#utility.yul\":16021:16022   */\n      0x00\n        /* \"#utility.yul\":16014:16102   */\n      mstore\n        /* \"#utility.yul\":16121:16125   */\n      0x22\n        /* \"#utility.yul\":16118:16119   */\n      0x04\n        /* \"#utility.yul\":16111:16126   */\n      mstore\n        /* \"#utility.yul\":16145:16149   */\n      0x24\n        /* \"#utility.yul\":16142:16143   */\n      0x00\n        /* \"#utility.yul\":16135:16150   */\n      revert\n        /* \"#utility.yul\":16162:16482   */\n    tag_113:\n        /* \"#utility.yul\":16206:16212   */\n      0x00\n        /* \"#utility.yul\":16243:16244   */\n      0x02\n        /* \"#utility.yul\":16237:16241   */\n      dup3\n        /* \"#utility.yul\":16233:16245   */\n      div\n        /* \"#utility.yul\":16223:16245   */\n      swap1\n      pop\n        /* \"#utility.yul\":16290:16291   */\n      0x01\n        /* \"#utility.yul\":16284:16288   */\n      dup3\n        /* \"#utility.yul\":16280:16292   */\n      and\n        /* \"#utility.yul\":16311:16329   */\n      dup1\n        /* \"#utility.yul\":16301:16382   */\n      tag_512\n      jumpi\n        /* \"#utility.yul\":16367:16371   */\n      0x7f\n        /* \"#utility.yul\":16359:16365   */\n      dup3\n        /* \"#utility.yul\":16355:16372   */\n      and\n        /* \"#utility.yul\":16345:16372   */\n      swap2\n      pop\n        /* \"#utility.yul\":16301:16382   */\n    tag_512:\n        /* \"#utility.yul\":16429:16431   */\n      0x20\n        /* \"#utility.yul\":16421:16427   */\n      dup3\n        /* \"#utility.yul\":16418:16432   */\n      lt\n        /* \"#utility.yul\":16398:16416   */\n      dup2\n        /* \"#utility.yul\":16395:16433   */\n      sub\n        /* \"#utility.yul\":16392:16476   */\n      tag_513\n      jumpi\n        /* \"#utility.yul\":16448:16466   */\n      tag_514\n      tag_304\n      jump\t// in\n    tag_514:\n        /* \"#utility.yul\":16392:16476   */\n    tag_513:\n        /* \"#utility.yul\":16213:16482   */\n      pop\n        /* \"#utility.yul\":16162:16482   */\n      swap2\n      swap1\n      pop\n      jump\t// out\n        /* \"#utility.yul\":16488:16721   */\n    tag_129:\n        /* \"#utility.yul\":16527:16530   */\n      0x00\n        /* \"#utility.yul\":16550:16574   */\n      tag_516\n        /* \"#utility.yul\":16568:16573   */\n      dup3\n        /* \"#utility.yul\":16550:16574   */\n      tag_279\n      jump\t// in\n    tag_516:\n        /* \"#utility.yul\":16541:16574   */\n      swap2\n      pop\n        /* \"#utility.yul\":16596:16662   */\n      0xffffffffffffffffffffffffffffffffffffffffffffffffffffffffffffffff\n        /* \"#utility.yul\":16589:16594   */\n      dup3\n        /* \"#utility.yul\":16586:16663   */\n      sub\n        /* \"#utility.yul\":16583:16686   */\n      tag_517\n      jumpi\n        /* \"#utility.yul\":16666:16684   */\n      tag_518\n      tag_302\n      jump\t// in\n    tag_518:\n        /* \"#utility.yul\":16583:16686   */\n    tag_517:\n        /* \"#utility.yul\":16713:16714   */\n      0x01\n        /* \"#utility.yul\":16706:16711   */\n      dup3\n        /* \"#utility.yul\":16702:16715   */\n      add\n        /* \"#utility.yul\":16695:16715   */\n      swap1\n      pop\n        /* \"#utility.yul\":16488:16721   */\n      swap2\n      swap1\n      pop\n      jump\t// out\n        /* \"#utility.yul\":16727:16921   */\n    tag_135:\n        /* \"#utility.yul\":16767:16771   */\n      0x00\n        /* \"#utility.yul\":16787:16807   */\n      tag_520\n        /* \"#utility.yul\":16805:16806   */\n      dup3\n        /* \"#utility.yul\":16787:16807   */\n      tag_279\n      jump\t// in\n    tag_520:\n        /* \"#utility.yul\":16782:16807   */\n      swap2\n      pop\n        /* \"#utility.yul\":16821:16841   */\n      tag_521\n        /* \"#utility.yul\":16839:16840   */\n      dup4\n        /* \"#utility.yul\":16821:16841   */\n      tag_279\n      jump\t// in\n    tag_521:\n        /* \"#utility.yul\":16816:16841   */\n      swap3\n      pop\n        /* \"#utility.yul\":16865:16866   */\n      dup3\n        /* \"#utility.yul\":16862:16863   */\n      dup3\n        /* \"#utility.yul\":16858:16867   */\n      sub\n        /* \"#utility.yul\":16850:16867   */\n      swap1\n      pop\n        /* \"#utility.yul\":16889:16890   */\n      dup2\n        /* \"#utility.yul\":16883:16887   */\n      dup2\n        /* \"#utility.yul\":16880:16891   */\n      gt\n        /* \"#utility.yul\":16877:16914   */\n      iszero\n      tag_522\n      jumpi\n        /* \"#utility.yul\":16894:16912   */\n      tag_523\n      tag_302\n      jump\t// in\n    tag_523:\n        /* \"#utility.yul\":16877:16914   */\n    tag_522:\n        /* \"#utility.yul\":16727:16921   */\n      swap3\n      swap2\n      pop\n      pop\n      jump\t// out\n        /* \"#utility.yul\":16927:17021   */\n    tag_305:\n        /* \"#utility.yul\":16960:16968   */\n      0x00\n        /* \"#utility.yul\":17008:17013   */\n      dup2\n        /* \"#utility.yul\":17004:17006   */\n      0x60\n        /* \"#utility.yul\":17000:17014   */\n      shl\n        /* \"#utility.yul\":16979:17014   */\n      swap1\n      pop\n        /* \"#utility.yul\":16927:17021   */\n      swap2\n      swap1\n      pop\n      jump\t// out\n        /* \"#utility.yul\":17027:17121   */\n    tag_306:\n        /* \"#utility.yul\":17066:17073   */\n      0x00\n        /* \"#utility.yul\":17095:17115   */\n      tag_526\n        /* \"#utility.yul\":17109:17114   */\n      dup3\n        /* \"#utility.yul\":17095:17115   */\n      tag_305\n      jump\t// in\n    tag_526:\n        /* \"#utility.yul\":17084:17115   */\n      swap1\n      pop\n        /* \"#utility.yul\":17027:17121   */\n      swap2\n      swap1\n      pop\n      jump\t// out\n        /* \"#utility.yul\":17127:17227   */\n    tag_307:\n        /* \"#utility.yul\":17166:17173   */\n      0x00\n        /* \"#utility.yul\":17195:17221   */\n      tag_528\n        /* \"#utility.yul\":17215:17220   */\n      dup3\n        /* \"#utility.yul\":17195:17221   */\n      tag_306\n      jump\t// in\n    tag_528:\n        /* \"#utility.yul\":17184:17221   */\n      swap1\n      pop\n        /* \"#utility.yul\":17127:17227   */\n      swap2\n      swap1\n      pop\n      jump\t// out\n        /* \"#utility.yul\":17233:17390   */\n    tag_308:\n        /* \"#utility.yul\":17338:17383   */\n      tag_530\n        /* \"#utility.yul\":17358:17382   */\n      tag_531\n        /* \"#utility.yul\":17376:17381   */\n      dup3\n        /* \"#utility.yul\":17358:17382   */\n      tag_283\n      jump\t// in\n    tag_531:\n        /* \"#utility.yul\":17338:17383   */\n      tag_307\n      jump\t// in\n    tag_530:\n        /* \"#utility.yul\":17333:17336   */\n      dup3\n        /* \"#utility.yul\":17326:17384   */\n      mstore\n        /* \"#utility.yul\":17233:17390   */\n      pop\n      pop\n      jump\t// out\n        /* \"#utility.yul\":17396:17652   */\n    tag_179:\n        /* \"#utility.yul\":17508:17511   */\n      0x00\n        /* \"#utility.yul\":17523:17598   */\n      tag_533\n        /* \"#utility.yul\":17594:17597   */\n      dup3\n        /* \"#utility.yul\":17585:17591   */\n      dup5\n        /* \"#utility.yul\":17523:17598   */\n      tag_308\n      jump\t// in\n    tag_533:\n        /* \"#utility.yul\":17623:17625   */\n      0x14\n        /* \"#utility.yul\":17618:17621   */\n      dup3\n        /* \"#utility.yul\":17614:17626   */\n      add\n        /* \"#utility.yul\":17607:17626   */\n      swap2\n      pop\n        /* \"#utility.yul\":17643:17646   */\n      dup2\n        /* \"#utility.yul\":17636:17646   */\n      swap1\n      pop\n        /* \"#utility.yul\":17396:17652   */\n      swap3\n      swap2\n      pop\n      pop\n      jump\t// out\n        /* \"#utility.yul\":17658:17798   */\n    tag_309:\n        /* \"#utility.yul\":17706:17710   */\n      0x00\n        /* \"#utility.yul\":17729:17732   */\n      dup2\n        /* \"#utility.yul\":17721:17732   */\n      swap1\n      pop\n        /* \"#utility.yul\":17752:17755   */\n      dup2\n        /* \"#utility.yul\":17749:17750   */\n      0x00\n        /* \"#utility.yul\":17742:17756   */\n      mstore\n        /* \"#utility.yul\":17786:17790   */\n      0x20\n        /* \"#utility.yul\":17783:17784   */\n      0x00\n        /* \"#utility.yul\":17773:17791   */\n      keccak256\n        /* \"#utility.yul\":17765:17791   */\n      swap1\n      pop\n        /* \"#utility.yul\":17658:17798   */\n      swap2\n      swap1\n      pop\n      jump\t// out\n        /* \"#utility.yul\":17804:17897   */\n    tag_310:\n        /* \"#utility.yul\":17841:17847   */\n      0x00\n        /* \"#utility.yul\":17888:17890   */\n      0x20\n        /* \"#utility.yul\":17883:17885   */\n      0x1f\n        /* \"#utility.yul\":17876:17881   */\n      dup4\n        /* \"#utility.yul\":17872:17886   */\n      add\n        /* \"#utility.yul\":17868:17891   */\n      div\n        /* \"#utility.yul\":17858:17891   */\n      swap1\n      pop\n        /* \"#utility.yul\":17804:17897   */\n      swap2\n      swap1\n      pop\n      jump\t// out\n        /* \"#utility.yul\":17903:18010   */\n    tag_311:\n        /* \"#utility.yul\":17947:17955   */\n      0x00\n        /* \"#utility.yul\":17997:18002   */\n      dup3\n        /* \"#utility.yul\":17991:17995   */\n      dup3\n        /* \"#utility.yul\":17987:18003   */\n      shl\n        /* \"#utility.yul\":17966:18003   */\n      swap1\n      pop\n        /* \"#utility.yul\":17903:18010   */\n      swap3\n      swap2\n      pop\n      pop\n      jump\t// out\n        /* \"#utility.yul\":18016:18409   */\n    tag_312:\n        /* \"#utility.yul\":18085:18091   */\n      0x00\n        /* \"#utility.yul\":18135:18136   */\n      0x08\n        /* \"#utility.yul\":18123:18133   */\n      dup4\n        /* \"#utility.yul\":18119:18137   */\n      mul\n        /* \"#utility.yul\":18158:18255   */\n      tag_538\n        /* \"#utility.yul\":18188:18254   */\n      0xffffffffffffffffffffffffffffffffffffffffffffffffffffffffffffffff\n        /* \"#utility.yul\":18177:18186   */\n      dup3\n        /* \"#utility.yul\":18158:18255   */\n      tag_311\n      jump\t// in\n    tag_538:\n        /* \"#utility.yul\":18276:18315   */\n      tag_539\n        /* \"#utility.yul\":18306:18314   */\n      dup7\n        /* \"#utility.yul\":18295:18304   */\n      dup4\n        /* \"#utility.yul\":18276:18315   */\n      tag_311\n      jump\t// in\n    tag_539:\n        /* \"#utility.yul\":18264:18315   */\n      swap6\n      pop\n        /* \"#utility.yul\":18348:18352   */\n      dup1\n        /* \"#utility.yul\":18344:18353   */\n      not\n        /* \"#utility.yul\":18337:18342   */\n      dup5\n        /* \"#utility.yul\":18333:18354   */\n      and\n        /* \"#utility.yul\":18324:18354   */\n      swap4\n      pop\n        /* \"#utility.yul\":18397:18401   */\n      dup1\n        /* \"#utility.yul\":18387:18395   */\n      dup7\n        /* \"#utility.yul\":18383:18402   */\n      and\n        /* \"#utility.yul\":18376:18381   */\n      dup5\n        /* \"#utility.yul\":18373:18403   */\n      or\n        /* \"#utility.yul\":18363:18403   */\n      swap3\n      pop\n        /* \"#utility.yul\":18092:18409   */\n      pop\n      pop\n        /* \"#utility.yul\":18016:18409   */\n      swap4\n      swap3\n      pop\n      pop\n      pop\n      jump\t// out\n        /* \"#utility.yul\":18415:18475   */\n    tag_313:\n        /* \"#utility.yul\":18443:18446   */\n      0x00\n        /* \"#utility.yul\":18464:18469   */\n      dup2\n        /* \"#utility.yul\":18457:18469   */\n      swap1\n      pop\n        /* \"#utility.yul\":18415:18475   */\n      swap2\n      swap1\n      pop\n      jump\t// out\n        /* \"#utility.yul\":18481:18623   */\n    tag_314:\n        /* \"#utility.yul\":18531:18540   */\n      0x00\n        /* \"#utility.yul\":18564:18617   */\n      tag_542\n        /* \"#utility.yul\":18582:18616   */\n      tag_543\n        /* \"#utility.yul\":18591:18615   */\n      tag_544\n        /* \"#utility.yul\":18609:18614   */\n      dup5\n        /* \"#utility.yul\":18591:18615   */\n      tag_279\n      jump\t// in\n    tag_544:\n        /* \"#utility.yul\":18582:18616   */\n      tag_313\n      jump\t// in\n    tag_543:\n        /* \"#utility.yul\":18564:18617   */\n      tag_279\n      jump\t// in\n    tag_542:\n        /* \"#utility.yul\":18551:18617   */\n      swap1\n      pop\n        /* \"#utility.yul\":18481:18623   */\n      swap2\n      swap1\n      pop\n      jump\t// out\n        /* \"#utility.yul\":18629:18704   */\n    tag_315:\n        /* \"#utility.yul\":18672:18675   */\n      0x00\n        /* \"#utility.yul\":18693:18698   */\n      dup2\n        /* \"#utility.yul\":18686:18698   */\n      swap1\n      pop\n        /* \"#utility.yul\":18629:18704   */\n      swap2\n      swap1\n      pop\n      jump\t// out\n        /* \"#utility.yul\":18710:18979   */\n    tag_316:\n        /* \"#utility.yul\":18820:18859   */\n      tag_547\n        /* \"#utility.yul\":18851:18858   */\n      dup4\n        /* \"#utility.yul\":18820:18859   */\n      tag_314\n      jump\t// in\n    tag_547:\n        /* \"#utility.yul\":18881:18972   */\n      tag_548\n        /* \"#utility.yul\":18930:18971   */\n      tag_549\n        /* \"#utility.yul\":18954:18970   */\n      dup3\n        /* \"#utility.yul\":18930:18971   */\n      tag_315\n      jump\t// in\n    tag_549:\n        /* \"#utility.yul\":18922:18928   */\n      dup5\n        /* \"#utility.yul\":18915:18919   */\n      dup5\n        /* \"#utility.yul\":18909:18920   */\n      sload\n        /* \"#utility.yul\":18881:18972   */\n      tag_312\n      jump\t// in\n    tag_548:\n        /* \"#utility.yul\":18875:18879   */\n      dup3\n        /* \"#utility.yul\":18868:18973   */\n      sstore\n        /* \"#utility.yul\":18786:18979   */\n      pop\n        /* \"#utility.yul\":18710:18979   */\n      pop\n      pop\n      pop\n      jump\t// out\n        /* \"#utility.yul\":18985:19058   */\n    tag_317:\n        /* \"#utility.yul\":19030:19033   */\n      0x00\n        /* \"#utility.yul\":18985:19058   */\n      swap1\n      jump\t// out\n        /* \"#utility.yul\":19064:19253   */\n    tag_318:\n        /* \"#utility.yul\":19141:19173   */\n      tag_552\n      tag_317\n      jump\t// in\n    tag_552:\n        /* \"#utility.yul\":19182:19247   */\n      tag_553\n        /* \"#utility.yul\":19240:19246   */\n      dup2\n        /* \"#utility.yul\":19232:19238   */\n      dup5\n        /* \"#utility.yul\":19226:19230   */\n      dup5\n        /* \"#utility.yul\":19182:19247   */\n      tag_316\n      jump\t// in\n    tag_553:\n        /* \"#utility.yul\":19117:19253   */\n      pop\n        /* \"#utility.yul\":19064:19253   */\n      pop\n      pop\n      jump\t// out\n        /* \"#utility.yul\":19259:19445   */\n    tag_319:\n        /* \"#utility.yul\":19319:19439   */\n    tag_555:\n        /* \"#utility.yul\":19336:19339   */\n      dup2\n        /* \"#utility.yul\":19329:19334   */\n      dup2\n        /* \"#utility.yul\":19326:19340   */\n      lt\n        /* \"#utility.yul\":19319:19439   */\n      iszero\n      tag_557\n      jumpi\n        /* \"#utility.yul\":19390:19429   */\n      tag_558\n        /* \"#utility.yul\":19427:19428   */\n      0x00\n        /* \"#utility.yul\":19420:19425   */\n      dup3\n        /* \"#utility.yul\":19390:19429   */\n      tag_318\n      jump\t// in\n    tag_558:\n        /* \"#utility.yul\":19363:19364   */\n      0x01\n        /* \"#utility.yul\":19356:19361   */\n      dup2\n        /* \"#utility.yul\":19352:19365   */\n      add\n        /* \"#utility.yul\":19343:19365   */\n      swap1\n      pop\n        /* \"#utility.yul\":19319:19439   */\n      jump(tag_555)\n    tag_557:\n        /* \"#utility.yul\":19259:19445   */\n      pop\n      pop\n      jump\t// out\n        /* \"#utility.yul\":19451:19992   */\n    tag_320:\n        /* \"#utility.yul\":19551:19553   */\n      0x1f\n        /* \"#utility.yul\":19546:19549   */\n      dup3\n        /* \"#utility.yul\":19543:19554   */\n      gt\n        /* \"#utility.yul\":19540:19985   */\n      iszero\n      tag_560\n      jumpi\n        /* \"#utility.yul\":19585:19622   */\n      tag_561\n        /* \"#utility.yul\":19616:19621   */\n      dup2\n        /* \"#utility.yul\":19585:19622   */\n      tag_309\n      jump\t// in\n    tag_561:\n        /* \"#utility.yul\":19668:19697   */\n      tag_562\n        /* \"#utility.yul\":19686:19696   */\n      dup5\n        /* \"#utility.yul\":19668:19697   */\n      tag_310\n      jump\t// in\n    tag_562:\n        /* \"#utility.yul\":19658:19666   */\n      dup2\n        /* \"#utility.yul\":19654:19698   */\n      add\n        /* \"#utility.yul\":19851:19853   */\n      0x20\n        /* \"#utility.yul\":19839:19849   */\n      dup6\n        /* \"#utility.yul\":19836:19854   */\n      lt\n        /* \"#utility.yul\":19833:19882   */\n      iszero\n      tag_563\n      jumpi\n        /* \"#utility.yul\":19872:19880   */\n      dup2\n        /* \"#utility.yul\":19857:19880   */\n      swap1\n      pop\n        /* \"#utility.yul\":19833:19882   */\n    tag_563:\n        /* \"#utility.yul\":19895:19975   */\n      tag_564\n        /* \"#utility.yul\":19951:19973   */\n      tag_565\n        /* \"#utility.yul\":19969:19972   */\n      dup6\n        /* \"#utility.yul\":19951:19973   */\n      tag_310\n      jump\t// in\n    tag_565:\n        /* \"#utility.yul\":19941:19949   */\n      dup4\n        /* \"#utility.yul\":19937:19974   */\n      add\n        /* \"#utility.yul\":19924:19935   */\n      dup3\n        /* \"#utility.yul\":19895:19975   */\n      tag_319\n      jump\t// in\n    tag_564:\n        /* \"#utility.yul\":19555:19985   */\n      pop\n      pop\n        /* \"#utility.yul\":19540:19985   */\n    tag_560:\n        /* \"#utility.yul\":19451:19992   */\n      pop\n      pop\n      pop\n      jump\t// out\n        /* \"#utility.yul\":19998:20115   */\n    tag_321:\n        /* \"#utility.yul\":20052:20060   */\n      0x00\n        /* \"#utility.yul\":20102:20107   */\n      dup3\n        /* \"#utility.yul\":20096:20100   */\n      dup3\n        /* \"#utility.yul\":20092:20108   */\n      shr\n        /* \"#utility.yul\":20071:20108   */\n      swap1\n      pop\n        /* \"#utility.yul\":19998:20115   */\n      swap3\n      swap2\n      pop\n      pop\n      jump\t// out\n        /* \"#utility.yul\":20121:20290   */\n    tag_322:\n        /* \"#utility.yul\":20165:20171   */\n      0x00\n        /* \"#utility.yul\":20198:20249   */\n      tag_568\n        /* \"#utility.yul\":20246:20247   */\n      0x00\n        /* \"#utility.yul\":20242:20248   */\n      not\n        /* \"#utility.yul\":20234:20239   */\n      dup5\n        /* \"#utility.yul\":20231:20232   */\n      0x08\n        /* \"#utility.yul\":20227:20240   */\n      mul\n        /* \"#utility.yul\":20198:20249   */\n      tag_321\n      jump\t// in\n    tag_568:\n        /* \"#utility.yul\":20194:20250   */\n      not\n        /* \"#utility.yul\":20279:20283   */\n      dup1\n        /* \"#utility.yul\":20273:20277   */\n      dup4\n        /* \"#utility.yul\":20269:20284   */\n      and\n        /* \"#utility.yul\":20259:20284   */\n      swap2\n      pop\n        /* \"#utility.yul\":20172:20290   */\n      pop\n        /* \"#utility.yul\":20121:20290   */\n      swap3\n      swap2\n      pop\n      pop\n      jump\t// out\n        /* \"#utility.yul\":20295:20590   */\n    tag_323:\n        /* \"#utility.yul\":20371:20375   */\n      0x00\n        /* \"#utility.yul\":20517:20546   */\n      tag_570\n        /* \"#utility.yul\":20542:20545   */\n      dup4\n        /* \"#utility.yul\":20536:20540   */\n      dup4\n        /* \"#utility.yul\":20517:20546   */\n      tag_322\n      jump\t// in\n    tag_570:\n        /* \"#utility.yul\":20509:20546   */\n      swap2\n      pop\n        /* \"#utility.yul\":20579:20582   */\n      dup3\n        /* \"#utility.yul\":20576:20577   */\n      0x02\n        /* \"#utility.yul\":20572:20583   */\n      mul\n        /* \"#utility.yul\":20566:20570   */\n      dup3\n        /* \"#utility.yul\":20563:20584   */\n      or\n        /* \"#utility.yul\":20555:20584   */\n      swap1\n      pop\n        /* \"#utility.yul\":20295:20590   */\n      swap3\n      swap2\n      pop\n      pop\n      jump\t// out\n        /* \"#utility.yul\":20595:21985   */\n    tag_251:\n        /* \"#utility.yul\":20710:20746   */\n      tag_572\n        /* \"#utility.yul\":20742:20745   */\n      dup3\n        /* \"#utility.yul\":20710:20746   */\n      tag_275\n      jump\t// in\n    tag_572:\n        /* \"#utility.yul\":20811:20829   */\n      0xffffffffffffffff\n        /* \"#utility.yul\":20803:20809   */\n      dup2\n        /* \"#utility.yul\":20800:20830   */\n      gt\n        /* \"#utility.yul\":20797:20853   */\n      iszero\n      tag_573\n      jumpi\n        /* \"#utility.yul\":20833:20851   */\n      tag_574\n      tag_86\n      jump\t// in\n    tag_574:\n        /* \"#utility.yul\":20797:20853   */\n    tag_573:\n        /* \"#utility.yul\":20877:20915   */\n      tag_575\n        /* \"#utility.yul\":20909:20913   */\n      dup3\n        /* \"#utility.yul\":20903:20914   */\n      sload\n        /* \"#utility.yul\":20877:20915   */\n      tag_113\n      jump\t// in\n    tag_575:\n        /* \"#utility.yul\":20962:21028   */\n      tag_576\n        /* \"#utility.yul\":21021:21027   */\n      dup3\n        /* \"#utility.yul\":21013:21019   */\n      dup3\n        /* \"#utility.yul\":21007:21011   */\n      dup6\n        /* \"#utility.yul\":20962:21028   */\n      tag_320\n      jump\t// in\n    tag_576:\n        /* \"#utility.yul\":21055:21056   */\n      0x00\n        /* \"#utility.yul\":21079:21083   */\n      0x20\n        /* \"#utility.yul\":21066:21083   */\n      swap1\n      pop\n        /* \"#utility.yul\":21111:21113   */\n      0x1f\n        /* \"#utility.yul\":21103:21109   */\n      dup4\n        /* \"#utility.yul\":21100:21114   */\n      gt\n        /* \"#utility.yul\":21128:21129   */\n      0x01\n        /* \"#utility.yul\":21123:21740   */\n      dup2\n      eq\n      tag_578\n      jumpi\n        /* \"#utility.yul\":21784:21785   */\n      0x00\n        /* \"#utility.yul\":21801:21807   */\n      dup5\n        /* \"#utility.yul\":21798:21875   */\n      iszero\n      tag_579\n      jumpi\n        /* \"#utility.yul\":21850:21859   */\n      dup3\n        /* \"#utility.yul\":21845:21848   */\n      dup8\n        /* \"#utility.yul\":21841:21860   */\n      add\n        /* \"#utility.yul\":21835:21861   */\n      mload\n        /* \"#utility.yul\":21826:21861   */\n      swap1\n      pop\n        /* \"#utility.yul\":21798:21875   */\n    tag_579:\n        /* \"#utility.yul\":21901:21968   */\n      tag_580\n        /* \"#utility.yul\":21961:21967   */\n      dup6\n        /* \"#utility.yul\":21954:21959   */\n      dup3\n        /* \"#utility.yul\":21901:21968   */\n      tag_323\n      jump\t// in\n    tag_580:\n        /* \"#utility.yul\":21895:21899   */\n      dup7\n        /* \"#utility.yul\":21888:21969   */\n      sstore\n        /* \"#utility.yul\":21757:21979   */\n      pop\n        /* \"#utility.yul\":21093:21979   */\n      jump(tag_577)\n        /* \"#utility.yul\":21123:21740   */\n    tag_578:\n        /* \"#utility.yul\":21175:21179   */\n      0x1f\n        /* \"#utility.yul\":21171:21180   */\n      not\n        /* \"#utility.yul\":21163:21169   */\n      dup5\n        /* \"#utility.yul\":21159:21181   */\n      and\n        /* \"#utility.yul\":21209:21245   */\n      tag_581\n        /* \"#utility.yul\":21240:21244   */\n      dup7\n        /* \"#utility.yul\":21209:21245   */\n      tag_309\n      jump\t// in\n    tag_581:\n        /* \"#utility.yul\":21267:21268   */\n      0x00\n        /* \"#utility.yul\":21281:21489   */\n    tag_582:\n        /* \"#utility.yul\":21295:21302   */\n      dup3\n        /* \"#utility.yul\":21292:21293   */\n      dup2\n        /* \"#utility.yul\":21289:21303   */\n      lt\n        /* \"#utility.yul\":21281:21489   */\n      iszero\n      tag_584\n      jumpi\n        /* \"#utility.yul\":21374:21383   */\n      dup5\n        /* \"#utility.yul\":21369:21372   */\n      dup10\n        /* \"#utility.yul\":21365:21384   */\n      add\n        /* \"#utility.yul\":21359:21385   */\n      mload\n        /* \"#utility.yul\":21351:21357   */\n      dup3\n        /* \"#utility.yul\":21344:21386   */\n      sstore\n        /* \"#utility.yul\":21425:21426   */\n      0x01\n        /* \"#utility.yul\":21417:21423   */\n      dup3\n        /* \"#utility.yul\":21413:21427   */\n      add\n        /* \"#utility.yul\":21403:21427   */\n      swap2\n      pop\n        /* \"#utility.yul\":21472:21474   */\n      0x20\n        /* \"#utility.yul\":21461:21470   */\n      dup6\n        /* \"#utility.yul\":21457:21475   */\n      add\n        /* \"#utility.yul\":21444:21475   */\n      swap5\n      pop\n        /* \"#utility.yul\":21318:21322   */\n      0x20\n        /* \"#utility.yul\":21315:21316   */\n      dup2\n        /* \"#utility.yul\":21311:21323   */\n      add\n        /* \"#utility.yul\":21306:21323   */\n      swap1\n      pop\n        /* \"#utility.yul\":21281:21489   */\n      jump(tag_582)\n    tag_584:\n        /* \"#utility.yul\":21517:21523   */\n      dup7\n        /* \"#utility.yul\":21508:21515   */\n      dup4\n        /* \"#utility.yul\":21505:21524   */\n      lt\n        /* \"#utility.yul\":21502:21681   */\n      iszero\n      tag_585\n      jumpi\n        /* \"#utility.yul\":21575:21584   */\n      dup5\n        /* \"#utility.yul\":21570:21573   */\n      dup10\n        /* \"#utility.yul\":21566:21585   */\n      add\n        /* \"#utility.yul\":21560:21586   */\n      mload\n        /* \"#utility.yul\":21618:21666   */\n      tag_586\n        /* \"#utility.yul\":21660:21664   */\n      0x1f\n        /* \"#utility.yul\":21652:21658   */\n      dup10\n        /* \"#utility.yul\":21648:21665   */\n      and\n        /* \"#utility.yul\":21637:21646   */\n      dup3\n        /* \"#utility.yul\":21618:21666   */\n      tag_322\n      jump\t// in\n    tag_586:\n        /* \"#utility.yul\":21610:21616   */\n      dup4\n        /* \"#utility.yul\":21603:21667   */\n      sstore\n        /* \"#utility.yul\":21525:21681   */\n      pop\n        /* \"#utility.yul\":21502:21681   */\n    tag_585:\n        /* \"#utility.yul\":21727:21728   */\n      0x01\n        /* \"#utility.yul\":21723:21724   */\n      0x02\n        /* \"#utility.yul\":21715:21721   */\n      dup9\n        /* \"#utility.yul\":21711:21725   */\n      mul\n        /* \"#utility.yul\":21707:21729   */\n      add\n        /* \"#utility.yul\":21701:21705   */\n      dup9\n        /* \"#utility.yul\":21694:21730   */\n      sstore\n        /* \"#utility.yul\":21130:21740   */\n      pop\n      pop\n      pop\n        /* \"#utility.yul\":21093:21979   */\n    tag_577:\n      pop\n        /* \"#utility.yul\":20685:21985   */\n      pop\n      pop\n      pop\n        /* \"#utility.yul\":20595:21985   */\n      pop\n      pop\n      jump\t// out\n\n    auxdata: 0xa26469706673582212207a7a2ca875be1b6d8c99a018abf01be4d7860e9cd13e55cf1b0ec5534553742d64736f6c63430008170033\n}\n",
				"bytecode": {
					"linkReferences": {},
					"object": "60806040525f8055604051620023483803806200234883398181016040528101906200002c91906200033e565b5f815190505f5b81811015620000bc57600160035f8584815181106200005757620000566200038d565b5b602002602001015173ffffffffffffffffffffffffffffffffffffffff1673ffffffffffffffffffffffffffffffffffffffff1681526020019081526020015f205f6101000a81548160ff021916908315150217905550808060010191505062000033565b505f8081905550600160035f3373ffffffffffffffffffffffffffffffffffffffff1673ffffffffffffffffffffffffffffffffffffffff1681526020019081526020015f205f6101000a81548160ff0219169083151502179055503360015f6101000a81548173ffffffffffffffffffffffffffffffffffffffff021916908373ffffffffffffffffffffffffffffffffffffffff1602179055505050620003ba565b5f604051905090565b5f80fd5b5f80fd5b5f80fd5b5f601f19601f8301169050919050565b7f4e487b71000000000000000000000000000000000000000000000000000000005f52604160045260245ffd5b620001bd8262000175565b810181811067ffffffffffffffff82111715620001df57620001de62000185565b5b80604052505050565b5f620001f362000160565b9050620002018282620001b2565b919050565b5f67ffffffffffffffff82111562000223576200022262000185565b5b602082029050602081019050919050565b5f80fd5b5f73ffffffffffffffffffffffffffffffffffffffff82169050919050565b5f620002638262000238565b9050919050565b620002758162000257565b811462000280575f80fd5b50565b5f8151905062000293816200026a565b92915050565b5f620002af620002a98462000206565b620001e8565b90508083825260208201905060208402830185811115620002d557620002d462000234565b5b835b81811015620003025780620002ed888262000283565b845260208401935050602081019050620002d7565b5050509392505050565b5f82601f83011262000323576200032262000171565b5b81516200033584826020860162000299565b91505092915050565b5f6020828403121562000356576200035562000169565b5b5f82015167ffffffffffffffff8111156200037657620003756200016d565b5b62000384848285016200030c565b91505092915050565b7f4e487b71000000000000000000000000000000000000000000000000000000005f52603260045260245ffd5b611f8080620003c85f395ff3fe6080604052600436106100a6575f3560e01c8063856ed09411610063578063856ed094146102145780638da5cb5b14610250578063e802a8501461027a578063e8039e35146102a2578063e9073fc6146102de578063f62aef33146102fa576100a6565b80630cdb0d53146100aa578063210d66f8146100e65780632e559c0d1461012457806334f4f5f114610160578063593b79fe1461019c57806370587c10146101d8575b5f80fd5b3480156100b5575f80fd5b506100d060048036038101906100cb9190611459565b610322565b6040516100dd919061151a565b60405180910390f35b3480156100f1575f80fd5b5061010c6004803603810190610107919061156d565b61051d565b60405161011b939291906115e6565b60405180910390f35b34801561012f575f80fd5b5061014a6004803603810190610145919061156d565b6105e8565b604051610157919061151a565b60405180910390f35b34801561016b575f80fd5b5061018660048036038101906101819190611622565b610645565b604051610193919061151a565b60405180910390f35b3480156101a7575f80fd5b506101c260048036038101906101bd919061168a565b610ae8565b6040516101cf919061151a565b60405180910390f35b3480156101e3575f80fd5b506101fe60048036038101906101f99190611797565b610b11565b60405161020b919061151a565b60405180910390f35b34801561021f575f80fd5b5061023a6004803603810190610235919061168a565b610c82565b604051610247919061180b565b60405180910390f35b34801561025b575f80fd5b50610264610c9f565b6040516102719190611824565b60405180910390f35b348015610285575f80fd5b506102a0600480360381019061029b91906118fd565b610cc4565b005b3480156102ad575f80fd5b506102c860048036038101906102c391906119f3565b610dac565b6040516102d5919061151a565b60405180910390f35b6102f860048036038101906102f39190611459565b6110ad565b005b348015610305575f80fd5b50610320600480360381019061031b91906118fd565b6111c3565b005b60605f600283516103339190611a7a565b67ffffffffffffffff81111561034c5761034b611335565b5b6040519080825280601f01601f19166020018201604052801561037e5781602001600182028036833780820191505090505b5090505f6040518060400160405280601081526020017f303132333435363738396162636465660000000000000000000000000000000081525090505f5b8451811015610512578182518683815181106103db576103da611abb565b5b602001015160f81c60f81b60f81c60ff166103f69190611b15565b8151811061040757610406611abb565b5b602001015160f81c60f81b836002836104209190611a7a565b8151811061043157610430611abb565b5b60200101907effffffffffffffffffffffffffffffffffffffffffffffffffffffffffffff191690815f1a90535081825186838151811061047557610474611abb565b5b602001015160f81c60f81b60f81c60ff166104909190611b45565b815181106104a1576104a0611abb565b5b602001015160f81c60f81b8360016002846104bc9190611a7a565b6104c69190611b75565b815181106104d7576104d6611abb565b5b60200101907effffffffffffffffffffffffffffffffffffffffffffffffffffffffffffff191690815f1a90535080806001019150506103bc565b508192505050919050565b6002602052805f5260405f205f91509050805f01805461053c90611bd5565b80601f016020809104026020016040519081016040528092919081815260200182805461056890611bd5565b80156105b35780601f1061058a576101008083540402835291602001916105b3565b820191905f5260205f20905b81548152906001019060200180831161059657829003601f168201915b505050505090806001015f9054906101000a900473ffffffffffffffffffffffffffffffffffffffff16908060020154905083565b6060602067ffffffffffffffff81111561060557610604611335565b5b6040519080825280601f01601f1916602001820160405280156106375781602001600182028036833780820191505090505b509050816020820152919050565b60605f6008836106559190611b75565b67ffffffffffffffff81111561066e5761066d611335565b5b6040519080825280602002602001820160405280156106a157816020015b606081526020019060019003908161068c5790505b5090505f6040518060400160405280600981526020017f7b22646174613a225b00000000000000000000000000000000000000000000008152508282806106e790611c05565b9350815181106106fa576106f9611abb565b5b60200260200101819052505f805490505f8187876107189190611b75565b111561073157868261072a9190611c4c565b9550600190505b5f8790505b87876107429190611b75565b8110156108b85761087560025f8381526020019081526020015f206040518060600160405290815f8201805461077790611bd5565b80601f01602080910402602001604051908101604052809291908181526020018280546107a390611bd5565b80156107ee5780601f106107c5576101008083540402835291602001916107ee565b820191905f5260205f20905b8154815290600101906020018083116107d157829003601f168201915b50505050508152602001600182015f9054906101000a900473ffffffffffffffffffffffffffffffffffffffff1673ffffffffffffffffffffffffffffffffffffffff1673ffffffffffffffffffffffffffffffffffffffff16815260200160028201548152505060018a8a6108649190611b75565b61086e9190611c4c565b8314610dac565b856001836108839190611b75565b8151811061089457610893611abb565b5b6020026020010181905250836108a990611c05565b93508080600101915050610736565b506040518060400160405280600a81526020017f5d2c226973456e643a22000000000000000000000000000000000000000000008152508484806108fb90611c05565b95508151811061090e5761090d611abb565b5b6020026020010181905250610922816105e8565b84848061092e90611c05565b95508151811061094157610940611abb565b5b60200260200101819052506040518060400160405280600a81526020017f2c226f6666736574223a0000000000000000000000000000000000000000000081525084848061098e90611c05565b9550815181106109a1576109a0611abb565b5b60200260200101819052506109b5876105e8565b8484806109c190611c05565b9550815181106109d4576109d3611abb565b5b60200260200101819052506040518060400160405280600981526020017f2c226c696d6974223a0000000000000000000000000000000000000000000000815250848480610a2190611c05565b955081518110610a3457610a33611abb565b5b6020026020010181905250610a48866105e8565b848480610a5490611c05565b955081518110610a6757610a66611abb565b5b60200260200101819052506040518060400160405280600181526020017f7d00000000000000000000000000000000000000000000000000000000000000815250848480610ab490611c05565b955081518110610ac757610ac6611abb565b5b6020026020010181905250610adc8484610b11565b94505050505092915050565b606081604051602001610afb9190611cc4565b6040516020818303038152906040529050919050565b60605f805b83811015610b5457848181518110610b3157610b30611abb565b5b60200260200101515182610b459190611b75565b91508080600101915050610b16565b505f8167ffffffffffffffff811115610b7057610b6f611335565b5b6040519080825280601f01601f191660200182016040528015610ba25781602001600182028036833780820191505090505b5090505f805b85811015610c75575f5b878281518110610bc557610bc4611abb565b5b602002602001015151811015610c6757878281518110610be857610be7611abb565b5b60200260200101518181518110610c0257610c01611abb565b5b602001015160f81c60f81b848480610c1990611c05565b955081518110610c2c57610c2b611abb565b5b60200101907effffffffffffffffffffffffffffffffffffffffffffffffffffffffffffff191690815f1a9053508080600101915050610bb2565b508080600101915050610ba8565b5081935050505092915050565b6003602052805f5260405f205f915054906101000a900460ff1681565b60015f9054906101000a900473ffffffffffffffffffffffffffffffffffffffff1681565b3373ffffffffffffffffffffffffffffffffffffffff1660015f9054906101000a900473ffffffffffffffffffffffffffffffffffffffff1673ffffffffffffffffffffffffffffffffffffffff1614610d1c575f80fd5b5f815190505f5b81811015610da757600160035f858481518110610d4357610d42611abb565b5b602002602001015173ffffffffffffffffffffffffffffffffffffffff1673ffffffffffffffffffffffffffffffffffffffff1681526020019081526020015f205f6101000a81548160ff0219169083151502179055508080600101915050610d23565b505050565b60605f606467ffffffffffffffff811115610dca57610dc9611335565b5b604051908082528060200260200182016040528015610dfd57816020015b6060815260200190600190039081610de85790505b5090505f6040518060400160405280600c81526020017f7b2261757468496e666f223a0000000000000000000000000000000000000000815250828280610e4390611c05565b935081518110610e5657610e55611abb565b5b6020026020010181905250845f0151828280610e7190611c05565b935081518110610e8457610e83611abb565b5b60200260200101819052506040518060400160405280600b81526020017f2c22617574686f72223a22000000000000000000000000000000000000000000815250828280610ed190611c05565b935081518110610ee457610ee3611abb565b5b6020026020010181905250610f04610eff8660200151610ae8565b610322565b828280610f1090611c05565b935081518110610f2357610f22611abb565b5b60200260200101819052506040518060400160405280600881526020017f222c226964223a22000000000000000000000000000000000000000000000000815250828280610f7090611c05565b935081518110610f8357610f82611abb565b5b6020026020010181905250610fa3610f9e86604001516105e8565b610322565b828280610faf90611c05565b935081518110610fc257610fc1611abb565b5b60200260200101819052508315611038576040518060400160405280600281526020017f227d00000000000000000000000000000000000000000000000000000000000081525082828061101590611c05565b93508151811061102857611027611abb565b5b6020026020010181905250611099565b6040518060400160405280600381526020017f227d2c000000000000000000000000000000000000000000000000000000000081525082828061107a90611c05565b93508151811061108d5761108c611abb565b5b60200260200101819052505b6110a38282610b11565b9250505092915050565b60035f3373ffffffffffffffffffffffffffffffffffffffff1673ffffffffffffffffffffffffffffffffffffffff1681526020019081526020015f205f9054906101000a900460ff166110ff575f80fd5b60405180606001604052808281526020013373ffffffffffffffffffffffffffffffffffffffff1681526020015f5481525060025f805481526020019081526020015f205f820151815f0190816111569190611e7b565b506020820151816001015f6101000a81548173ffffffffffffffffffffffffffffffffffffffff021916908373ffffffffffffffffffffffffffffffffffffffff160217905550604082015181600201559050505f808154809291906111bb90611c05565b919050555050565b3373ffffffffffffffffffffffffffffffffffffffff1660015f9054906101000a900473ffffffffffffffffffffffffffffffffffffffff1673ffffffffffffffffffffffffffffffffffffffff161461121b575f80fd5b5f815190505f5b818110156113075760035f8483815181106112405761123f611abb565b5b602002602001015173ffffffffffffffffffffffffffffffffffffffff1673ffffffffffffffffffffffffffffffffffffffff1681526020019081526020015f205f9054906101000a900460ff16156112fa5760035f8483815181106112a9576112a8611abb565b5b602002602001015173ffffffffffffffffffffffffffffffffffffffff1673ffffffffffffffffffffffffffffffffffffffff1681526020019081526020015f205f6101000a81549060ff02191690555b8080600101915050611222565b505050565b5f604051905090565b5f80fd5b5f80fd5b5f80fd5b5f80fd5b5f601f19601f8301169050919050565b7f4e487b71000000000000000000000000000000000000000000000000000000005f52604160045260245ffd5b61136b82611325565b810181811067ffffffffffffffff8211171561138a57611389611335565b5b80604052505050565b5f61139c61130c565b90506113a88282611362565b919050565b5f67ffffffffffffffff8211156113c7576113c6611335565b5b6113d082611325565b9050602081019050919050565b828183375f83830152505050565b5f6113fd6113f8846113ad565b611393565b90508281526020810184848401111561141957611418611321565b5b6114248482856113dd565b509392505050565b5f82601f8301126114405761143f61131d565b5b81356114508482602086016113eb565b91505092915050565b5f6020828403121561146e5761146d611315565b5b5f82013567ffffffffffffffff81111561148b5761148a611319565b5b6114978482850161142c565b91505092915050565b5f81519050919050565b5f82825260208201905092915050565b5f5b838110156114d75780820151818401526020810190506114bc565b5f8484015250505050565b5f6114ec826114a0565b6114f681856114aa565b93506115068185602086016114ba565b61150f81611325565b840191505092915050565b5f6020820190508181035f83015261153281846114e2565b905092915050565b5f819050919050565b61154c8161153a565b8114611556575f80fd5b50565b5f8135905061156781611543565b92915050565b5f6020828403121561158257611581611315565b5b5f61158f84828501611559565b91505092915050565b5f73ffffffffffffffffffffffffffffffffffffffff82169050919050565b5f6115c182611598565b9050919050565b6115d1816115b7565b82525050565b6115e08161153a565b82525050565b5f6060820190508181035f8301526115fe81866114e2565b905061160d60208301856115c8565b61161a60408301846115d7565b949350505050565b5f806040838503121561163857611637611315565b5b5f61164585828601611559565b925050602061165685828601611559565b9150509250929050565b611669816115b7565b8114611673575f80fd5b50565b5f8135905061168481611660565b92915050565b5f6020828403121561169f5761169e611315565b5b5f6116ac84828501611676565b91505092915050565b5f67ffffffffffffffff8211156116cf576116ce611335565b5b602082029050602081019050919050565b5f80fd5b5f6116f66116f1846116b5565b611393565b90508083825260208201905060208402830185811115611719576117186116e0565b5b835b8181101561176057803567ffffffffffffffff81111561173e5761173d61131d565b5b80860161174b898261142c565b8552602085019450505060208101905061171b565b5050509392505050565b5f82601f83011261177e5761177d61131d565b5b813561178e8482602086016116e4565b91505092915050565b5f80604083850312156117ad576117ac611315565b5b5f83013567ffffffffffffffff8111156117ca576117c9611319565b5b6117d68582860161176a565b92505060206117e785828601611559565b9150509250929050565b5f8115159050919050565b611805816117f1565b82525050565b5f60208201905061181e5f8301846117fc565b92915050565b5f6020820190506118375f8301846115c8565b92915050565b5f67ffffffffffffffff82111561185757611856611335565b5b602082029050602081019050919050565b5f61187a6118758461183d565b611393565b9050808382526020820190506020840283018581111561189d5761189c6116e0565b5b835b818110156118c657806118b28882611676565b84526020840193505060208101905061189f565b5050509392505050565b5f82601f8301126118e4576118e361131d565b5b81356118f4848260208601611868565b91505092915050565b5f6020828403121561191257611911611315565b5b5f82013567ffffffffffffffff81111561192f5761192e611319565b5b61193b848285016118d0565b91505092915050565b5f80fd5b5f80fd5b5f6060828403121561196157611960611944565b5b61196b6060611393565b90505f82013567ffffffffffffffff81111561198a57611989611948565b5b6119968482850161142c565b5f8301525060206119a984828501611676565b60208301525060406119bd84828501611559565b60408301525092915050565b6119d2816117f1565b81146119dc575f80fd5b50565b5f813590506119ed816119c9565b92915050565b5f8060408385031215611a0957611a08611315565b5b5f83013567ffffffffffffffff811115611a2657611a25611319565b5b611a328582860161194c565b9250506020611a43858286016119df565b9150509250929050565b7f4e487b71000000000000000000000000000000000000000000000000000000005f52601160045260245ffd5b5f611a848261153a565b9150611a8f8361153a565b9250828202611a9d8161153a565b91508282048414831517611ab457611ab3611a4d565b5b5092915050565b7f4e487b71000000000000000000000000000000000000000000000000000000005f52603260045260245ffd5b7f4e487b71000000000000000000000000000000000000000000000000000000005f52601260045260245ffd5b5f611b1f8261153a565b9150611b2a8361153a565b925082611b3a57611b39611ae8565b5b828204905092915050565b5f611b4f8261153a565b9150611b5a8361153a565b925082611b6a57611b69611ae8565b5b828206905092915050565b5f611b7f8261153a565b9150611b8a8361153a565b9250828201905080821115611ba257611ba1611a4d565b5b92915050565b7f4e487b71000000000000000000000000000000000000000000000000000000005f52602260045260245ffd5b5f6002820490506001821680611bec57607f821691505b602082108103611bff57611bfe611ba8565b5b50919050565b5f611c0f8261153a565b91507fffffffffffffffffffffffffffffffffffffffffffffffffffffffffffffffff8203611c4157611c40611a4d565b5b600182019050919050565b5f611c568261153a565b9150611c618361153a565b9250828203905081811115611c7957611c78611a4d565b5b92915050565b5f8160601b9050919050565b5f611c9582611c7f565b9050919050565b5f611ca682611c8b565b9050919050565b611cbe611cb9826115b7565b611c9c565b82525050565b5f611ccf8284611cad565b60148201915081905092915050565b5f819050815f5260205f209050919050565b5f6020601f8301049050919050565b5f82821b905092915050565b5f60088302611d3a7fffffffffffffffffffffffffffffffffffffffffffffffffffffffffffffffff82611cff565b611d448683611cff565b95508019841693508086168417925050509392505050565b5f819050919050565b5f611d7f611d7a611d758461153a565b611d5c565b61153a565b9050919050565b5f819050919050565b611d9883611d65565b611dac611da482611d86565b848454611d0b565b825550505050565b5f90565b611dc0611db4565b611dcb818484611d8f565b505050565b5b81811015611dee57611de35f82611db8565b600181019050611dd1565b5050565b601f821115611e3357611e0481611cde565b611e0d84611cf0565b81016020851015611e1c578190505b611e30611e2885611cf0565b830182611dd0565b50505b505050565b5f82821c905092915050565b5f611e535f1984600802611e38565b1980831691505092915050565b5f611e6b8383611e44565b9150826002028217905092915050565b611e84826114a0565b67ffffffffffffffff811115611e9d57611e9c611335565b5b611ea78254611bd5565b611eb2828285611df2565b5f60209050601f831160018114611ee3575f8415611ed1578287015190505b611edb8582611e60565b865550611f42565b601f198416611ef186611cde565b5f5b82811015611f1857848901518255600182019150602085019450602081019050611ef3565b86831015611f355784890151611f31601f891682611e44565b8355505b6001600288020188555050505b50505050505056fea26469706673582212207a7a2ca875be1b6d8c99a018abf01be4d7860e9cd13e55cf1b0ec5534553742d64736f6c63430008170033",
					"opcodes": "PUSH1 0x80 PUSH1 0x40 MSTORE PUSH0 DUP1 SSTORE PUSH1 0x40 MLOAD PUSH3 0x2348 CODESIZE SUB DUP1 PUSH3 0x2348 DUP4 CODECOPY DUP2 DUP2 ADD PUSH1 0x40 MSTORE DUP2 ADD SWAP1 PUSH3 0x2C SWAP2 SWAP1 PUSH3 0x33E JUMP JUMPDEST PUSH0 DUP2 MLOAD SWAP1 POP PUSH0 JUMPDEST DUP2 DUP2 LT ISZERO PUSH3 0xBC JUMPI PUSH1 0x1 PUSH1 0x3 PUSH0 DUP6 DUP5 DUP2 MLOAD DUP2 LT PUSH3 0x57 JUMPI PUSH3 0x56 PUSH3 0x38D JUMP JUMPDEST JUMPDEST PUSH1 0x20 MUL PUSH1 0x20 ADD ADD MLOAD PUSH20 0xFFFFFFFFFFFFFFFFFFFFFFFFFFFFFFFFFFFFFFFF AND PUSH20 0xFFFFFFFFFFFFFFFFFFFFFFFFFFFFFFFFFFFFFFFF AND DUP2 MSTORE PUSH1 0x20 ADD SWAP1 DUP2 MSTORE PUSH1 0x20 ADD PUSH0 KECCAK256 PUSH0 PUSH2 0x100 EXP DUP2 SLOAD DUP2 PUSH1 0xFF MUL NOT AND SWAP1 DUP4 ISZERO ISZERO MUL OR SWAP1 SSTORE POP DUP1 DUP1 PUSH1 0x1 ADD SWAP2 POP POP PUSH3 0x33 JUMP JUMPDEST POP PUSH0 DUP1 DUP2 SWAP1 SSTORE POP PUSH1 0x1 PUSH1 0x3 PUSH0 CALLER PUSH20 0xFFFFFFFFFFFFFFFFFFFFFFFFFFFFFFFFFFFFFFFF AND PUSH20 0xFFFFFFFFFFFFFFFFFFFFFFFFFFFFFFFFFFFFFFFF AND DUP2 MSTORE PUSH1 0x20 ADD SWAP1 DUP2 MSTORE PUSH1 0x20 ADD PUSH0 KECCAK256 PUSH0 PUSH2 0x100 EXP DUP2 SLOAD DUP2 PUSH1 0xFF MUL NOT AND SWAP1 DUP4 ISZERO ISZERO MUL OR SWAP1 SSTORE POP CALLER PUSH1 0x1 PUSH0 PUSH2 0x100 EXP DUP2 SLOAD DUP2 PUSH20 0xFFFFFFFFFFFFFFFFFFFFFFFFFFFFFFFFFFFFFFFF MUL NOT AND SWAP1 DUP4 PUSH20 0xFFFFFFFFFFFFFFFFFFFFFFFFFFFFFFFFFFFFFFFF AND MUL OR SWAP1 SSTORE POP POP POP PUSH3 0x3BA JUMP JUMPDEST PUSH0 PUSH1 0x40 MLOAD SWAP1 POP SWAP1 JUMP JUMPDEST PUSH0 DUP1 REVERT JUMPDEST PUSH0 DUP1 REVERT JUMPDEST PUSH0 DUP1 REVERT JUMPDEST PUSH0 PUSH1 0x1F NOT PUSH1 0x1F DUP4 ADD AND SWAP1 POP SWAP2 SWAP1 POP JUMP JUMPDEST PUSH32 0x4E487B7100000000000000000000000000000000000000000000000000000000 PUSH0 MSTORE PUSH1 0x41 PUSH1 0x4 MSTORE PUSH1 0x24 PUSH0 REVERT JUMPDEST PUSH3 0x1BD DUP3 PUSH3 0x175 JUMP JUMPDEST DUP2 ADD DUP2 DUP2 LT PUSH8 0xFFFFFFFFFFFFFFFF DUP3 GT OR ISZERO PUSH3 0x1DF JUMPI PUSH3 0x1DE PUSH3 0x185 JUMP JUMPDEST JUMPDEST DUP1 PUSH1 0x40 MSTORE POP POP POP JUMP JUMPDEST PUSH0 PUSH3 0x1F3 PUSH3 0x160 JUMP JUMPDEST SWAP1 POP PUSH3 0x201 DUP3 DUP3 PUSH3 0x1B2 JUMP JUMPDEST SWAP2 SWAP1 POP JUMP JUMPDEST PUSH0 PUSH8 0xFFFFFFFFFFFFFFFF DUP3 GT ISZERO PUSH3 0x223 JUMPI PUSH3 0x222 PUSH3 0x185 JUMP JUMPDEST JUMPDEST PUSH1 0x20 DUP3 MUL SWAP1 POP PUSH1 0x20 DUP2 ADD SWAP1 POP SWAP2 SWAP1 POP JUMP JUMPDEST PUSH0 DUP1 REVERT JUMPDEST PUSH0 PUSH20 0xFFFFFFFFFFFFFFFFFFFFFFFFFFFFFFFFFFFFFFFF DUP3 AND SWAP1 POP SWAP2 SWAP1 POP JUMP JUMPDEST PUSH0 PUSH3 0x263 DUP3 PUSH3 0x238 JUMP JUMPDEST SWAP1 POP SWAP2 SWAP1 POP JUMP JUMPDEST PUSH3 0x275 DUP2 PUSH3 0x257 JUMP JUMPDEST DUP2 EQ PUSH3 0x280 JUMPI PUSH0 DUP1 REVERT JUMPDEST POP JUMP JUMPDEST PUSH0 DUP2 MLOAD SWAP1 POP PUSH3 0x293 DUP2 PUSH3 0x26A JUMP JUMPDEST SWAP3 SWAP2 POP POP JUMP JUMPDEST PUSH0 PUSH3 0x2AF PUSH3 0x2A9 DUP5 PUSH3 0x206 JUMP JUMPDEST PUSH3 0x1E8 JUMP JUMPDEST SWAP1 POP DUP1 DUP4 DUP3 MSTORE PUSH1 0x20 DUP3 ADD SWAP1 POP PUSH1 0x20 DUP5 MUL DUP4 ADD DUP6 DUP2 GT ISZERO PUSH3 0x2D5 JUMPI PUSH3 0x2D4 PUSH3 0x234 JUMP JUMPDEST JUMPDEST DUP4 JUMPDEST DUP2 DUP2 LT ISZERO PUSH3 0x302 JUMPI DUP1 PUSH3 0x2ED DUP9 DUP3 PUSH3 0x283 JUMP JUMPDEST DUP5 MSTORE PUSH1 0x20 DUP5 ADD SWAP4 POP POP PUSH1 0x20 DUP2 ADD SWAP1 POP PUSH3 0x2D7 JUMP JUMPDEST POP POP POP SWAP4 SWAP3 POP POP POP JUMP JUMPDEST PUSH0 DUP3 PUSH1 0x1F DUP4 ADD SLT PUSH3 0x323 JUMPI PUSH3 0x322 PUSH3 0x171 JUMP JUMPDEST JUMPDEST DUP2 MLOAD PUSH3 0x335 DUP5 DUP3 PUSH1 0x20 DUP7 ADD PUSH3 0x299 JUMP JUMPDEST SWAP2 POP POP SWAP3 SWAP2 POP POP JUMP JUMPDEST PUSH0 PUSH1 0x20 DUP3 DUP5 SUB SLT ISZERO PUSH3 0x356 JUMPI PUSH3 0x355 PUSH3 0x169 JUMP JUMPDEST JUMPDEST PUSH0 DUP3 ADD MLOAD PUSH8 0xFFFFFFFFFFFFFFFF DUP2 GT ISZERO PUSH3 0x376 JUMPI PUSH3 0x375 PUSH3 0x16D JUMP JUMPDEST JUMPDEST PUSH3 0x384 DUP5 DUP3 DUP6 ADD PUSH3 0x30C JUMP JUMPDEST SWAP2 POP POP SWAP3 SWAP2 POP POP JUMP JUMPDEST PUSH32 0x4E487B7100000000000000000000000000000000000000000000000000000000 PUSH0 MSTORE PUSH1 0x32 PUSH1 0x4 MSTORE PUSH1 0x24 PUSH0 REVERT JUMPDEST PUSH2 0x1F80 DUP1 PUSH3 0x3C8 PUSH0 CODECOPY PUSH0 RETURN INVALID PUSH1 0x80 PUSH1 0x40 MSTORE PUSH1 0x4 CALLDATASIZE LT PUSH2 0xA6 JUMPI PUSH0 CALLDATALOAD PUSH1 0xE0 SHR DUP1 PUSH4 0x856ED094 GT PUSH2 0x63 JUMPI DUP1 PUSH4 0x856ED094 EQ PUSH2 0x214 JUMPI DUP1 PUSH4 0x8DA5CB5B EQ PUSH2 0x250 JUMPI DUP1 PUSH4 0xE802A850 EQ PUSH2 0x27A JUMPI DUP1 PUSH4 0xE8039E35 EQ PUSH2 0x2A2 JUMPI DUP1 PUSH4 0xE9073FC6 EQ PUSH2 0x2DE JUMPI DUP1 PUSH4 0xF62AEF33 EQ PUSH2 0x2FA JUMPI PUSH2 0xA6 JUMP JUMPDEST DUP1 PUSH4 0xCDB0D53 EQ PUSH2 0xAA JUMPI DUP1 PUSH4 0x210D66F8 EQ PUSH2 0xE6 JUMPI DUP1 PUSH4 0x2E559C0D EQ PUSH2 0x124 JUMPI DUP1 PUSH4 0x34F4F5F1 EQ PUSH2 0x160 JUMPI DUP1 PUSH4 0x593B79FE EQ PUSH2 0x19C JUMPI DUP1 PUSH4 0x70587C10 EQ PUSH2 0x1D8 JUMPI JUMPDEST PUSH0 DUP1 REVERT JUMPDEST CALLVALUE DUP1 ISZERO PUSH2 0xB5 JUMPI PUSH0 DUP1 REVERT JUMPDEST POP PUSH2 0xD0 PUSH1 0x4 DUP1 CALLDATASIZE SUB DUP2 ADD SWAP1 PUSH2 0xCB SWAP2 SWAP1 PUSH2 0x1459 JUMP JUMPDEST PUSH2 0x322 JUMP JUMPDEST PUSH1 0x40 MLOAD PUSH2 0xDD SWAP2 SWAP1 PUSH2 0x151A JUMP JUMPDEST PUSH1 0x40 MLOAD DUP1 SWAP2 SUB SWAP1 RETURN JUMPDEST CALLVALUE DUP1 ISZERO PUSH2 0xF1 JUMPI PUSH0 DUP1 REVERT JUMPDEST POP PUSH2 0x10C PUSH1 0x4 DUP1 CALLDATASIZE SUB DUP2 ADD SWAP1 PUSH2 0x107 SWAP2 SWAP1 PUSH2 0x156D JUMP JUMPDEST PUSH2 0x51D JUMP JUMPDEST PUSH1 0x40 MLOAD PUSH2 0x11B SWAP4 SWAP3 SWAP2 SWAP1 PUSH2 0x15E6 JUMP JUMPDEST PUSH1 0x40 MLOAD DUP1 SWAP2 SUB SWAP1 RETURN JUMPDEST CALLVALUE DUP1 ISZERO PUSH2 0x12F JUMPI PUSH0 DUP1 REVERT JUMPDEST POP PUSH2 0x14A PUSH1 0x4 DUP1 CALLDATASIZE SUB DUP2 ADD SWAP1 PUSH2 0x145 SWAP2 SWAP1 PUSH2 0x156D JUMP JUMPDEST PUSH2 0x5E8 JUMP JUMPDEST PUSH1 0x40 MLOAD PUSH2 0x157 SWAP2 SWAP1 PUSH2 0x151A JUMP JUMPDEST PUSH1 0x40 MLOAD DUP1 SWAP2 SUB SWAP1 RETURN JUMPDEST CALLVALUE DUP1 ISZERO PUSH2 0x16B JUMPI PUSH0 DUP1 REVERT JUMPDEST POP PUSH2 0x186 PUSH1 0x4 DUP1 CALLDATASIZE SUB DUP2 ADD SWAP1 PUSH2 0x181 SWAP2 SWAP1 PUSH2 0x1622 JUMP JUMPDEST PUSH2 0x645 JUMP JUMPDEST PUSH1 0x40 MLOAD PUSH2 0x193 SWAP2 SWAP1 PUSH2 0x151A JUMP JUMPDEST PUSH1 0x40 MLOAD DUP1 SWAP2 SUB SWAP1 RETURN JUMPDEST CALLVALUE DUP1 ISZERO PUSH2 0x1A7 JUMPI PUSH0 DUP1 REVERT JUMPDEST POP PUSH2 0x1C2 PUSH1 0x4 DUP1 CALLDATASIZE SUB DUP2 ADD SWAP1 PUSH2 0x1BD SWAP2 SWAP1 PUSH2 0x168A JUMP JUMPDEST PUSH2 0xAE8 JUMP JUMPDEST PUSH1 0x40 MLOAD PUSH2 0x1CF SWAP2 SWAP1 PUSH2 0x151A JUMP JUMPDEST PUSH1 0x40 MLOAD DUP1 SWAP2 SUB SWAP1 RETURN JUMPDEST CALLVALUE DUP1 ISZERO PUSH2 0x1E3 JUMPI PUSH0 DUP1 REVERT JUMPDEST POP PUSH2 0x1FE PUSH1 0x4 DUP1 CALLDATASIZE SUB DUP2 ADD SWAP1 PUSH2 0x1F9 SWAP2 SWAP1 PUSH2 0x1797 JUMP JUMPDEST PUSH2 0xB11 JUMP JUMPDEST PUSH1 0x40 MLOAD PUSH2 0x20B SWAP2 SWAP1 PUSH2 0x151A JUMP JUMPDEST PUSH1 0x40 MLOAD DUP1 SWAP2 SUB SWAP1 RETURN JUMPDEST CALLVALUE DUP1 ISZERO PUSH2 0x21F JUMPI PUSH0 DUP1 REVERT JUMPDEST POP PUSH2 0x23A PUSH1 0x4 DUP1 CALLDATASIZE SUB DUP2 ADD SWAP1 PUSH2 0x235 SWAP2 SWAP1 PUSH2 0x168A JUMP JUMPDEST PUSH2 0xC82 JUMP JUMPDEST PUSH1 0x40 MLOAD PUSH2 0x247 SWAP2 SWAP1 PUSH2 0x180B JUMP JUMPDEST PUSH1 0x40 MLOAD DUP1 SWAP2 SUB SWAP1 RETURN JUMPDEST CALLVALUE DUP1 ISZERO PUSH2 0x25B JUMPI PUSH0 DUP1 REVERT JUMPDEST POP PUSH2 0x264 PUSH2 0xC9F JUMP JUMPDEST PUSH1 0x40 MLOAD PUSH2 0x271 SWAP2 SWAP1 PUSH2 0x1824 JUMP JUMPDEST PUSH1 0x40 MLOAD DUP1 SWAP2 SUB SWAP1 RETURN JUMPDEST CALLVALUE DUP1 ISZERO PUSH2 0x285 JUMPI PUSH0 DUP1 REVERT JUMPDEST POP PUSH2 0x2A0 PUSH1 0x4 DUP1 CALLDATASIZE SUB DUP2 ADD SWAP1 PUSH2 0x29B SWAP2 SWAP1 PUSH2 0x18FD JUMP JUMPDEST PUSH2 0xCC4 JUMP JUMPDEST STOP JUMPDEST CALLVALUE DUP1 ISZERO PUSH2 0x2AD JUMPI PUSH0 DUP1 REVERT JUMPDEST POP PUSH2 0x2C8 PUSH1 0x4 DUP1 CALLDATASIZE SUB DUP2 ADD SWAP1 PUSH2 0x2C3 SWAP2 SWAP1 PUSH2 0x19F3 JUMP JUMPDEST PUSH2 0xDAC JUMP JUMPDEST PUSH1 0x40 MLOAD PUSH2 0x2D5 SWAP2 SWAP1 PUSH2 0x151A JUMP JUMPDEST PUSH1 0x40 MLOAD DUP1 SWAP2 SUB SWAP1 RETURN JUMPDEST PUSH2 0x2F8 PUSH1 0x4 DUP1 CALLDATASIZE SUB DUP2 ADD SWAP1 PUSH2 0x2F3 SWAP2 SWAP1 PUSH2 0x1459 JUMP JUMPDEST PUSH2 0x10AD JUMP JUMPDEST STOP JUMPDEST CALLVALUE DUP1 ISZERO PUSH2 0x305 JUMPI PUSH0 DUP1 REVERT JUMPDEST POP PUSH2 0x320 PUSH1 0x4 DUP1 CALLDATASIZE SUB DUP2 ADD SWAP1 PUSH2 0x31B SWAP2 SWAP1 PUSH2 0x18FD JUMP JUMPDEST PUSH2 0x11C3 JUMP JUMPDEST STOP JUMPDEST PUSH1 0x60 PUSH0 PUSH1 0x2 DUP4 MLOAD PUSH2 0x333 SWAP2 SWAP1 PUSH2 0x1A7A JUMP JUMPDEST PUSH8 0xFFFFFFFFFFFFFFFF DUP2 GT ISZERO PUSH2 0x34C JUMPI PUSH2 0x34B PUSH2 0x1335 JUMP JUMPDEST JUMPDEST PUSH1 0x40 MLOAD SWAP1 DUP1 DUP3 MSTORE DUP1 PUSH1 0x1F ADD PUSH1 0x1F NOT AND PUSH1 0x20 ADD DUP3 ADD PUSH1 0x40 MSTORE DUP1 ISZERO PUSH2 0x37E JUMPI DUP2 PUSH1 0x20 ADD PUSH1 0x1 DUP3 MUL DUP1 CALLDATASIZE DUP4 CALLDATACOPY DUP1 DUP3 ADD SWAP2 POP POP SWAP1 POP JUMPDEST POP SWAP1 POP PUSH0 PUSH1 0x40 MLOAD DUP1 PUSH1 0x40 ADD PUSH1 0x40 MSTORE DUP1 PUSH1 0x10 DUP2 MSTORE PUSH1 0x20 ADD PUSH32 0x3031323334353637383961626364656600000000000000000000000000000000 DUP2 MSTORE POP SWAP1 POP PUSH0 JUMPDEST DUP5 MLOAD DUP2 LT ISZERO PUSH2 0x512 JUMPI DUP2 DUP3 MLOAD DUP7 DUP4 DUP2 MLOAD DUP2 LT PUSH2 0x3DB JUMPI PUSH2 0x3DA PUSH2 0x1ABB JUMP JUMPDEST JUMPDEST PUSH1 0x20 ADD ADD MLOAD PUSH1 0xF8 SHR PUSH1 0xF8 SHL PUSH1 0xF8 SHR PUSH1 0xFF AND PUSH2 0x3F6 SWAP2 SWAP1 PUSH2 0x1B15 JUMP JUMPDEST DUP2 MLOAD DUP2 LT PUSH2 0x407 JUMPI PUSH2 0x406 PUSH2 0x1ABB JUMP JUMPDEST JUMPDEST PUSH1 0x20 ADD ADD MLOAD PUSH1 0xF8 SHR PUSH1 0xF8 SHL DUP4 PUSH1 0x2 DUP4 PUSH2 0x420 SWAP2 SWAP1 PUSH2 0x1A7A JUMP JUMPDEST DUP2 MLOAD DUP2 LT PUSH2 0x431 JUMPI PUSH2 0x430 PUSH2 0x1ABB JUMP JUMPDEST JUMPDEST PUSH1 0x20 ADD ADD SWAP1 PUSH31 0xFFFFFFFFFFFFFFFFFFFFFFFFFFFFFFFFFFFFFFFFFFFFFFFFFFFFFFFFFFFFFF NOT AND SWAP1 DUP2 PUSH0 BYTE SWAP1 MSTORE8 POP DUP2 DUP3 MLOAD DUP7 DUP4 DUP2 MLOAD DUP2 LT PUSH2 0x475 JUMPI PUSH2 0x474 PUSH2 0x1ABB JUMP JUMPDEST JUMPDEST PUSH1 0x20 ADD ADD MLOAD PUSH1 0xF8 SHR PUSH1 0xF8 SHL PUSH1 0xF8 SHR PUSH1 0xFF AND PUSH2 0x490 SWAP2 SWAP1 PUSH2 0x1B45 JUMP JUMPDEST DUP2 MLOAD DUP2 LT PUSH2 0x4A1 JUMPI PUSH2 0x4A0 PUSH2 0x1ABB JUMP JUMPDEST JUMPDEST PUSH1 0x20 ADD ADD MLOAD PUSH1 0xF8 SHR PUSH1 0xF8 SHL DUP4 PUSH1 0x1 PUSH1 0x2 DUP5 PUSH2 0x4BC SWAP2 SWAP1 PUSH2 0x1A7A JUMP JUMPDEST PUSH2 0x4C6 SWAP2 SWAP1 PUSH2 0x1B75 JUMP JUMPDEST DUP2 MLOAD DUP2 LT PUSH2 0x4D7 JUMPI PUSH2 0x4D6 PUSH2 0x1ABB JUMP JUMPDEST JUMPDEST PUSH1 0x20 ADD ADD SWAP1 PUSH31 0xFFFFFFFFFFFFFFFFFFFFFFFFFFFFFFFFFFFFFFFFFFFFFFFFFFFFFFFFFFFFFF NOT AND SWAP1 DUP2 PUSH0 BYTE SWAP1 MSTORE8 POP DUP1 DUP1 PUSH1 0x1 ADD SWAP2 POP POP PUSH2 0x3BC JUMP JUMPDEST POP DUP2 SWAP3 POP POP POP SWAP2 SWAP1 POP JUMP JUMPDEST PUSH1 0x2 PUSH1 0x20 MSTORE DUP1 PUSH0 MSTORE PUSH1 0x40 PUSH0 KECCAK256 PUSH0 SWAP2 POP SWAP1 POP DUP1 PUSH0 ADD DUP1 SLOAD PUSH2 0x53C SWAP1 PUSH2 0x1BD5 JUMP JUMPDEST DUP1 PUSH1 0x1F ADD PUSH1 0x20 DUP1 SWAP2 DIV MUL PUSH1 0x20 ADD PUSH1 0x40 MLOAD SWAP1 DUP2 ADD PUSH1 0x40 MSTORE DUP1 SWAP3 SWAP2 SWAP1 DUP2 DUP2 MSTORE PUSH1 0x20 ADD DUP3 DUP1 SLOAD PUSH2 0x568 SWAP1 PUSH2 0x1BD5 JUMP JUMPDEST DUP1 ISZERO PUSH2 0x5B3 JUMPI DUP1 PUSH1 0x1F LT PUSH2 0x58A JUMPI PUSH2 0x100 DUP1 DUP4 SLOAD DIV MUL DUP4 MSTORE SWAP2 PUSH1 0x20 ADD SWAP2 PUSH2 0x5B3 JUMP JUMPDEST DUP3 ADD SWAP2 SWAP1 PUSH0 MSTORE PUSH1 0x20 PUSH0 KECCAK256 SWAP1 JUMPDEST DUP2 SLOAD DUP2 MSTORE SWAP1 PUSH1 0x1 ADD SWAP1 PUSH1 0x20 ADD DUP1 DUP4 GT PUSH2 0x596 JUMPI DUP3 SWAP1 SUB PUSH1 0x1F AND DUP3 ADD SWAP2 JUMPDEST POP POP POP POP POP SWAP1 DUP1 PUSH1 0x1 ADD PUSH0 SWAP1 SLOAD SWAP1 PUSH2 0x100 EXP SWAP1 DIV PUSH20 0xFFFFFFFFFFFFFFFFFFFFFFFFFFFFFFFFFFFFFFFF AND SWAP1 DUP1 PUSH1 0x2 ADD SLOAD SWAP1 POP DUP4 JUMP JUMPDEST PUSH1 0x60 PUSH1 0x20 PUSH8 0xFFFFFFFFFFFFFFFF DUP2 GT ISZERO PUSH2 0x605 JUMPI PUSH2 0x604 PUSH2 0x1335 JUMP JUMPDEST JUMPDEST PUSH1 0x40 MLOAD SWAP1 DUP1 DUP3 MSTORE DUP1 PUSH1 0x1F ADD PUSH1 0x1F NOT AND PUSH1 0x20 ADD DUP3 ADD PUSH1 0x40 MSTORE DUP1 ISZERO PUSH2 0x637 JUMPI DUP2 PUSH1 0x20 ADD PUSH1 0x1 DUP3 MUL DUP1 CALLDATASIZE DUP4 CALLDATACOPY DUP1 DUP3 ADD SWAP2 POP POP SWAP1 POP JUMPDEST POP SWAP1 POP DUP2 PUSH1 0x20 DUP3 ADD MSTORE SWAP2 SWAP1 POP JUMP JUMPDEST PUSH1 0x60 PUSH0 PUSH1 0x8 DUP4 PUSH2 0x655 SWAP2 SWAP1 PUSH2 0x1B75 JUMP JUMPDEST PUSH8 0xFFFFFFFFFFFFFFFF DUP2 GT ISZERO PUSH2 0x66E JUMPI PUSH2 0x66D PUSH2 0x1335 JUMP JUMPDEST JUMPDEST PUSH1 0x40 MLOAD SWAP1 DUP1 DUP3 MSTORE DUP1 PUSH1 0x20 MUL PUSH1 0x20 ADD DUP3 ADD PUSH1 0x40 MSTORE DUP1 ISZERO PUSH2 0x6A1 JUMPI DUP2 PUSH1 0x20 ADD JUMPDEST PUSH1 0x60 DUP2 MSTORE PUSH1 0x20 ADD SWAP1 PUSH1 0x1 SWAP1 SUB SWAP1 DUP2 PUSH2 0x68C JUMPI SWAP1 POP JUMPDEST POP SWAP1 POP PUSH0 PUSH1 0x40 MLOAD DUP1 PUSH1 0x40 ADD PUSH1 0x40 MSTORE DUP1 PUSH1 0x9 DUP2 MSTORE PUSH1 0x20 ADD PUSH32 0x7B22646174613A225B0000000000000000000000000000000000000000000000 DUP2 MSTORE POP DUP3 DUP3 DUP1 PUSH2 0x6E7 SWAP1 PUSH2 0x1C05 JUMP JUMPDEST SWAP4 POP DUP2 MLOAD DUP2 LT PUSH2 0x6FA JUMPI PUSH2 0x6F9 PUSH2 0x1ABB JUMP JUMPDEST JUMPDEST PUSH1 0x20 MUL PUSH1 0x20 ADD ADD DUP2 SWAP1 MSTORE POP PUSH0 DUP1 SLOAD SWAP1 POP PUSH0 DUP2 DUP8 DUP8 PUSH2 0x718 SWAP2 SWAP1 PUSH2 0x1B75 JUMP JUMPDEST GT ISZERO PUSH2 0x731 JUMPI DUP7 DUP3 PUSH2 0x72A SWAP2 SWAP1 PUSH2 0x1C4C JUMP JUMPDEST SWAP6 POP PUSH1 0x1 SWAP1 POP JUMPDEST PUSH0 DUP8 SWAP1 POP JUMPDEST DUP8 DUP8 PUSH2 0x742 SWAP2 SWAP1 PUSH2 0x1B75 JUMP JUMPDEST DUP2 LT ISZERO PUSH2 0x8B8 JUMPI PUSH2 0x875 PUSH1 0x2 PUSH0 DUP4 DUP2 MSTORE PUSH1 0x20 ADD SWAP1 DUP2 MSTORE PUSH1 0x20 ADD PUSH0 KECCAK256 PUSH1 0x40 MLOAD DUP1 PUSH1 0x60 ADD PUSH1 0x40 MSTORE SWAP1 DUP2 PUSH0 DUP3 ADD DUP1 SLOAD PUSH2 0x777 SWAP1 PUSH2 0x1BD5 JUMP JUMPDEST DUP1 PUSH1 0x1F ADD PUSH1 0x20 DUP1 SWAP2 DIV MUL PUSH1 0x20 ADD PUSH1 0x40 MLOAD SWAP1 DUP2 ADD PUSH1 0x40 MSTORE DUP1 SWAP3 SWAP2 SWAP1 DUP2 DUP2 MSTORE PUSH1 0x20 ADD DUP3 DUP1 SLOAD PUSH2 0x7A3 SWAP1 PUSH2 0x1BD5 JUMP JUMPDEST DUP1 ISZERO PUSH2 0x7EE JUMPI DUP1 PUSH1 0x1F LT PUSH2 0x7C5 JUMPI PUSH2 0x100 DUP1 DUP4 SLOAD DIV MUL DUP4 MSTORE SWAP2 PUSH1 0x20 ADD SWAP2 PUSH2 0x7EE JUMP JUMPDEST DUP3 ADD SWAP2 SWAP1 PUSH0 MSTORE PUSH1 0x20 PUSH0 KECCAK256 SWAP1 JUMPDEST DUP2 SLOAD DUP2 MSTORE SWAP1 PUSH1 0x1 ADD SWAP1 PUSH1 0x20 ADD DUP1 DUP4 GT PUSH2 0x7D1 JUMPI DUP3 SWAP1 SUB PUSH1 0x1F AND DUP3 ADD SWAP2 JUMPDEST POP POP POP POP POP DUP2 MSTORE PUSH1 0x20 ADD PUSH1 0x1 DUP3 ADD PUSH0 SWAP1 SLOAD SWAP1 PUSH2 0x100 EXP SWAP1 DIV PUSH20 0xFFFFFFFFFFFFFFFFFFFFFFFFFFFFFFFFFFFFFFFF AND PUSH20 0xFFFFFFFFFFFFFFFFFFFFFFFFFFFFFFFFFFFFFFFF AND PUSH20 0xFFFFFFFFFFFFFFFFFFFFFFFFFFFFFFFFFFFFFFFF AND DUP2 MSTORE PUSH1 0x20 ADD PUSH1 0x2 DUP3 ADD SLOAD DUP2 MSTORE POP POP PUSH1 0x1 DUP11 DUP11 PUSH2 0x864 SWAP2 SWAP1 PUSH2 0x1B75 JUMP JUMPDEST PUSH2 0x86E SWAP2 SWAP1 PUSH2 0x1C4C JUMP JUMPDEST DUP4 EQ PUSH2 0xDAC JUMP JUMPDEST DUP6 PUSH1 0x1 DUP4 PUSH2 0x883 SWAP2 SWAP1 PUSH2 0x1B75 JUMP JUMPDEST DUP2 MLOAD DUP2 LT PUSH2 0x894 JUMPI PUSH2 0x893 PUSH2 0x1ABB JUMP JUMPDEST JUMPDEST PUSH1 0x20 MUL PUSH1 0x20 ADD ADD DUP2 SWAP1 MSTORE POP DUP4 PUSH2 0x8A9 SWAP1 PUSH2 0x1C05 JUMP JUMPDEST SWAP4 POP DUP1 DUP1 PUSH1 0x1 ADD SWAP2 POP POP PUSH2 0x736 JUMP JUMPDEST POP PUSH1 0x40 MLOAD DUP1 PUSH1 0x40 ADD PUSH1 0x40 MSTORE DUP1 PUSH1 0xA DUP2 MSTORE PUSH1 0x20 ADD PUSH32 0x5D2C226973456E643A2200000000000000000000000000000000000000000000 DUP2 MSTORE POP DUP5 DUP5 DUP1 PUSH2 0x8FB SWAP1 PUSH2 0x1C05 JUMP JUMPDEST SWAP6 POP DUP2 MLOAD DUP2 LT PUSH2 0x90E JUMPI PUSH2 0x90D PUSH2 0x1ABB JUMP JUMPDEST JUMPDEST PUSH1 0x20 MUL PUSH1 0x20 ADD ADD DUP2 SWAP1 MSTORE POP PUSH2 0x922 DUP2 PUSH2 0x5E8 JUMP JUMPDEST DUP5 DUP5 DUP1 PUSH2 0x92E SWAP1 PUSH2 0x1C05 JUMP JUMPDEST SWAP6 POP DUP2 MLOAD DUP2 LT PUSH2 0x941 JUMPI PUSH2 0x940 PUSH2 0x1ABB JUMP JUMPDEST JUMPDEST PUSH1 0x20 MUL PUSH1 0x20 ADD ADD DUP2 SWAP1 MSTORE POP PUSH1 0x40 MLOAD DUP1 PUSH1 0x40 ADD PUSH1 0x40 MSTORE DUP1 PUSH1 0xA DUP2 MSTORE PUSH1 0x20 ADD PUSH32 0x2C226F6666736574223A00000000000000000000000000000000000000000000 DUP2 MSTORE POP DUP5 DUP5 DUP1 PUSH2 0x98E SWAP1 PUSH2 0x1C05 JUMP JUMPDEST SWAP6 POP DUP2 MLOAD DUP2 LT PUSH2 0x9A1 JUMPI PUSH2 0x9A0 PUSH2 0x1ABB JUMP JUMPDEST JUMPDEST PUSH1 0x20 MUL PUSH1 0x20 ADD ADD DUP2 SWAP1 MSTORE POP PUSH2 0x9B5 DUP8 PUSH2 0x5E8 JUMP JUMPDEST DUP5 DUP5 DUP1 PUSH2 0x9C1 SWAP1 PUSH2 0x1C05 JUMP JUMPDEST SWAP6 POP DUP2 MLOAD DUP2 LT PUSH2 0x9D4 JUMPI PUSH2 0x9D3 PUSH2 0x1ABB JUMP JUMPDEST JUMPDEST PUSH1 0x20 MUL PUSH1 0x20 ADD ADD DUP2 SWAP1 MSTORE POP PUSH1 0x40 MLOAD DUP1 PUSH1 0x40 ADD PUSH1 0x40 MSTORE DUP1 PUSH1 0x9 DUP2 MSTORE PUSH1 0x20 ADD PUSH32 0x2C226C696D6974223A0000000000000000000000000000000000000000000000 DUP2 MSTORE POP DUP5 DUP5 DUP1 PUSH2 0xA21 SWAP1 PUSH2 0x1C05 JUMP JUMPDEST SWAP6 POP DUP2 MLOAD DUP2 LT PUSH2 0xA34 JUMPI PUSH2 0xA33 PUSH2 0x1ABB JUMP JUMPDEST JUMPDEST PUSH1 0x20 MUL PUSH1 0x20 ADD ADD DUP2 SWAP1 MSTORE POP PUSH2 0xA48 DUP7 PUSH2 0x5E8 JUMP JUMPDEST DUP5 DUP5 DUP1 PUSH2 0xA54 SWAP1 PUSH2 0x1C05 JUMP JUMPDEST SWAP6 POP DUP2 MLOAD DUP2 LT PUSH2 0xA67 JUMPI PUSH2 0xA66 PUSH2 0x1ABB JUMP JUMPDEST JUMPDEST PUSH1 0x20 MUL PUSH1 0x20 ADD ADD DUP2 SWAP1 MSTORE POP PUSH1 0x40 MLOAD DUP1 PUSH1 0x40 ADD PUSH1 0x40 MSTORE DUP1 PUSH1 0x1 DUP2 MSTORE PUSH1 0x20 ADD PUSH32 0x7D00000000000000000000000000000000000000000000000000000000000000 DUP2 MSTORE POP DUP5 DUP5 DUP1 PUSH2 0xAB4 SWAP1 PUSH2 0x1C05 JUMP JUMPDEST SWAP6 POP DUP2 MLOAD DUP2 LT PUSH2 0xAC7 JUMPI PUSH2 0xAC6 PUSH2 0x1ABB JUMP JUMPDEST JUMPDEST PUSH1 0x20 MUL PUSH1 0x20 ADD ADD DUP2 SWAP1 MSTORE POP PUSH2 0xADC DUP5 DUP5 PUSH2 0xB11 JUMP JUMPDEST SWAP5 POP POP POP POP POP SWAP3 SWAP2 POP POP JUMP JUMPDEST PUSH1 0x60 DUP2 PUSH1 0x40 MLOAD PUSH1 0x20 ADD PUSH2 0xAFB SWAP2 SWAP1 PUSH2 0x1CC4 JUMP JUMPDEST PUSH1 0x40 MLOAD PUSH1 0x20 DUP2 DUP4 SUB SUB DUP2 MSTORE SWAP1 PUSH1 0x40 MSTORE SWAP1 POP SWAP2 SWAP1 POP JUMP JUMPDEST PUSH1 0x60 PUSH0 DUP1 JUMPDEST DUP4 DUP2 LT ISZERO PUSH2 0xB54 JUMPI DUP5 DUP2 DUP2 MLOAD DUP2 LT PUSH2 0xB31 JUMPI PUSH2 0xB30 PUSH2 0x1ABB JUMP JUMPDEST JUMPDEST PUSH1 0x20 MUL PUSH1 0x20 ADD ADD MLOAD MLOAD DUP3 PUSH2 0xB45 SWAP2 SWAP1 PUSH2 0x1B75 JUMP JUMPDEST SWAP2 POP DUP1 DUP1 PUSH1 0x1 ADD SWAP2 POP POP PUSH2 0xB16 JUMP JUMPDEST POP PUSH0 DUP2 PUSH8 0xFFFFFFFFFFFFFFFF DUP2 GT ISZERO PUSH2 0xB70 JUMPI PUSH2 0xB6F PUSH2 0x1335 JUMP JUMPDEST JUMPDEST PUSH1 0x40 MLOAD SWAP1 DUP1 DUP3 MSTORE DUP1 PUSH1 0x1F ADD PUSH1 0x1F NOT AND PUSH1 0x20 ADD DUP3 ADD PUSH1 0x40 MSTORE DUP1 ISZERO PUSH2 0xBA2 JUMPI DUP2 PUSH1 0x20 ADD PUSH1 0x1 DUP3 MUL DUP1 CALLDATASIZE DUP4 CALLDATACOPY DUP1 DUP3 ADD SWAP2 POP POP SWAP1 POP JUMPDEST POP SWAP1 POP PUSH0 DUP1 JUMPDEST DUP6 DUP2 LT ISZERO PUSH2 0xC75 JUMPI PUSH0 JUMPDEST DUP8 DUP3 DUP2 MLOAD DUP2 LT PUSH2 0xBC5 JUMPI PUSH2 0xBC4 PUSH2 0x1ABB JUMP JUMPDEST JUMPDEST PUSH1 0x20 MUL PUSH1 0x20 ADD ADD MLOAD MLOAD DUP2 LT ISZERO PUSH2 0xC67 JUMPI DUP8 DUP3 DUP2 MLOAD DUP2 LT PUSH2 0xBE8 JUMPI PUSH2 0xBE7 PUSH2 0x1ABB JUMP JUMPDEST JUMPDEST PUSH1 0x20 MUL PUSH1 0x20 ADD ADD MLOAD DUP2 DUP2 MLOAD DUP2 LT PUSH2 0xC02 JUMPI PUSH2 0xC01 PUSH2 0x1ABB JUMP JUMPDEST JUMPDEST PUSH1 0x20 ADD ADD MLOAD PUSH1 0xF8 SHR PUSH1 0xF8 SHL DUP5 DUP5 DUP1 PUSH2 0xC19 SWAP1 PUSH2 0x1C05 JUMP JUMPDEST SWAP6 POP DUP2 MLOAD DUP2 LT PUSH2 0xC2C JUMPI PUSH2 0xC2B PUSH2 0x1ABB JUMP JUMPDEST JUMPDEST PUSH1 0x20 ADD ADD SWAP1 PUSH31 0xFFFFFFFFFFFFFFFFFFFFFFFFFFFFFFFFFFFFFFFFFFFFFFFFFFFFFFFFFFFFFF NOT AND SWAP1 DUP2 PUSH0 BYTE SWAP1 MSTORE8 POP DUP1 DUP1 PUSH1 0x1 ADD SWAP2 POP POP PUSH2 0xBB2 JUMP JUMPDEST POP DUP1 DUP1 PUSH1 0x1 ADD SWAP2 POP POP PUSH2 0xBA8 JUMP JUMPDEST POP DUP2 SWAP4 POP POP POP POP SWAP3 SWAP2 POP POP JUMP JUMPDEST PUSH1 0x3 PUSH1 0x20 MSTORE DUP1 PUSH0 MSTORE PUSH1 0x40 PUSH0 KECCAK256 PUSH0 SWAP2 POP SLOAD SWAP1 PUSH2 0x100 EXP SWAP1 DIV PUSH1 0xFF AND DUP2 JUMP JUMPDEST PUSH1 0x1 PUSH0 SWAP1 SLOAD SWAP1 PUSH2 0x100 EXP SWAP1 DIV PUSH20 0xFFFFFFFFFFFFFFFFFFFFFFFFFFFFFFFFFFFFFFFF AND DUP2 JUMP JUMPDEST CALLER PUSH20 0xFFFFFFFFFFFFFFFFFFFFFFFFFFFFFFFFFFFFFFFF AND PUSH1 0x1 PUSH0 SWAP1 SLOAD SWAP1 PUSH2 0x100 EXP SWAP1 DIV PUSH20 0xFFFFFFFFFFFFFFFFFFFFFFFFFFFFFFFFFFFFFFFF AND PUSH20 0xFFFFFFFFFFFFFFFFFFFFFFFFFFFFFFFFFFFFFFFF AND EQ PUSH2 0xD1C JUMPI PUSH0 DUP1 REVERT JUMPDEST PUSH0 DUP2 MLOAD SWAP1 POP PUSH0 JUMPDEST DUP2 DUP2 LT ISZERO PUSH2 0xDA7 JUMPI PUSH1 0x1 PUSH1 0x3 PUSH0 DUP6 DUP5 DUP2 MLOAD DUP2 LT PUSH2 0xD43 JUMPI PUSH2 0xD42 PUSH2 0x1ABB JUMP JUMPDEST JUMPDEST PUSH1 0x20 MUL PUSH1 0x20 ADD ADD MLOAD PUSH20 0xFFFFFFFFFFFFFFFFFFFFFFFFFFFFFFFFFFFFFFFF AND PUSH20 0xFFFFFFFFFFFFFFFFFFFFFFFFFFFFFFFFFFFFFFFF AND DUP2 MSTORE PUSH1 0x20 ADD SWAP1 DUP2 MSTORE PUSH1 0x20 ADD PUSH0 KECCAK256 PUSH0 PUSH2 0x100 EXP DUP2 SLOAD DUP2 PUSH1 0xFF MUL NOT AND SWAP1 DUP4 ISZERO ISZERO MUL OR SWAP1 SSTORE POP DUP1 DUP1 PUSH1 0x1 ADD SWAP2 POP POP PUSH2 0xD23 JUMP JUMPDEST POP POP POP JUMP JUMPDEST PUSH1 0x60 PUSH0 PUSH1 0x64 PUSH8 0xFFFFFFFFFFFFFFFF DUP2 GT ISZERO PUSH2 0xDCA JUMPI PUSH2 0xDC9 PUSH2 0x1335 JUMP JUMPDEST JUMPDEST PUSH1 0x40 MLOAD SWAP1 DUP1 DUP3 MSTORE DUP1 PUSH1 0x20 MUL PUSH1 0x20 ADD DUP3 ADD PUSH1 0x40 MSTORE DUP1 ISZERO PUSH2 0xDFD JUMPI DUP2 PUSH1 0x20 ADD JUMPDEST PUSH1 0x60 DUP2 MSTORE PUSH1 0x20 ADD SWAP1 PUSH1 0x1 SWAP1 SUB SWAP1 DUP2 PUSH2 0xDE8 JUMPI SWAP1 POP JUMPDEST POP SWAP1 POP PUSH0 PUSH1 0x40 MLOAD DUP1 PUSH1 0x40 ADD PUSH1 0x40 MSTORE DUP1 PUSH1 0xC DUP2 MSTORE PUSH1 0x20 ADD PUSH32 0x7B2261757468496E666F223A0000000000000000000000000000000000000000 DUP2 MSTORE POP DUP3 DUP3 DUP1 PUSH2 0xE43 SWAP1 PUSH2 0x1C05 JUMP JUMPDEST SWAP4 POP DUP2 MLOAD DUP2 LT PUSH2 0xE56 JUMPI PUSH2 0xE55 PUSH2 0x1ABB JUMP JUMPDEST JUMPDEST PUSH1 0x20 MUL PUSH1 0x20 ADD ADD DUP2 SWAP1 MSTORE POP DUP5 PUSH0 ADD MLOAD DUP3 DUP3 DUP1 PUSH2 0xE71 SWAP1 PUSH2 0x1C05 JUMP JUMPDEST SWAP4 POP DUP2 MLOAD DUP2 LT PUSH2 0xE84 JUMPI PUSH2 0xE83 PUSH2 0x1ABB JUMP JUMPDEST JUMPDEST PUSH1 0x20 MUL PUSH1 0x20 ADD ADD DUP2 SWAP1 MSTORE POP PUSH1 0x40 MLOAD DUP1 PUSH1 0x40 ADD PUSH1 0x40 MSTORE DUP1 PUSH1 0xB DUP2 MSTORE PUSH1 0x20 ADD PUSH32 0x2C22617574686F72223A22000000000000000000000000000000000000000000 DUP2 MSTORE POP DUP3 DUP3 DUP1 PUSH2 0xED1 SWAP1 PUSH2 0x1C05 JUMP JUMPDEST SWAP4 POP DUP2 MLOAD DUP2 LT PUSH2 0xEE4 JUMPI PUSH2 0xEE3 PUSH2 0x1ABB JUMP JUMPDEST JUMPDEST PUSH1 0x20 MUL PUSH1 0x20 ADD ADD DUP2 SWAP1 MSTORE POP PUSH2 0xF04 PUSH2 0xEFF DUP7 PUSH1 0x20 ADD MLOAD PUSH2 0xAE8 JUMP JUMPDEST PUSH2 0x322 JUMP JUMPDEST DUP3 DUP3 DUP1 PUSH2 0xF10 SWAP1 PUSH2 0x1C05 JUMP JUMPDEST SWAP4 POP DUP2 MLOAD DUP2 LT PUSH2 0xF23 JUMPI PUSH2 0xF22 PUSH2 0x1ABB JUMP JUMPDEST JUMPDEST PUSH1 0x20 MUL PUSH1 0x20 ADD ADD DUP2 SWAP1 MSTORE POP PUSH1 0x40 MLOAD DUP1 PUSH1 0x40 ADD PUSH1 0x40 MSTORE DUP1 PUSH1 0x8 DUP2 MSTORE PUSH1 0x20 ADD PUSH32 0x222C226964223A22000000000000000000000000000000000000000000000000 DUP2 MSTORE POP DUP3 DUP3 DUP1 PUSH2 0xF70 SWAP1 PUSH2 0x1C05 JUMP JUMPDEST SWAP4 POP DUP2 MLOAD DUP2 LT PUSH2 0xF83 JUMPI PUSH2 0xF82 PUSH2 0x1ABB JUMP JUMPDEST JUMPDEST PUSH1 0x20 MUL PUSH1 0x20 ADD ADD DUP2 SWAP1 MSTORE POP PUSH2 0xFA3 PUSH2 0xF9E DUP7 PUSH1 0x40 ADD MLOAD PUSH2 0x5E8 JUMP JUMPDEST PUSH2 0x322 JUMP JUMPDEST DUP3 DUP3 DUP1 PUSH2 0xFAF SWAP1 PUSH2 0x1C05 JUMP JUMPDEST SWAP4 POP DUP2 MLOAD DUP2 LT PUSH2 0xFC2 JUMPI PUSH2 0xFC1 PUSH2 0x1ABB JUMP JUMPDEST JUMPDEST PUSH1 0x20 MUL PUSH1 0x20 ADD ADD DUP2 SWAP1 MSTORE POP DUP4 ISZERO PUSH2 0x1038 JUMPI PUSH1 0x40 MLOAD DUP1 PUSH1 0x40 ADD PUSH1 0x40 MSTORE DUP1 PUSH1 0x2 DUP2 MSTORE PUSH1 0x20 ADD PUSH32 0x227D000000000000000000000000000000000000000000000000000000000000 DUP2 MSTORE POP DUP3 DUP3 DUP1 PUSH2 0x1015 SWAP1 PUSH2 0x1C05 JUMP JUMPDEST SWAP4 POP DUP2 MLOAD DUP2 LT PUSH2 0x1028 JUMPI PUSH2 0x1027 PUSH2 0x1ABB JUMP JUMPDEST JUMPDEST PUSH1 0x20 MUL PUSH1 0x20 ADD ADD DUP2 SWAP1 MSTORE POP PUSH2 0x1099 JUMP JUMPDEST PUSH1 0x40 MLOAD DUP1 PUSH1 0x40 ADD PUSH1 0x40 MSTORE DUP1 PUSH1 0x3 DUP2 MSTORE PUSH1 0x20 ADD PUSH32 0x227D2C0000000000000000000000000000000000000000000000000000000000 DUP2 MSTORE POP DUP3 DUP3 DUP1 PUSH2 0x107A SWAP1 PUSH2 0x1C05 JUMP JUMPDEST SWAP4 POP DUP2 MLOAD DUP2 LT PUSH2 0x108D JUMPI PUSH2 0x108C PUSH2 0x1ABB JUMP JUMPDEST JUMPDEST PUSH1 0x20 MUL PUSH1 0x20 ADD ADD DUP2 SWAP1 MSTORE POP JUMPDEST PUSH2 0x10A3 DUP3 DUP3 PUSH2 0xB11 JUMP JUMPDEST SWAP3 POP POP POP SWAP3 SWAP2 POP POP JUMP JUMPDEST PUSH1 0x3 PUSH0 CALLER PUSH20 0xFFFFFFFFFFFFFFFFFFFFFFFFFFFFFFFFFFFFFFFF AND PUSH20 0xFFFFFFFFFFFFFFFFFFFFFFFFFFFFFFFFFFFFFFFF AND DUP2 MSTORE PUSH1 0x20 ADD SWAP1 DUP2 MSTORE PUSH1 0x20 ADD PUSH0 KECCAK256 PUSH0 SWAP1 SLOAD SWAP1 PUSH2 0x100 EXP SWAP1 DIV PUSH1 0xFF AND PUSH2 0x10FF JUMPI PUSH0 DUP1 REVERT JUMPDEST PUSH1 0x40 MLOAD DUP1 PUSH1 0x60 ADD PUSH1 0x40 MSTORE DUP1 DUP3 DUP2 MSTORE PUSH1 0x20 ADD CALLER PUSH20 0xFFFFFFFFFFFFFFFFFFFFFFFFFFFFFFFFFFFFFFFF AND DUP2 MSTORE PUSH1 0x20 ADD PUSH0 SLOAD DUP2 MSTORE POP PUSH1 0x2 PUSH0 DUP1 SLOAD DUP2 MSTORE PUSH1 0x20 ADD SWAP1 DUP2 MSTORE PUSH1 0x20 ADD PUSH0 KECCAK256 PUSH0 DUP3 ADD MLOAD DUP2 PUSH0 ADD SWAP1 DUP2 PUSH2 0x1156 SWAP2 SWAP1 PUSH2 0x1E7B JUMP JUMPDEST POP PUSH1 0x20 DUP3 ADD MLOAD DUP2 PUSH1 0x1 ADD PUSH0 PUSH2 0x100 EXP DUP2 SLOAD DUP2 PUSH20 0xFFFFFFFFFFFFFFFFFFFFFFFFFFFFFFFFFFFFFFFF MUL NOT AND SWAP1 DUP4 PUSH20 0xFFFFFFFFFFFFFFFFFFFFFFFFFFFFFFFFFFFFFFFF AND MUL OR SWAP1 SSTORE POP PUSH1 0x40 DUP3 ADD MLOAD DUP2 PUSH1 0x2 ADD SSTORE SWAP1 POP POP PUSH0 DUP1 DUP2 SLOAD DUP1 SWAP3 SWAP2 SWAP1 PUSH2 0x11BB SWAP1 PUSH2 0x1C05 JUMP JUMPDEST SWAP2 SWAP1 POP SSTORE POP POP JUMP JUMPDEST CALLER PUSH20 0xFFFFFFFFFFFFFFFFFFFFFFFFFFFFFFFFFFFFFFFF AND PUSH1 0x1 PUSH0 SWAP1 SLOAD SWAP1 PUSH2 0x100 EXP SWAP1 DIV PUSH20 0xFFFFFFFFFFFFFFFFFFFFFFFFFFFFFFFFFFFFFFFF AND PUSH20 0xFFFFFFFFFFFFFFFFFFFFFFFFFFFFFFFFFFFFFFFF AND EQ PUSH2 0x121B JUMPI PUSH0 DUP1 REVERT JUMPDEST PUSH0 DUP2 MLOAD SWAP1 POP PUSH0 JUMPDEST DUP2 DUP2 LT ISZERO PUSH2 0x1307 JUMPI PUSH1 0x3 PUSH0 DUP5 DUP4 DUP2 MLOAD DUP2 LT PUSH2 0x1240 JUMPI PUSH2 0x123F PUSH2 0x1ABB JUMP JUMPDEST JUMPDEST PUSH1 0x20 MUL PUSH1 0x20 ADD ADD MLOAD PUSH20 0xFFFFFFFFFFFFFFFFFFFFFFFFFFFFFFFFFFFFFFFF AND PUSH20 0xFFFFFFFFFFFFFFFFFFFFFFFFFFFFFFFFFFFFFFFF AND DUP2 MSTORE PUSH1 0x20 ADD SWAP1 DUP2 MSTORE PUSH1 0x20 ADD PUSH0 KECCAK256 PUSH0 SWAP1 SLOAD SWAP1 PUSH2 0x100 EXP SWAP1 DIV PUSH1 0xFF AND ISZERO PUSH2 0x12FA JUMPI PUSH1 0x3 PUSH0 DUP5 DUP4 DUP2 MLOAD DUP2 LT PUSH2 0x12A9 JUMPI PUSH2 0x12A8 PUSH2 0x1ABB JUMP JUMPDEST JUMPDEST PUSH1 0x20 MUL PUSH1 0x20 ADD ADD MLOAD PUSH20 0xFFFFFFFFFFFFFFFFFFFFFFFFFFFFFFFFFFFFFFFF AND PUSH20 0xFFFFFFFFFFFFFFFFFFFFFFFFFFFFFFFFFFFFFFFF AND DUP2 MSTORE PUSH1 0x20 ADD SWAP1 DUP2 MSTORE PUSH1 0x20 ADD PUSH0 KECCAK256 PUSH0 PUSH2 0x100 EXP DUP2 SLOAD SWAP1 PUSH1 0xFF MUL NOT AND SWAP1 SSTORE JUMPDEST DUP1 DUP1 PUSH1 0x1 ADD SWAP2 POP POP PUSH2 0x1222 JUMP JUMPDEST POP POP POP JUMP JUMPDEST PUSH0 PUSH1 0x40 MLOAD SWAP1 POP SWAP1 JUMP JUMPDEST PUSH0 DUP1 REVERT JUMPDEST PUSH0 DUP1 REVERT JUMPDEST PUSH0 DUP1 REVERT JUMPDEST PUSH0 DUP1 REVERT JUMPDEST PUSH0 PUSH1 0x1F NOT PUSH1 0x1F DUP4 ADD AND SWAP1 POP SWAP2 SWAP1 POP JUMP JUMPDEST PUSH32 0x4E487B7100000000000000000000000000000000000000000000000000000000 PUSH0 MSTORE PUSH1 0x41 PUSH1 0x4 MSTORE PUSH1 0x24 PUSH0 REVERT JUMPDEST PUSH2 0x136B DUP3 PUSH2 0x1325 JUMP JUMPDEST DUP2 ADD DUP2 DUP2 LT PUSH8 0xFFFFFFFFFFFFFFFF DUP3 GT OR ISZERO PUSH2 0x138A JUMPI PUSH2 0x1389 PUSH2 0x1335 JUMP JUMPDEST JUMPDEST DUP1 PUSH1 0x40 MSTORE POP POP POP JUMP JUMPDEST PUSH0 PUSH2 0x139C PUSH2 0x130C JUMP JUMPDEST SWAP1 POP PUSH2 0x13A8 DUP3 DUP3 PUSH2 0x1362 JUMP JUMPDEST SWAP2 SWAP1 POP JUMP JUMPDEST PUSH0 PUSH8 0xFFFFFFFFFFFFFFFF DUP3 GT ISZERO PUSH2 0x13C7 JUMPI PUSH2 0x13C6 PUSH2 0x1335 JUMP JUMPDEST JUMPDEST PUSH2 0x13D0 DUP3 PUSH2 0x1325 JUMP JUMPDEST SWAP1 POP PUSH1 0x20 DUP2 ADD SWAP1 POP SWAP2 SWAP1 POP JUMP JUMPDEST DUP3 DUP2 DUP4 CALLDATACOPY PUSH0 DUP4 DUP4 ADD MSTORE POP POP POP JUMP JUMPDEST PUSH0 PUSH2 0x13FD PUSH2 0x13F8 DUP5 PUSH2 0x13AD JUMP JUMPDEST PUSH2 0x1393 JUMP JUMPDEST SWAP1 POP DUP3 DUP2 MSTORE PUSH1 0x20 DUP2 ADD DUP5 DUP5 DUP5 ADD GT ISZERO PUSH2 0x1419 JUMPI PUSH2 0x1418 PUSH2 0x1321 JUMP JUMPDEST JUMPDEST PUSH2 0x1424 DUP5 DUP3 DUP6 PUSH2 0x13DD JUMP JUMPDEST POP SWAP4 SWAP3 POP POP POP JUMP JUMPDEST PUSH0 DUP3 PUSH1 0x1F DUP4 ADD SLT PUSH2 0x1440 JUMPI PUSH2 0x143F PUSH2 0x131D JUMP JUMPDEST JUMPDEST DUP2 CALLDATALOAD PUSH2 0x1450 DUP5 DUP3 PUSH1 0x20 DUP7 ADD PUSH2 0x13EB JUMP JUMPDEST SWAP2 POP POP SWAP3 SWAP2 POP POP JUMP JUMPDEST PUSH0 PUSH1 0x20 DUP3 DUP5 SUB SLT ISZERO PUSH2 0x146E JUMPI PUSH2 0x146D PUSH2 0x1315 JUMP JUMPDEST JUMPDEST PUSH0 DUP3 ADD CALLDATALOAD PUSH8 0xFFFFFFFFFFFFFFFF DUP2 GT ISZERO PUSH2 0x148B JUMPI PUSH2 0x148A PUSH2 0x1319 JUMP JUMPDEST JUMPDEST PUSH2 0x1497 DUP5 DUP3 DUP6 ADD PUSH2 0x142C JUMP JUMPDEST SWAP2 POP POP SWAP3 SWAP2 POP POP JUMP JUMPDEST PUSH0 DUP2 MLOAD SWAP1 POP SWAP2 SWAP1 POP JUMP JUMPDEST PUSH0 DUP3 DUP3 MSTORE PUSH1 0x20 DUP3 ADD SWAP1 POP SWAP3 SWAP2 POP POP JUMP JUMPDEST PUSH0 JUMPDEST DUP4 DUP2 LT ISZERO PUSH2 0x14D7 JUMPI DUP1 DUP3 ADD MLOAD DUP2 DUP5 ADD MSTORE PUSH1 0x20 DUP2 ADD SWAP1 POP PUSH2 0x14BC JUMP JUMPDEST PUSH0 DUP5 DUP5 ADD MSTORE POP POP POP POP JUMP JUMPDEST PUSH0 PUSH2 0x14EC DUP3 PUSH2 0x14A0 JUMP JUMPDEST PUSH2 0x14F6 DUP2 DUP6 PUSH2 0x14AA JUMP JUMPDEST SWAP4 POP PUSH2 0x1506 DUP2 DUP6 PUSH1 0x20 DUP7 ADD PUSH2 0x14BA JUMP JUMPDEST PUSH2 0x150F DUP2 PUSH2 0x1325 JUMP JUMPDEST DUP5 ADD SWAP2 POP POP SWAP3 SWAP2 POP POP JUMP JUMPDEST PUSH0 PUSH1 0x20 DUP3 ADD SWAP1 POP DUP2 DUP2 SUB PUSH0 DUP4 ADD MSTORE PUSH2 0x1532 DUP2 DUP5 PUSH2 0x14E2 JUMP JUMPDEST SWAP1 POP SWAP3 SWAP2 POP POP JUMP JUMPDEST PUSH0 DUP2 SWAP1 POP SWAP2 SWAP1 POP JUMP JUMPDEST PUSH2 0x154C DUP2 PUSH2 0x153A JUMP JUMPDEST DUP2 EQ PUSH2 0x1556 JUMPI PUSH0 DUP1 REVERT JUMPDEST POP JUMP JUMPDEST PUSH0 DUP2 CALLDATALOAD SWAP1 POP PUSH2 0x1567 DUP2 PUSH2 0x1543 JUMP JUMPDEST SWAP3 SWAP2 POP POP JUMP JUMPDEST PUSH0 PUSH1 0x20 DUP3 DUP5 SUB SLT ISZERO PUSH2 0x1582 JUMPI PUSH2 0x1581 PUSH2 0x1315 JUMP JUMPDEST JUMPDEST PUSH0 PUSH2 0x158F DUP5 DUP3 DUP6 ADD PUSH2 0x1559 JUMP JUMPDEST SWAP2 POP POP SWAP3 SWAP2 POP POP JUMP JUMPDEST PUSH0 PUSH20 0xFFFFFFFFFFFFFFFFFFFFFFFFFFFFFFFFFFFFFFFF DUP3 AND SWAP1 POP SWAP2 SWAP1 POP JUMP JUMPDEST PUSH0 PUSH2 0x15C1 DUP3 PUSH2 0x1598 JUMP JUMPDEST SWAP1 POP SWAP2 SWAP1 POP JUMP JUMPDEST PUSH2 0x15D1 DUP2 PUSH2 0x15B7 JUMP JUMPDEST DUP3 MSTORE POP POP JUMP JUMPDEST PUSH2 0x15E0 DUP2 PUSH2 0x153A JUMP JUMPDEST DUP3 MSTORE POP POP JUMP JUMPDEST PUSH0 PUSH1 0x60 DUP3 ADD SWAP1 POP DUP2 DUP2 SUB PUSH0 DUP4 ADD MSTORE PUSH2 0x15FE DUP2 DUP7 PUSH2 0x14E2 JUMP JUMPDEST SWAP1 POP PUSH2 0x160D PUSH1 0x20 DUP4 ADD DUP6 PUSH2 0x15C8 JUMP JUMPDEST PUSH2 0x161A PUSH1 0x40 DUP4 ADD DUP5 PUSH2 0x15D7 JUMP JUMPDEST SWAP5 SWAP4 POP POP POP POP JUMP JUMPDEST PUSH0 DUP1 PUSH1 0x40 DUP4 DUP6 SUB SLT ISZERO PUSH2 0x1638 JUMPI PUSH2 0x1637 PUSH2 0x1315 JUMP JUMPDEST JUMPDEST PUSH0 PUSH2 0x1645 DUP6 DUP3 DUP7 ADD PUSH2 0x1559 JUMP JUMPDEST SWAP3 POP POP PUSH1 0x20 PUSH2 0x1656 DUP6 DUP3 DUP7 ADD PUSH2 0x1559 JUMP JUMPDEST SWAP2 POP POP SWAP3 POP SWAP3 SWAP1 POP JUMP JUMPDEST PUSH2 0x1669 DUP2 PUSH2 0x15B7 JUMP JUMPDEST DUP2 EQ PUSH2 0x1673 JUMPI PUSH0 DUP1 REVERT JUMPDEST POP JUMP JUMPDEST PUSH0 DUP2 CALLDATALOAD SWAP1 POP PUSH2 0x1684 DUP2 PUSH2 0x1660 JUMP JUMPDEST SWAP3 SWAP2 POP POP JUMP JUMPDEST PUSH0 PUSH1 0x20 DUP3 DUP5 SUB SLT ISZERO PUSH2 0x169F JUMPI PUSH2 0x169E PUSH2 0x1315 JUMP JUMPDEST JUMPDEST PUSH0 PUSH2 0x16AC DUP5 DUP3 DUP6 ADD PUSH2 0x1676 JUMP JUMPDEST SWAP2 POP POP SWAP3 SWAP2 POP POP JUMP JUMPDEST PUSH0 PUSH8 0xFFFFFFFFFFFFFFFF DUP3 GT ISZERO PUSH2 0x16CF JUMPI PUSH2 0x16CE PUSH2 0x1335 JUMP JUMPDEST JUMPDEST PUSH1 0x20 DUP3 MUL SWAP1 POP PUSH1 0x20 DUP2 ADD SWAP1 POP SWAP2 SWAP1 POP JUMP JUMPDEST PUSH0 DUP1 REVERT JUMPDEST PUSH0 PUSH2 0x16F6 PUSH2 0x16F1 DUP5 PUSH2 0x16B5 JUMP JUMPDEST PUSH2 0x1393 JUMP JUMPDEST SWAP1 POP DUP1 DUP4 DUP3 MSTORE PUSH1 0x20 DUP3 ADD SWAP1 POP PUSH1 0x20 DUP5 MUL DUP4 ADD DUP6 DUP2 GT ISZERO PUSH2 0x1719 JUMPI PUSH2 0x1718 PUSH2 0x16E0 JUMP JUMPDEST JUMPDEST DUP4 JUMPDEST DUP2 DUP2 LT ISZERO PUSH2 0x1760 JUMPI DUP1 CALLDATALOAD PUSH8 0xFFFFFFFFFFFFFFFF DUP2 GT ISZERO PUSH2 0x173E JUMPI PUSH2 0x173D PUSH2 0x131D JUMP JUMPDEST JUMPDEST DUP1 DUP7 ADD PUSH2 0x174B DUP10 DUP3 PUSH2 0x142C JUMP JUMPDEST DUP6 MSTORE PUSH1 0x20 DUP6 ADD SWAP5 POP POP POP PUSH1 0x20 DUP2 ADD SWAP1 POP PUSH2 0x171B JUMP JUMPDEST POP POP POP SWAP4 SWAP3 POP POP POP JUMP JUMPDEST PUSH0 DUP3 PUSH1 0x1F DUP4 ADD SLT PUSH2 0x177E JUMPI PUSH2 0x177D PUSH2 0x131D JUMP JUMPDEST JUMPDEST DUP2 CALLDATALOAD PUSH2 0x178E DUP5 DUP3 PUSH1 0x20 DUP7 ADD PUSH2 0x16E4 JUMP JUMPDEST SWAP2 POP POP SWAP3 SWAP2 POP POP JUMP JUMPDEST PUSH0 DUP1 PUSH1 0x40 DUP4 DUP6 SUB SLT ISZERO PUSH2 0x17AD JUMPI PUSH2 0x17AC PUSH2 0x1315 JUMP JUMPDEST JUMPDEST PUSH0 DUP4 ADD CALLDATALOAD PUSH8 0xFFFFFFFFFFFFFFFF DUP2 GT ISZERO PUSH2 0x17CA JUMPI PUSH2 0x17C9 PUSH2 0x1319 JUMP JUMPDEST JUMPDEST PUSH2 0x17D6 DUP6 DUP3 DUP7 ADD PUSH2 0x176A JUMP JUMPDEST SWAP3 POP POP PUSH1 0x20 PUSH2 0x17E7 DUP6 DUP3 DUP7 ADD PUSH2 0x1559 JUMP JUMPDEST SWAP2 POP POP SWAP3 POP SWAP3 SWAP1 POP JUMP JUMPDEST PUSH0 DUP2 ISZERO ISZERO SWAP1 POP SWAP2 SWAP1 POP JUMP JUMPDEST PUSH2 0x1805 DUP2 PUSH2 0x17F1 JUMP JUMPDEST DUP3 MSTORE POP POP JUMP JUMPDEST PUSH0 PUSH1 0x20 DUP3 ADD SWAP1 POP PUSH2 0x181E PUSH0 DUP4 ADD DUP5 PUSH2 0x17FC JUMP JUMPDEST SWAP3 SWAP2 POP POP JUMP JUMPDEST PUSH0 PUSH1 0x20 DUP3 ADD SWAP1 POP PUSH2 0x1837 PUSH0 DUP4 ADD DUP5 PUSH2 0x15C8 JUMP JUMPDEST SWAP3 SWAP2 POP POP JUMP JUMPDEST PUSH0 PUSH8 0xFFFFFFFFFFFFFFFF DUP3 GT ISZERO PUSH2 0x1857 JUMPI PUSH2 0x1856 PUSH2 0x1335 JUMP JUMPDEST JUMPDEST PUSH1 0x20 DUP3 MUL SWAP1 POP PUSH1 0x20 DUP2 ADD SWAP1 POP SWAP2 SWAP1 POP JUMP JUMPDEST PUSH0 PUSH2 0x187A PUSH2 0x1875 DUP5 PUSH2 0x183D JUMP JUMPDEST PUSH2 0x1393 JUMP JUMPDEST SWAP1 POP DUP1 DUP4 DUP3 MSTORE PUSH1 0x20 DUP3 ADD SWAP1 POP PUSH1 0x20 DUP5 MUL DUP4 ADD DUP6 DUP2 GT ISZERO PUSH2 0x189D JUMPI PUSH2 0x189C PUSH2 0x16E0 JUMP JUMPDEST JUMPDEST DUP4 JUMPDEST DUP2 DUP2 LT ISZERO PUSH2 0x18C6 JUMPI DUP1 PUSH2 0x18B2 DUP9 DUP3 PUSH2 0x1676 JUMP JUMPDEST DUP5 MSTORE PUSH1 0x20 DUP5 ADD SWAP4 POP POP PUSH1 0x20 DUP2 ADD SWAP1 POP PUSH2 0x189F JUMP JUMPDEST POP POP POP SWAP4 SWAP3 POP POP POP JUMP JUMPDEST PUSH0 DUP3 PUSH1 0x1F DUP4 ADD SLT PUSH2 0x18E4 JUMPI PUSH2 0x18E3 PUSH2 0x131D JUMP JUMPDEST JUMPDEST DUP2 CALLDATALOAD PUSH2 0x18F4 DUP5 DUP3 PUSH1 0x20 DUP7 ADD PUSH2 0x1868 JUMP JUMPDEST SWAP2 POP POP SWAP3 SWAP2 POP POP JUMP JUMPDEST PUSH0 PUSH1 0x20 DUP3 DUP5 SUB SLT ISZERO PUSH2 0x1912 JUMPI PUSH2 0x1911 PUSH2 0x1315 JUMP JUMPDEST JUMPDEST PUSH0 DUP3 ADD CALLDATALOAD PUSH8 0xFFFFFFFFFFFFFFFF DUP2 GT ISZERO PUSH2 0x192F JUMPI PUSH2 0x192E PUSH2 0x1319 JUMP JUMPDEST JUMPDEST PUSH2 0x193B DUP5 DUP3 DUP6 ADD PUSH2 0x18D0 JUMP JUMPDEST SWAP2 POP POP SWAP3 SWAP2 POP POP JUMP JUMPDEST PUSH0 DUP1 REVERT JUMPDEST PUSH0 DUP1 REVERT JUMPDEST PUSH0 PUSH1 0x60 DUP3 DUP5 SUB SLT ISZERO PUSH2 0x1961 JUMPI PUSH2 0x1960 PUSH2 0x1944 JUMP JUMPDEST JUMPDEST PUSH2 0x196B PUSH1 0x60 PUSH2 0x1393 JUMP JUMPDEST SWAP1 POP PUSH0 DUP3 ADD CALLDATALOAD PUSH8 0xFFFFFFFFFFFFFFFF DUP2 GT ISZERO PUSH2 0x198A JUMPI PUSH2 0x1989 PUSH2 0x1948 JUMP JUMPDEST JUMPDEST PUSH2 0x1996 DUP5 DUP3 DUP6 ADD PUSH2 0x142C JUMP JUMPDEST PUSH0 DUP4 ADD MSTORE POP PUSH1 0x20 PUSH2 0x19A9 DUP5 DUP3 DUP6 ADD PUSH2 0x1676 JUMP JUMPDEST PUSH1 0x20 DUP4 ADD MSTORE POP PUSH1 0x40 PUSH2 0x19BD DUP5 DUP3 DUP6 ADD PUSH2 0x1559 JUMP JUMPDEST PUSH1 0x40 DUP4 ADD MSTORE POP SWAP3 SWAP2 POP POP JUMP JUMPDEST PUSH2 0x19D2 DUP2 PUSH2 0x17F1 JUMP JUMPDEST DUP2 EQ PUSH2 0x19DC JUMPI PUSH0 DUP1 REVERT JUMPDEST POP JUMP JUMPDEST PUSH0 DUP2 CALLDATALOAD SWAP1 POP PUSH2 0x19ED DUP2 PUSH2 0x19C9 JUMP JUMPDEST SWAP3 SWAP2 POP POP JUMP JUMPDEST PUSH0 DUP1 PUSH1 0x40 DUP4 DUP6 SUB SLT ISZERO PUSH2 0x1A09 JUMPI PUSH2 0x1A08 PUSH2 0x1315 JUMP JUMPDEST JUMPDEST PUSH0 DUP4 ADD CALLDATALOAD PUSH8 0xFFFFFFFFFFFFFFFF DUP2 GT ISZERO PUSH2 0x1A26 JUMPI PUSH2 0x1A25 PUSH2 0x1319 JUMP JUMPDEST JUMPDEST PUSH2 0x1A32 DUP6 DUP3 DUP7 ADD PUSH2 0x194C JUMP JUMPDEST SWAP3 POP POP PUSH1 0x20 PUSH2 0x1A43 DUP6 DUP3 DUP7 ADD PUSH2 0x19DF JUMP JUMPDEST SWAP2 POP POP SWAP3 POP SWAP3 SWAP1 POP JUMP JUMPDEST PUSH32 0x4E487B7100000000000000000000000000000000000000000000000000000000 PUSH0 MSTORE PUSH1 0x11 PUSH1 0x4 MSTORE PUSH1 0x24 PUSH0 REVERT JUMPDEST PUSH0 PUSH2 0x1A84 DUP3 PUSH2 0x153A JUMP JUMPDEST SWAP2 POP PUSH2 0x1A8F DUP4 PUSH2 0x153A JUMP JUMPDEST SWAP3 POP DUP3 DUP3 MUL PUSH2 0x1A9D DUP2 PUSH2 0x153A JUMP JUMPDEST SWAP2 POP DUP3 DUP3 DIV DUP5 EQ DUP4 ISZERO OR PUSH2 0x1AB4 JUMPI PUSH2 0x1AB3 PUSH2 0x1A4D JUMP JUMPDEST JUMPDEST POP SWAP3 SWAP2 POP POP JUMP JUMPDEST PUSH32 0x4E487B7100000000000000000000000000000000000000000000000000000000 PUSH0 MSTORE PUSH1 0x32 PUSH1 0x4 MSTORE PUSH1 0x24 PUSH0 REVERT JUMPDEST PUSH32 0x4E487B7100000000000000000000000000000000000000000000000000000000 PUSH0 MSTORE PUSH1 0x12 PUSH1 0x4 MSTORE PUSH1 0x24 PUSH0 REVERT JUMPDEST PUSH0 PUSH2 0x1B1F DUP3 PUSH2 0x153A JUMP JUMPDEST SWAP2 POP PUSH2 0x1B2A DUP4 PUSH2 0x153A JUMP JUMPDEST SWAP3 POP DUP3 PUSH2 0x1B3A JUMPI PUSH2 0x1B39 PUSH2 0x1AE8 JUMP JUMPDEST JUMPDEST DUP3 DUP3 DIV SWAP1 POP SWAP3 SWAP2 POP POP JUMP JUMPDEST PUSH0 PUSH2 0x1B4F DUP3 PUSH2 0x153A JUMP JUMPDEST SWAP2 POP PUSH2 0x1B5A DUP4 PUSH2 0x153A JUMP JUMPDEST SWAP3 POP DUP3 PUSH2 0x1B6A JUMPI PUSH2 0x1B69 PUSH2 0x1AE8 JUMP JUMPDEST JUMPDEST DUP3 DUP3 MOD SWAP1 POP SWAP3 SWAP2 POP POP JUMP JUMPDEST PUSH0 PUSH2 0x1B7F DUP3 PUSH2 0x153A JUMP JUMPDEST SWAP2 POP PUSH2 0x1B8A DUP4 PUSH2 0x153A JUMP JUMPDEST SWAP3 POP DUP3 DUP3 ADD SWAP1 POP DUP1 DUP3 GT ISZERO PUSH2 0x1BA2 JUMPI PUSH2 0x1BA1 PUSH2 0x1A4D JUMP JUMPDEST JUMPDEST SWAP3 SWAP2 POP POP JUMP JUMPDEST PUSH32 0x4E487B7100000000000000000000000000000000000000000000000000000000 PUSH0 MSTORE PUSH1 0x22 PUSH1 0x4 MSTORE PUSH1 0x24 PUSH0 REVERT JUMPDEST PUSH0 PUSH1 0x2 DUP3 DIV SWAP1 POP PUSH1 0x1 DUP3 AND DUP1 PUSH2 0x1BEC JUMPI PUSH1 0x7F DUP3 AND SWAP2 POP JUMPDEST PUSH1 0x20 DUP3 LT DUP2 SUB PUSH2 0x1BFF JUMPI PUSH2 0x1BFE PUSH2 0x1BA8 JUMP JUMPDEST JUMPDEST POP SWAP2 SWAP1 POP JUMP JUMPDEST PUSH0 PUSH2 0x1C0F DUP3 PUSH2 0x153A JUMP JUMPDEST SWAP2 POP PUSH32 0xFFFFFFFFFFFFFFFFFFFFFFFFFFFFFFFFFFFFFFFFFFFFFFFFFFFFFFFFFFFFFFFF DUP3 SUB PUSH2 0x1C41 JUMPI PUSH2 0x1C40 PUSH2 0x1A4D JUMP JUMPDEST JUMPDEST PUSH1 0x1 DUP3 ADD SWAP1 POP SWAP2 SWAP1 POP JUMP JUMPDEST PUSH0 PUSH2 0x1C56 DUP3 PUSH2 0x153A JUMP JUMPDEST SWAP2 POP PUSH2 0x1C61 DUP4 PUSH2 0x153A JUMP JUMPDEST SWAP3 POP DUP3 DUP3 SUB SWAP1 POP DUP2 DUP2 GT ISZERO PUSH2 0x1C79 JUMPI PUSH2 0x1C78 PUSH2 0x1A4D JUMP JUMPDEST JUMPDEST SWAP3 SWAP2 POP POP JUMP JUMPDEST PUSH0 DUP2 PUSH1 0x60 SHL SWAP1 POP SWAP2 SWAP1 POP JUMP JUMPDEST PUSH0 PUSH2 0x1C95 DUP3 PUSH2 0x1C7F JUMP JUMPDEST SWAP1 POP SWAP2 SWAP1 POP JUMP JUMPDEST PUSH0 PUSH2 0x1CA6 DUP3 PUSH2 0x1C8B JUMP JUMPDEST SWAP1 POP SWAP2 SWAP1 POP JUMP JUMPDEST PUSH2 0x1CBE PUSH2 0x1CB9 DUP3 PUSH2 0x15B7 JUMP JUMPDEST PUSH2 0x1C9C JUMP JUMPDEST DUP3 MSTORE POP POP JUMP JUMPDEST PUSH0 PUSH2 0x1CCF DUP3 DUP5 PUSH2 0x1CAD JUMP JUMPDEST PUSH1 0x14 DUP3 ADD SWAP2 POP DUP2 SWAP1 POP SWAP3 SWAP2 POP POP JUMP JUMPDEST PUSH0 DUP2 SWAP1 POP DUP2 PUSH0 MSTORE PUSH1 0x20 PUSH0 KECCAK256 SWAP1 POP SWAP2 SWAP1 POP JUMP JUMPDEST PUSH0 PUSH1 0x20 PUSH1 0x1F DUP4 ADD DIV SWAP1 POP SWAP2 SWAP1 POP JUMP JUMPDEST PUSH0 DUP3 DUP3 SHL SWAP1 POP SWAP3 SWAP2 POP POP JUMP JUMPDEST PUSH0 PUSH1 0x8 DUP4 MUL PUSH2 0x1D3A PUSH32 0xFFFFFFFFFFFFFFFFFFFFFFFFFFFFFFFFFFFFFFFFFFFFFFFFFFFFFFFFFFFFFFFF DUP3 PUSH2 0x1CFF JUMP JUMPDEST PUSH2 0x1D44 DUP7 DUP4 PUSH2 0x1CFF JUMP JUMPDEST SWAP6 POP DUP1 NOT DUP5 AND SWAP4 POP DUP1 DUP7 AND DUP5 OR SWAP3 POP POP POP SWAP4 SWAP3 POP POP POP JUMP JUMPDEST PUSH0 DUP2 SWAP1 POP SWAP2 SWAP1 POP JUMP JUMPDEST PUSH0 PUSH2 0x1D7F PUSH2 0x1D7A PUSH2 0x1D75 DUP5 PUSH2 0x153A JUMP JUMPDEST PUSH2 0x1D5C JUMP JUMPDEST PUSH2 0x153A JUMP JUMPDEST SWAP1 POP SWAP2 SWAP1 POP JUMP JUMPDEST PUSH0 DUP2 SWAP1 POP SWAP2 SWAP1 POP JUMP JUMPDEST PUSH2 0x1D98 DUP4 PUSH2 0x1D65 JUMP JUMPDEST PUSH2 0x1DAC PUSH2 0x1DA4 DUP3 PUSH2 0x1D86 JUMP JUMPDEST DUP5 DUP5 SLOAD PUSH2 0x1D0B JUMP JUMPDEST DUP3 SSTORE POP POP POP POP JUMP JUMPDEST PUSH0 SWAP1 JUMP JUMPDEST PUSH2 0x1DC0 PUSH2 0x1DB4 JUMP JUMPDEST PUSH2 0x1DCB DUP2 DUP5 DUP5 PUSH2 0x1D8F JUMP JUMPDEST POP POP POP JUMP JUMPDEST JUMPDEST DUP2 DUP2 LT ISZERO PUSH2 0x1DEE JUMPI PUSH2 0x1DE3 PUSH0 DUP3 PUSH2 0x1DB8 JUMP JUMPDEST PUSH1 0x1 DUP2 ADD SWAP1 POP PUSH2 0x1DD1 JUMP JUMPDEST POP POP JUMP JUMPDEST PUSH1 0x1F DUP3 GT ISZERO PUSH2 0x1E33 JUMPI PUSH2 0x1E04 DUP2 PUSH2 0x1CDE JUMP JUMPDEST PUSH2 0x1E0D DUP5 PUSH2 0x1CF0 JUMP JUMPDEST DUP2 ADD PUSH1 0x20 DUP6 LT ISZERO PUSH2 0x1E1C JUMPI DUP2 SWAP1 POP JUMPDEST PUSH2 0x1E30 PUSH2 0x1E28 DUP6 PUSH2 0x1CF0 JUMP JUMPDEST DUP4 ADD DUP3 PUSH2 0x1DD0 JUMP JUMPDEST POP POP JUMPDEST POP POP POP JUMP JUMPDEST PUSH0 DUP3 DUP3 SHR SWAP1 POP SWAP3 SWAP2 POP POP JUMP JUMPDEST PUSH0 PUSH2 0x1E53 PUSH0 NOT DUP5 PUSH1 0x8 MUL PUSH2 0x1E38 JUMP JUMPDEST NOT DUP1 DUP4 AND SWAP2 POP POP SWAP3 SWAP2 POP POP JUMP JUMPDEST PUSH0 PUSH2 0x1E6B DUP4 DUP4 PUSH2 0x1E44 JUMP JUMPDEST SWAP2 POP DUP3 PUSH1 0x2 MUL DUP3 OR SWAP1 POP SWAP3 SWAP2 POP POP JUMP JUMPDEST PUSH2 0x1E84 DUP3 PUSH2 0x14A0 JUMP JUMPDEST PUSH8 0xFFFFFFFFFFFFFFFF DUP2 GT ISZERO PUSH2 0x1E9D JUMPI PUSH2 0x1E9C PUSH2 0x1335 JUMP JUMPDEST JUMPDEST PUSH2 0x1EA7 DUP3 SLOAD PUSH2 0x1BD5 JUMP JUMPDEST PUSH2 0x1EB2 DUP3 DUP3 DUP6 PUSH2 0x1DF2 JUMP JUMPDEST PUSH0 PUSH1 0x20 SWAP1 POP PUSH1 0x1F DUP4 GT PUSH1 0x1 DUP2 EQ PUSH2 0x1EE3 JUMPI PUSH0 DUP5 ISZERO PUSH2 0x1ED1 JUMPI DUP3 DUP8 ADD MLOAD SWAP1 POP JUMPDEST PUSH2 0x1EDB DUP6 DUP3 PUSH2 0x1E60 JUMP JUMPDEST DUP7 SSTORE POP PUSH2 0x1F42 JUMP JUMPDEST PUSH1 0x1F NOT DUP5 AND PUSH2 0x1EF1 DUP7 PUSH2 0x1CDE JUMP JUMPDEST PUSH0 JUMPDEST DUP3 DUP2 LT ISZERO PUSH2 0x1F18 JUMPI DUP5 DUP10 ADD MLOAD DUP3 SSTORE PUSH1 0x1 DUP3 ADD SWAP2 POP PUSH1 0x20 DUP6 ADD SWAP5 POP PUSH1 0x20 DUP2 ADD SWAP1 POP PUSH2 0x1EF3 JUMP JUMPDEST DUP7 DUP4 LT ISZERO PUSH2 0x1F35 JUMPI DUP5 DUP10 ADD MLOAD PUSH2 0x1F31 PUSH1 0x1F DUP10 AND DUP3 PUSH2 0x1E44 JUMP JUMPDEST DUP4 SSTORE POP JUMPDEST PUSH1 0x1 PUSH1 0x2 DUP9 MUL ADD DUP9 SSTORE POP POP POP JUMPDEST POP POP POP POP POP POP JUMP INVALID LOG2 PUSH5 0x6970667358 0x22 SLT KECCAK256 PUSH27 0x7A2CA875BE1B6D8C99A018ABF01BE4D7860E9CD13E55CF1B0EC553 GASLIMIT MSTORE8 PUSH21 0x2D64736F6C63430008170033000000000000000000 "
				},
				"gasEstimates": {
					"creation": {
						"codeDepositCost": "1612800",
						"executionCost": "infinite",
						"totalCost": "infinite"
					},
					"external": {
						"AddManager(address[])": "infinite",
						"Authorization(bytes)": "infinite",
						"GetAuthJson(uint256,uint256)": "infinite",
						"GetItemJson((bytes,address,uint256),bool)": "infinite",
						"RemoveManager(address[])": "infinite",
						"ToHex(bytes)": "infinite",
						"authorizations(uint256)": "infinite",
						"bytesConcat(bytes[],uint256)": "infinite",
						"owner()": "2530",
						"toBytes(address)": "infinite",
						"u256ToBytes(uint256)": "infinite",
						"valid_managers(address)": "2833"
					}
				},
				"methodIdentifiers": {
					"AddManager(address[])": "e802a850",
					"Authorization(bytes)": "e9073fc6",
					"GetAuthJson(uint256,uint256)": "34f4f5f1",
					"GetItemJson((bytes,address,uint256),bool)": "e8039e35",
					"RemoveManager(address[])": "f62aef33",
					"ToHex(bytes)": "0cdb0d53",
					"authorizations(uint256)": "210d66f8",
					"bytesConcat(bytes[],uint256)": "70587c10",
					"owner()": "8da5cb5b",
					"toBytes(address)": "593b79fe",
					"u256ToBytes(uint256)": "2e559c0d",
					"valid_managers(address)": "856ed094"
				}
			},
			"storageLayout": {
				"storage": [
					{
						"astId": 11,
						"contract": "auth.sol:DataAuthorization",
						"label": "authId",
						"offset": 0,
						"slot": "0",
						"type": "t_uint256"
					},
					{
						"astId": 13,
						"contract": "auth.sol:DataAuthorization",
						"label": "owner",
						"offset": 0,
						"slot": "1",
						"type": "t_address"
					},
					{
						"astId": 18,
						"contract": "auth.sol:DataAuthorization",
						"label": "authorizations",
						"offset": 0,
						"slot": "2",
						"type": "t_mapping(t_uint256,t_struct(AuthorizationInfo)8_storage)"
					},
					{
						"astId": 22,
						"contract": "auth.sol:DataAuthorization",
						"label": "valid_managers",
						"offset": 0,
						"slot": "3",
						"type": "t_mapping(t_address,t_bool)"
					}
				],
				"types": {
					"t_address": {
						"encoding": "inplace",
						"label": "address",
						"numberOfBytes": "20"
					},
					"t_bool": {
						"encoding": "inplace",
						"label": "bool",
						"numberOfBytes": "1"
					},
					"t_bytes_storage": {
						"encoding": "bytes",
						"label": "bytes",
						"numberOfBytes": "32"
					},
					"t_mapping(t_address,t_bool)": {
						"encoding": "mapping",
						"key": "t_address",
						"label": "mapping(address => bool)",
						"numberOfBytes": "32",
						"value": "t_bool"
					},
					"t_mapping(t_uint256,t_struct(AuthorizationInfo)8_storage)": {
						"encoding": "mapping",
						"key": "t_uint256",
						"label": "mapping(uint256 => struct DataAuthorization.AuthorizationInfo)",
						"numberOfBytes": "32",
						"value": "t_struct(AuthorizationInfo)8_storage"
					},
					"t_struct(AuthorizationInfo)8_storage": {
						"encoding": "inplace",
						"label": "struct DataAuthorization.AuthorizationInfo",
						"members": [
							{
								"astId": 3,
								"contract": "auth.sol:DataAuthorization",
								"label": "authInfo",
								"offset": 0,
								"slot": "0",
								"type": "t_bytes_storage"
							},
							{
								"astId": 5,
								"contract": "auth.sol:DataAuthorization",
								"label": "author",
								"offset": 0,
								"slot": "1",
								"type": "t_address"
							},
							{
								"astId": 7,
								"contract": "auth.sol:DataAuthorization",
								"label": "authId",
								"offset": 0,
								"slot": "2",
								"type": "t_uint256"
							}
						],
						"numberOfBytes": "96"
					},
					"t_uint256": {
						"encoding": "inplace",
						"label": "uint256",
						"numberOfBytes": "32"
					}
				}
			},
			"userdoc": {
				"kind": "user",
				"methods": {},
				"version": 1
			}
		}
	}
}